{"contracts/Helsinki.sol":{"Helsinki":{"abi":[{"inputs":[],"stateMutability":"nonpayable","type":"constructor"},{"inputs":[{"internalType":"address","name":"sender","type":"address"},{"internalType":"uint256","name":"balance","type":"uint256"},{"internalType":"uint256","name":"needed","type":"uint256"},{"internalType":"uint256","name":"tokenId","type":"uint256"}],"name":"ERC1155InsufficientBalance","type":"error"},{"inputs":[{"internalType":"address","name":"approver","type":"address"}],"name":"ERC1155InvalidApprover","type":"error"},{"inputs":[{"internalType":"uint256","name":"idsLength","type":"uint256"},{"internalType":"uint256","name":"valuesLength","type":"uint256"}],"name":"ERC1155InvalidArrayLength","type":"error"},{"inputs":[{"internalType":"address","name":"operator","type":"address"}],"name":"ERC1155InvalidOperator","type":"error"},{"inputs":[{"internalType":"address","name":"receiver","type":"address"}],"name":"ERC1155InvalidReceiver","type":"error"},{"inputs":[{"internalType":"address","name":"sender","type":"address"}],"name":"ERC1155InvalidSender","type":"error"},{"inputs":[{"internalType":"address","name":"operator","type":"address"},{"internalType":"address","name":"owner","type":"address"}],"name":"ERC1155MissingApprovalForAll","type":"error"},{"inputs":[],"name":"NotClosed","type":"error"},{"inputs":[],"name":"NotFunded","type":"error"},{"inputs":[],"name":"NotPassed","type":"error"},{"inputs":[{"internalType":"address","name":"account","type":"address"}],"name":"OwnableUnauthorizedAccount","type":"error"},{"inputs":[],"name":"ReentrancyGuardReentrantCall","type":"error"},{"anonymous":false,"inputs":[{"indexed":true,"internalType":"address","name":"account","type":"address"},{"indexed":true,"internalType":"address","name":"operator","type":"address"},{"indexed":false,"internalType":"bool","name":"approved","type":"bool"}],"name":"ApprovalForAll","type":"event"},{"anonymous":false,"inputs":[{"indexed":true,"internalType":"address","name":"operator","type":"address"},{"indexed":true,"internalType":"address","name":"from","type":"address"},{"indexed":true,"internalType":"address","name":"to","type":"address"},{"indexed":false,"internalType":"uint256[]","name":"ids","type":"uint256[]"},{"indexed":false,"internalType":"uint256[]","name":"values","type":"uint256[]"}],"name":"TransferBatch","type":"event"},{"anonymous":false,"inputs":[{"indexed":true,"internalType":"address","name":"operator","type":"address"},{"indexed":true,"internalType":"address","name":"from","type":"address"},{"indexed":true,"internalType":"address","name":"to","type":"address"},{"indexed":false,"internalType":"uint256","name":"id","type":"uint256"},{"indexed":false,"internalType":"uint256","name":"value","type":"uint256"}],"name":"TransferSingle","type":"event"},{"anonymous":false,"inputs":[{"indexed":false,"internalType":"string","name":"value","type":"string"},{"indexed":true,"internalType":"uint256","name":"id","type":"uint256"}],"name":"URI","type":"event"},{"inputs":[],"name":"_owner","outputs":[{"internalType":"address","name":"","type":"address"}],"stateMutability":"view","type":"function"},{"inputs":[{"internalType":"address","name":"account","type":"address"},{"internalType":"uint256","name":"id","type":"uint256"}],"name":"balanceOf","outputs":[{"internalType":"uint256","name":"","type":"uint256"}],"stateMutability":"view","type":"function"},{"inputs":[{"internalType":"address[]","name":"accounts","type":"address[]"},{"internalType":"uint256[]","name":"ids","type":"uint256[]"}],"name":"balanceOfBatch","outputs":[{"internalType":"uint256[]","name":"","type":"uint256[]"}],"stateMutability":"view","type":"function"},{"inputs":[{"internalType":"address","name":"account","type":"address"},{"internalType":"uint256","name":"id","type":"uint256"},{"internalType":"uint256","name":"value","type":"uint256"}],"name":"burn","outputs":[],"stateMutability":"nonpayable","type":"function"},{"inputs":[{"internalType":"address","name":"account","type":"address"},{"internalType":"uint256[]","name":"ids","type":"uint256[]"},{"internalType":"uint256[]","name":"values","type":"uint256[]"}],"name":"burnBatch","outputs":[],"stateMutability":"nonpayable","type":"function"},{"inputs":[],"name":"buyLong","outputs":[],"stateMutability":"payable","type":"function"},{"inputs":[],"name":"buyShort","outputs":[],"stateMutability":"payable","type":"function"},{"inputs":[{"internalType":"uint256","name":"totalSupply","type":"uint256"},{"internalType":"uint256","name":"depositAmount","type":"uint256"},{"internalType":"uint32","name":"slope","type":"uint32"}],"name":"calculateBuyReturn","outputs":[{"internalType":"uint256","name":"","type":"uint256"}],"stateMutability":"pure","type":"function"},{"inputs":[{"internalType":"uint256","name":"amount","type":"uint256"}],"name":"calculateLongSpotPrice","outputs":[{"internalType":"uint256","name":"","type":"uint256"}],"stateMutability":"view","type":"function"},{"inputs":[{"internalType":"uint256","name":"totalSupply","type":"uint256"},{"internalType":"uint32","name":"slope","type":"uint32"}],"name":"calculatePrice","outputs":[{"internalType":"uint256","name":"","type":"uint256"}],"stateMutability":"pure","type":"function"},{"inputs":[{"internalType":"uint256","name":"amount","type":"uint256"}],"name":"calculateShortSpotPrice","outputs":[{"internalType":"uint256","name":"","type":"uint256"}],"stateMutability":"view","type":"function"},{"inputs":[],"name":"checkTenure","outputs":[],"stateMutability":"nonpayable","type":"function"},{"inputs":[{"internalType":"uint256","name":"id","type":"uint256"}],"name":"exists","outputs":[{"internalType":"bool","name":"","type":"bool"}],"stateMutability":"view","type":"function"},{"inputs":[],"name":"foreclose","outputs":[],"stateMutability":"payable","type":"function"},{"inputs":[{"internalType":"uint256","name":"amount","type":"uint256"},{"internalType":"uint256","name":"security","type":"uint256"},{"internalType":"uint8","name":"tenure","type":"uint8"},{"internalType":"address","name":"walletAddress","type":"address"},{"internalType":"uint32","name":"_slope","type":"uint32"}],"name":"init","outputs":[],"stateMutability":"nonpayable","type":"function"},{"inputs":[{"internalType":"address","name":"account","type":"address"},{"internalType":"address","name":"operator","type":"address"}],"name":"isApprovedForAll","outputs":[{"internalType":"bool","name":"","type":"bool"}],"stateMutability":"view","type":"function"},{"inputs":[],"name":"owner","outputs":[{"internalType":"address","name":"","type":"address"}],"stateMutability":"view","type":"function"},{"inputs":[],"name":"payEmi","outputs":[],"stateMutability":"payable","type":"function"},{"inputs":[],"name":"poolBalance","outputs":[{"internalType":"uint256","name":"","type":"uint256"}],"stateMutability":"view","type":"function"},{"inputs":[],"name":"proposalStorage","outputs":[{"internalType":"uint256","name":"amount","type":"uint256"},{"internalType":"uint256","name":"security","type":"uint256"},{"internalType":"uint256","name":"longerPool","type":"uint256"},{"internalType":"uint256","name":"shorterPool","type":"uint256"},{"internalType":"uint256","name":"amountPaid","type":"uint256"},{"internalType":"uint256","name":"emiAmount","type":"uint256"},{"internalType":"uint256","name":"startTime","type":"uint256"},{"internalType":"uint8","name":"emisLeft","type":"uint8"},{"internalType":"uint8","name":"interest","type":"uint8"},{"internalType":"uint8","name":"tenure","type":"uint8"},{"internalType":"address","name":"walletAddress","type":"address"},{"internalType":"enum HelperLib.State","name":"state","type":"uint8"}],"stateMutability":"view","type":"function"},{"inputs":[{"internalType":"address","name":"from","type":"address"},{"internalType":"address","name":"to","type":"address"},{"internalType":"uint256[]","name":"ids","type":"uint256[]"},{"internalType":"uint256[]","name":"values","type":"uint256[]"},{"internalType":"bytes","name":"data","type":"bytes"}],"name":"safeBatchTransferFrom","outputs":[],"stateMutability":"nonpayable","type":"function"},{"inputs":[{"internalType":"address","name":"from","type":"address"},{"internalType":"address","name":"to","type":"address"},{"internalType":"uint256","name":"id","type":"uint256"},{"internalType":"uint256","name":"value","type":"uint256"},{"internalType":"bytes","name":"data","type":"bytes"}],"name":"safeTransferFrom","outputs":[],"stateMutability":"nonpayable","type":"function"},{"inputs":[],"name":"scale","outputs":[{"internalType":"uint256","name":"","type":"uint256"}],"stateMutability":"view","type":"function"},{"inputs":[],"name":"sellLong","outputs":[],"stateMutability":"payable","type":"function"},{"inputs":[],"name":"sellShort","outputs":[],"stateMutability":"payable","type":"function"},{"inputs":[{"internalType":"address","name":"operator","type":"address"},{"internalType":"bool","name":"approved","type":"bool"}],"name":"setApprovalForAll","outputs":[],"stateMutability":"nonpayable","type":"function"},{"inputs":[],"name":"slope","outputs":[{"internalType":"uint32","name":"","type":"uint32"}],"stateMutability":"view","type":"function"},{"inputs":[{"internalType":"bytes4","name":"interfaceId","type":"bytes4"}],"name":"supportsInterface","outputs":[{"internalType":"bool","name":"","type":"bool"}],"stateMutability":"view","type":"function"},{"inputs":[],"name":"totalSupply","outputs":[{"internalType":"uint256","name":"","type":"uint256"}],"stateMutability":"view","type":"function"},{"inputs":[{"internalType":"uint256","name":"id","type":"uint256"}],"name":"totalSupply","outputs":[{"internalType":"uint256","name":"","type":"uint256"}],"stateMutability":"view","type":"function"},{"inputs":[{"internalType":"uint256","name":"","type":"uint256"}],"name":"uri","outputs":[{"internalType":"string","name":"","type":"string"}],"stateMutability":"view","type":"function"},{"inputs":[],"name":"winner","outputs":[{"internalType":"enum HelperLib.TokenType","name":"","type":"uint8"}],"stateMutability":"view","type":"function"},{"inputs":[],"name":"withdraw","outputs":[],"stateMutability":"nonpayable","type":"function"},{"stateMutability":"payable","type":"receive"}],"evm":{"bytecode":{"linkReferences":{},"object":"6080604052670de0b6b3a7640000600f55600f546001620000219190620000b0565b6010553480156200003157600080fd5b506040518060200160405280600081525062000053816200006260201b60201c565b50600160058190555062000452565b80600290816200007391906200036b565b5050565b6000819050919050565b7f4e487b7100000000000000000000000000000000000000000000000000000000600052601160045260246000fd5b6000620000bd8262000077565b9150620000ca8362000077565b9250828202620000da8162000077565b91508282048414831517620000f457620000f362000081565b5b5092915050565b600081519050919050565b7f4e487b7100000000000000000000000000000000000000000000000000000000600052604160045260246000fd5b7f4e487b7100000000000000000000000000000000000000000000000000000000600052602260045260246000fd5b600060028204905060018216806200017d57607f821691505b60208210810362000193576200019262000135565b5b50919050565b60008190508160005260206000209050919050565b60006020601f8301049050919050565b600082821b905092915050565b600060088302620001fd7fffffffffffffffffffffffffffffffffffffffffffffffffffffffffffffffff82620001be565b620002098683620001be565b95508019841693508086168417925050509392505050565b6000819050919050565b60006200024c62000246620002408462000077565b62000221565b62000077565b9050919050565b6000819050919050565b62000268836200022b565b62000280620002778262000253565b848454620001cb565b825550505050565b600090565b6200029762000288565b620002a48184846200025d565b505050565b5b81811015620002cc57620002c06000826200028d565b600181019050620002aa565b5050565b601f8211156200031b57620002e58162000199565b620002f084620001ae565b8101602085101562000300578190505b620003186200030f85620001ae565b830182620002a9565b50505b505050565b600082821c905092915050565b6000620003406000198460080262000320565b1980831691505092915050565b60006200035b83836200032d565b9150826002028217905092915050565b6200037682620000fb565b67ffffffffffffffff81111562000392576200039162000106565b5b6200039e825462000164565b620003ab828285620002d0565b600060209050601f831160018114620003e35760008415620003ce578287015190505b620003da85826200034d565b8655506200044a565b601f198416620003f38662000199565b60005b828110156200041d57848901518255600182019150602085019450602081019050620003f6565b868310156200043d578489015162000439601f8916826200032d565b8355505b6001600288020188555050505b505050505050565b613dbf80620004626000396000f3fe6080604052600436106101f05760003560e01c80637ab6d6381161010d578063c4139441116100a0578063e985e9c51161006f578063e985e9c5146106d4578063eb6266e214610711578063f242432a1461071b578063f51e181a14610744578063f5298aca1461076f57610231565b8063c4139441146105f9578063cbced76014610636578063dfbf53ae1461066c578063e37b7a7a1461069757610231565b806396365d44116100dc57806396365d441461053d578063a22cb46514610568578063b2bdfa7b14610591578063bd85b039146105bc57610231565b80637ab6d638146104d357806383caf275146104dd578063881fa170146105085780638da5cb5b1461051257610231565b80632eb2c2d6116101855780634e1273f4116101545780634e1273f4146104265780634f558e79146104635780636b20c454146104a057806374f7ef4b146104c957610231565b80632eb2c2d6146103a65780633073d0cf146103cf5780633a31f9da146103e65780633ccfd60b1461040f57610231565b806308801c20116101c157806308801c20146102f75780630e89341c1461030157806318160ddd1461033e57806324ae021c1461036957610231565b80620198da14610236578062fdd58e1461024057806301ffc9a71461027d578063042c19e7146102ba57610231565b3661023157600760010154471061022f5760016007800160176101000a81548160ff0219169083600381111561022957610228612afa565b5b02179055505b005b600080fd5b61023e610798565b005b34801561024c57600080fd5b5061026760048036038101906102629190612bd1565b6108af565b6040516102749190612c20565b60405180910390f35b34801561028957600080fd5b506102a4600480360381019061029f9190612c93565b610909565b6040516102b19190612cdb565b60405180910390f35b3480156102c657600080fd5b506102e160048036038101906102dc9190612cf6565b6109eb565b6040516102ee9190612c20565b60405180910390f35b6102ff610a2b565b005b34801561030d57600080fd5b5061032860048036038101906103239190612cf6565b610c1d565b6040516103359190612db3565b60405180910390f35b34801561034a57600080fd5b50610353610cb1565b6040516103609190612c20565b60405180910390f35b34801561037557600080fd5b50610390600480360381019061038b9190612e11565b610cbb565b60405161039d9190612c20565b60405180910390f35b3480156103b257600080fd5b506103cd60048036038101906103c89190613061565b610ce0565b005b3480156103db57600080fd5b506103e4610d88565b005b3480156103f257600080fd5b5061040d60048036038101906104089190613169565b610e8d565b005b34801561041b57600080fd5b5061042461103f565b005b34801561043257600080fd5b5061044d600480360381019061044891906132a7565b611126565b60405161045a91906133dd565b60405180910390f35b34801561046f57600080fd5b5061048a60048036038101906104859190612cf6565b611235565b6040516104979190612cdb565b60405180910390f35b3480156104ac57600080fd5b506104c760048036038101906104c291906133ff565b611249565b005b6104d16112f5565b005b6104db6113ad565b005b3480156104e957600080fd5b506104f26114cf565b6040516104ff9190613499565b60405180910390f35b6105106114e5565b005b34801561051e57600080fd5b5061052761159e565b60405161053491906134c3565b60405180910390f35b34801561054957600080fd5b506105526115c8565b60405161055f9190612c20565b60405180910390f35b34801561057457600080fd5b5061058f600480360381019061058a919061350a565b6115ce565b005b34801561059d57600080fd5b506105a66115e4565b6040516105b391906134c3565b60405180910390f35b3480156105c857600080fd5b506105e360048036038101906105de9190612cf6565b61160a565b6040516105f09190612c20565b60405180910390f35b34801561060557600080fd5b50610620600480360381019061061b919061354a565b611627565b60405161062d9190612c20565b60405180910390f35b34801561064257600080fd5b5061064b611643565b6040516106639c9b9a999897969594939291906135e1565b60405180910390f35b34801561067857600080fd5b506106816116e5565b60405161068e91906136e3565b60405180910390f35b3480156106a357600080fd5b506106be60048036038101906106b99190612cf6565b6116f8565b6040516106cb9190612c20565b60405180910390f35b3480156106e057600080fd5b506106fb60048036038101906106f691906136fe565b611738565b6040516107089190612cdb565b60405180910390f35b6107196117cc565b005b34801561072757600080fd5b50610742600480360381019061073d919061373e565b6118d5565b005b34801561075057600080fd5b5061075961197d565b6040516107669190612c20565b60405180910390f35b34801561077b57600080fd5b50610796600480360381019061079191906137d5565b611983565b005b600160038111156107ac576107ab612afa565b5b6007800160179054906101000a900460ff1660038111156107d0576107cf612afa565b5b14610807576040517fd5ef09ba00000000000000000000000000000000000000000000000000000000815260040160405180910390fd5b6000341161084a576040517f08c379a000000000000000000000000000000000000000000000000000000000815260040161084190613874565b60405180910390fd5b600061088361086a60018081111561086557610864612afa565b5b61160a565b34601160009054906101000a900463ffffffff16610cbb565b9050346007600301600082825461089a91906138c3565b925050819055506108ac816001611a2f565b50565b600080600083815260200190815260200160002060008473ffffffffffffffffffffffffffffffffffffffff1673ffffffffffffffffffffffffffffffffffffffff16815260200190815260200160002054905092915050565b60007fd9b67a26000000000000000000000000000000000000000000000000000000007bffffffffffffffffffffffffffffffffffffffffffffffffffffffff1916827bffffffffffffffffffffffffffffffffffffffffffffffffffffffff191614806109d457507f0e89341c000000000000000000000000000000000000000000000000000000007bffffffffffffffffffffffffffffffffffffffffffffffffffffffff1916827bffffffffffffffffffffffffffffffffffffffffffffffffffffffff1916145b806109e457506109e382611a60565b5b9050919050565b6000610a24610a0b600180811115610a0657610a05612afa565b5b61160a565b83601160009054906101000a900463ffffffff16610cbb565b9050919050565b60016003811115610a3f57610a3e612afa565b5b6007800160179054906101000a900460ff166003811115610a6357610a62612afa565b5b14610a9a576040517fd5ef09ba00000000000000000000000000000000000000000000000000000000815260040160405180910390fd5b60003411610add576040517f08c379a0000000000000000000000000000000000000000000000000000000008152600401610ad490613874565b60405180910390fd5b3460076002016000828254610af291906138c3565b9250508190555060076000015460076002015410610bd35760026007800160176101000a81548160ff02191690836003811115610b3257610b31612afa565b5b0217905550600760030154600760020154610b4d9190613926565b6007800160016101000a81548160ff021916908360ff1602179055506007800160029054906101000a900460ff1660ff1660646007800160019054906101000a900460ff1660ff16600760000154610ba59190613957565b610baf9190613926565b600760000154610bbf91906138c3565b610bc99190613926565b6007600501819055505b6000610c0d610bf460006001811115610bef57610bee612afa565b5b61160a565b34601160009054906101000a900463ffffffff16610cbb565b9050610c1a816000611a2f565b50565b606060028054610c2c906139c8565b80601f0160208091040260200160405190810160405280929190818152602001828054610c58906139c8565b8015610ca55780601f10610c7a57610100808354040283529160200191610ca5565b820191906000526020600020905b815481529060010190602001808311610c8857829003601f168201915b50505050509050919050565b6000600454905090565b600080610cc88584611627565b90508084610cd69190613926565b9150509392505050565b6000610cea611aca565b90508073ffffffffffffffffffffffffffffffffffffffff168673ffffffffffffffffffffffffffffffffffffffff1614158015610d2f5750610d2d8682611738565b155b15610d735780866040517fe237d922000000000000000000000000000000000000000000000000000000008152600401610d6a9291906139f9565b60405180910390fd5b610d808686868686611ad2565b505050505050565b60026003811115610d9c57610d9b612afa565b5b6007800160179054906101000a900460ff166003811115610dc057610dbf612afa565b5b14610df7576040517fb26b5a6400000000000000000000000000000000000000000000000000000000815260040160405180910390fd5b62093a8060046007800160029054906101000a900460ff16610e199190613a22565b60ff16610e269190613a6e565b62ffffff1660076006015442610e3c9190613aab565b1115610e8b5760006007800160009054906101000a900460ff1660ff1614610e8a576001600660146101000a81548160ff02191690836001811115610e8457610e83612afa565b5b02179055505b5b565b610e95611bca565b8460076000018190555083600760010181905550826007800160026101000a81548160ff021916908360ff160217905550816007800160036101000a81548173ffffffffffffffffffffffffffffffffffffffff021916908373ffffffffffffffffffffffffffffffffffffffff16021790555060006007800160176101000a81548160ff02191690836003811115610f3157610f30612afa565b5b021790555080601160006101000a81548163ffffffff021916908363ffffffff160217905550826007800160006101000a81548160ff021916908360ff160217905550600060076004018190555060006007600501819055504260076006018190555081600660006101000a81548173ffffffffffffffffffffffffffffffffffffffff021916908373ffffffffffffffffffffffffffffffffffffffff1602179055506110038260006001811115610fed57610fec612afa565b5b8760405180602001604052806000815250611c10565b6110308260018081111561101a57611019612afa565b5b8760405180602001604052806000815250611c10565b611038611ca9565b5050505050565b611047611cb3565b6002600381111561105b5761105a612afa565b5b6007800160179054906101000a900460ff16600381111561107f5761107e612afa565b5b146110b6576040517fb26b5a6400000000000000000000000000000000000000000000000000000000815260040160405180910390fd5b600660009054906101000a900473ffffffffffffffffffffffffffffffffffffffff1673ffffffffffffffffffffffffffffffffffffffff166108fc6007600001549081150290604051600060405180830381858888f19350505050158015611123573d6000803e3d6000fd5b50565b6060815183511461117257815183516040517f5b059991000000000000000000000000000000000000000000000000000000008152600401611169929190613adf565b60405180910390fd5b6000835167ffffffffffffffff81111561118f5761118e612e69565b5b6040519080825280602002602001820160405280156111bd5781602001602082028036833780820191505090505b50905060005b845181101561122a576111fa6111e28287611d3a90919063ffffffff16565b6111f58387611d4e90919063ffffffff16565b6108af565b82828151811061120d5761120c613b08565b5b6020026020010181815250508061122390613b37565b90506111c3565b508091505092915050565b6000806112418361160a565b119050919050565b611251611aca565b73ffffffffffffffffffffffffffffffffffffffff168373ffffffffffffffffffffffffffffffffffffffff161415801561129a575061129883611293611aca565b611738565b155b156112e5576112a7611aca565b836040517fe237d9220000000000000000000000000000000000000000000000000000000081526004016112dc9291906139f9565b60405180910390fd5b6112f0838383611d62565b505050565b60038081111561130857611307612afa565b5b6007800160179054906101000a900460ff16600381111561132c5761132b612afa565b5b14611363576040517f8b4b52de00000000000000000000000000000000000000000000000000000000815260040160405180910390fd5b600061139d47611385336001808111156113805761137f612afa565b5b6108af565b601160009054906101000a900463ffffffff16610cbb565b90506113aa816001611df6565b50565b600260038111156113c1576113c0612afa565b5b6007800160179054906101000a900460ff1660038111156113e5576113e4612afa565b5b1461141c576040517fb26b5a6400000000000000000000000000000000000000000000000000000000815260040160405180910390fd5b60076005015434101561142e57600080fd5b60016007800160008282829054906101000a900460ff1661144f9190613b7f565b92506101000a81548160ff021916908360ff160217905550346007600401600082825461147c91906138c3565b9250508190555060006007800160009054906101000a900460ff1660ff16036114cd5760036007800160176101000a81548160ff021916908360038111156114c7576114c6612afa565b5b02179055505b565b601160009054906101000a900463ffffffff1681565b6003808111156114f8576114f7612afa565b5b6007800160179054906101000a900460ff16600381111561151c5761151b612afa565b5b14611553576040517f8b4b52de00000000000000000000000000000000000000000000000000000000815260040160405180910390fd5b600061158e47611576336000600181111561157157611570612afa565b5b6108af565b601160009054906101000a900463ffffffff16610cbb565b905061159b816000611df6565b50565b6000600660009054906101000a900473ffffffffffffffffffffffffffffffffffffffff16905090565b60105481565b6115e06115d9611aca565b8383611e17565b5050565b600660009054906101000a900473ffffffffffffffffffffffffffffffffffffffff1681565b600060036000838152602001908152602001600020549050919050565b6000828263ffffffff1661163b9190613957565b905092915050565b60078060000154908060010154908060020154908060030154908060040154908060050154908060060154908060070160009054906101000a900460ff16908060070160019054906101000a900460ff16908060070160029054906101000a900460ff16908060070160039054906101000a900473ffffffffffffffffffffffffffffffffffffffff16908060070160179054906101000a900460ff1690508c565b600660149054906101000a900460ff1681565b600061173161171860018081111561171357611712612afa565b5b61160a565b83601160009054906101000a900463ffffffff16610cbb565b9050919050565b6000600160008473ffffffffffffffffffffffffffffffffffffffff1673ffffffffffffffffffffffffffffffffffffffff16815260200190815260200160002060008373ffffffffffffffffffffffffffffffffffffffff1673ffffffffffffffffffffffffffffffffffffffff16815260200190815260200160002060009054906101000a900460ff16905092915050565b600260038111156117e0576117df612afa565b5b6007800160179054906101000a900460ff16600381111561180457611803612afa565b5b1461183b576040517fb26b5a6400000000000000000000000000000000000000000000000000000000815260040160405180910390fd5b6007600501546007800160009054906101000a900460ff1660ff166118609190613957565b34101561186c57600080fd5b60006007800160006101000a81548160ff021916908360ff160217905550346007600401600082825461189f91906138c3565b9250508190555060036007800160176101000a81548160ff021916908360038111156118ce576118cd612afa565b5b0217905550565b60006118df611aca565b90508073ffffffffffffffffffffffffffffffffffffffff168673ffffffffffffffffffffffffffffffffffffffff161415801561192457506119228682611738565b155b156119685780866040517fe237d92200000000000000000000000000000000000000000000000000000000815260040161195f9291906139f9565b60405180910390fd5b6119758686868686611f87565b505050505050565b600f5481565b61198b611aca565b73ffffffffffffffffffffffffffffffffffffffff168373ffffffffffffffffffffffffffffffffffffffff16141580156119d457506119d2836119cd611aca565b611738565b155b15611a1f576119e1611aca565b836040517fe237d922000000000000000000000000000000000000000000000000000000008152600401611a169291906139f9565b60405180910390fd5b611a2a838383612092565b505050565b611a5c33826001811115611a4657611a45612afa565b5b8460405180602001604052806000815250611c10565b5050565b60007f01ffc9a7000000000000000000000000000000000000000000000000000000007bffffffffffffffffffffffffffffffffffffffffffffffffffffffff1916827bffffffffffffffffffffffffffffffffffffffffffffffffffffffff1916149050919050565b600033905090565b600073ffffffffffffffffffffffffffffffffffffffff168473ffffffffffffffffffffffffffffffffffffffff1603611b445760006040517f57f447ce000000000000000000000000000000000000000000000000000000008152600401611b3b91906134c3565b60405180910390fd5b600073ffffffffffffffffffffffffffffffffffffffff168573ffffffffffffffffffffffffffffffffffffffff1603611bb65760006040517f01a83514000000000000000000000000000000000000000000000000000000008152600401611bad91906134c3565b60405180910390fd5b611bc38585858585612139565b5050505050565b600260055403611c06576040517f3ee5aeb500000000000000000000000000000000000000000000000000000000815260040160405180910390fd5b6002600581905550565b600073ffffffffffffffffffffffffffffffffffffffff168473ffffffffffffffffffffffffffffffffffffffff1603611c825760006040517f57f447ce000000000000000000000000000000000000000000000000000000008152600401611c7991906134c3565b60405180910390fd5b600080611c8f85856121eb565b91509150611ca1600087848487612139565b505050505050565b6001600581905550565b611cbb611aca565b73ffffffffffffffffffffffffffffffffffffffff16611cd961159e565b73ffffffffffffffffffffffffffffffffffffffff1614611d3857611cfc611aca565b6040517f118cdaa7000000000000000000000000000000000000000000000000000000008152600401611d2f91906134c3565b60405180910390fd5b565b600060208202602084010151905092915050565b600060208202602084010151905092915050565b600073ffffffffffffffffffffffffffffffffffffffff168373ffffffffffffffffffffffffffffffffffffffff1603611dd45760006040517f01a83514000000000000000000000000000000000000000000000000000000008152600401611dcb91906134c3565b60405180910390fd5b611df1836000848460405180602001604052806000815250612139565b505050565b611e1333826001811115611e0d57611e0c612afa565b5b84612092565b5050565b600073ffffffffffffffffffffffffffffffffffffffff168273ffffffffffffffffffffffffffffffffffffffff1603611e895760006040517fced3e100000000000000000000000000000000000000000000000000000000008152600401611e8091906134c3565b60405180910390fd5b80600160008573ffffffffffffffffffffffffffffffffffffffff1673ffffffffffffffffffffffffffffffffffffffff16815260200190815260200160002060008473ffffffffffffffffffffffffffffffffffffffff1673ffffffffffffffffffffffffffffffffffffffff16815260200190815260200160002060006101000a81548160ff0219169083151502179055508173ffffffffffffffffffffffffffffffffffffffff168373ffffffffffffffffffffffffffffffffffffffff167f17307eab39ab6107e8899845ad3d59bd9653f200f220920489ca2b5937696c3183604051611f7a9190612cdb565b60405180910390a3505050565b600073ffffffffffffffffffffffffffffffffffffffff168473ffffffffffffffffffffffffffffffffffffffff1603611ff95760006040517f57f447ce000000000000000000000000000000000000000000000000000000008152600401611ff091906134c3565b60405180910390fd5b600073ffffffffffffffffffffffffffffffffffffffff168573ffffffffffffffffffffffffffffffffffffffff160361206b5760006040517f01a8351400000000000000000000000000000000000000000000000000000000815260040161206291906134c3565b60405180910390fd5b60008061207885856121eb565b915091506120898787848487612139565b50505050505050565b600073ffffffffffffffffffffffffffffffffffffffff168373ffffffffffffffffffffffffffffffffffffffff16036121045760006040517f01a835140000000000000000000000000000000000000000000000000000000081526004016120fb91906134c3565b60405180910390fd5b60008061211184846121eb565b91509150612132856000848460405180602001604052806000815250612139565b5050505050565b6121458585858561221b565b600073ffffffffffffffffffffffffffffffffffffffff168473ffffffffffffffffffffffffffffffffffffffff16146121e4576000612183611aca565b905060018451036121d35760006121a4600086611d4e90919063ffffffff16565b905060006121bc600086611d4e90919063ffffffff16565b90506121cc83898985858961222d565b50506121e2565b6121e18187878787876123e1565b5b505b5050505050565b60608060405191506001825283602083015260408201905060018152826020820152604081016040529250929050565b61222784848484612595565b50505050565b60008473ffffffffffffffffffffffffffffffffffffffff163b11156123d9578373ffffffffffffffffffffffffffffffffffffffff1663f23a6e6187878686866040518663ffffffff1660e01b815260040161228e959493929190613c09565b6020604051808303816000875af19250505080156122ca57506040513d601f19601f820116820180604052508101906122c79190613c78565b60015b61234e573d80600081146122fa576040519150601f19603f3d011682016040523d82523d6000602084013e6122ff565b606091505b50600081510361234657846040517f57f447ce00000000000000000000000000000000000000000000000000000000815260040161233d91906134c3565b60405180910390fd5b805181602001fd5b63f23a6e6160e01b7bffffffffffffffffffffffffffffffffffffffffffffffffffffffff1916817bffffffffffffffffffffffffffffffffffffffffffffffffffffffff1916146123d757846040517f57f447ce0000000000000000000000000000000000000000000000000000000081526004016123ce91906134c3565b60405180910390fd5b505b505050505050565b60008473ffffffffffffffffffffffffffffffffffffffff163b111561258d578373ffffffffffffffffffffffffffffffffffffffff1663bc197c8187878686866040518663ffffffff1660e01b8152600401612442959493929190613ca5565b6020604051808303816000875af192505050801561247e57506040513d601f19601f8201168201806040525081019061247b9190613c78565b60015b612502573d80600081146124ae576040519150601f19603f3d011682016040523d82523d6000602084013e6124b3565b606091505b5060008151036124fa57846040517f57f447ce0000000000000000000000000000000000000000000000000000000081526004016124f191906134c3565b60405180910390fd5b805181602001fd5b63bc197c8160e01b7bffffffffffffffffffffffffffffffffffffffffffffffffffffffff1916817bffffffffffffffffffffffffffffffffffffffffffffffffffffffff19161461258b57846040517f57f447ce00000000000000000000000000000000000000000000000000000000815260040161258291906134c3565b60405180910390fd5b505b505050505050565b6125a18484848461274c565b600073ffffffffffffffffffffffffffffffffffffffff168473ffffffffffffffffffffffffffffffffffffffff1603612681576000805b83518110156126655760008382815181106125f7576125f6613b08565b5b60200260200101519050806003600087858151811061261957612618613b08565b5b60200260200101518152602001908152602001600020600082825461263e91906138c3565b92505081905550808361265191906138c3565b9250508061265e90613b37565b90506125d9565b50806004600082825461267891906138c3565b92505081905550505b600073ffffffffffffffffffffffffffffffffffffffff168373ffffffffffffffffffffffffffffffffffffffff1603612746576000805b83518110156127335760008382815181106126d7576126d6613b08565b5b6020026020010151905080600360008785815181106126f9576126f8613b08565b5b60200260200101518152602001908152602001600020600082825403925050819055508083019250508061272c90613b37565b90506126b9565b5080600460008282540392505081905550505b50505050565b805182511461279657815181516040517f5b05999100000000000000000000000000000000000000000000000000000000815260040161278d929190613adf565b60405180910390fd5b60006127a0611aca565b905060005b83518110156129b55760006127c38286611d4e90919063ffffffff16565b905060006127da8386611d4e90919063ffffffff16565b9050600073ffffffffffffffffffffffffffffffffffffffff168873ffffffffffffffffffffffffffffffffffffffff161461290757600080600084815260200190815260200160002060008a73ffffffffffffffffffffffffffffffffffffffff1673ffffffffffffffffffffffffffffffffffffffff168152602001908152602001600020549050818110156128af57888183856040517f03dee4c50000000000000000000000000000000000000000000000000000000081526004016128a69493929190613d0d565b60405180910390fd5b81810360008085815260200190815260200160002060008b73ffffffffffffffffffffffffffffffffffffffff1673ffffffffffffffffffffffffffffffffffffffff16815260200190815260200160002081905550505b600073ffffffffffffffffffffffffffffffffffffffff168773ffffffffffffffffffffffffffffffffffffffff16146129a2578060008084815260200190815260200160002060008973ffffffffffffffffffffffffffffffffffffffff1673ffffffffffffffffffffffffffffffffffffffff168152602001908152602001600020600082825461299a91906138c3565b925050819055505b5050806129ae90613b37565b90506127a5565b506001835103612a745760006129d5600085611d4e90919063ffffffff16565b905060006129ed600085611d4e90919063ffffffff16565b90508573ffffffffffffffffffffffffffffffffffffffff168773ffffffffffffffffffffffffffffffffffffffff168473ffffffffffffffffffffffffffffffffffffffff167fc3d58168c5ae7397731d063d5bbf3d657854427343f4c083240f7aacaa2d0f628585604051612a65929190613adf565b60405180910390a45050612af3565b8373ffffffffffffffffffffffffffffffffffffffff168573ffffffffffffffffffffffffffffffffffffffff168273ffffffffffffffffffffffffffffffffffffffff167f4a39dc06d4c0dbc64b70af90fd698a233a518aa5d07e595d983b8c0526c8f7fb8686604051612aea929190613d52565b60405180910390a45b5050505050565b7f4e487b7100000000000000000000000000000000000000000000000000000000600052602160045260246000fd5b6000604051905090565b600080fd5b600080fd5b600073ffffffffffffffffffffffffffffffffffffffff82169050919050565b6000612b6882612b3d565b9050919050565b612b7881612b5d565b8114612b8357600080fd5b50565b600081359050612b9581612b6f565b92915050565b6000819050919050565b612bae81612b9b565b8114612bb957600080fd5b50565b600081359050612bcb81612ba5565b92915050565b60008060408385031215612be857612be7612b33565b5b6000612bf685828601612b86565b9250506020612c0785828601612bbc565b9150509250929050565b612c1a81612b9b565b82525050565b6000602082019050612c356000830184612c11565b92915050565b60007fffffffff0000000000000000000000000000000000000000000000000000000082169050919050565b612c7081612c3b565b8114612c7b57600080fd5b50565b600081359050612c8d81612c67565b92915050565b600060208284031215612ca957612ca8612b33565b5b6000612cb784828501612c7e565b91505092915050565b60008115159050919050565b612cd581612cc0565b82525050565b6000602082019050612cf06000830184612ccc565b92915050565b600060208284031215612d0c57612d0b612b33565b5b6000612d1a84828501612bbc565b91505092915050565b600081519050919050565b600082825260208201905092915050565b60005b83811015612d5d578082015181840152602081019050612d42565b60008484015250505050565b6000601f19601f8301169050919050565b6000612d8582612d23565b612d8f8185612d2e565b9350612d9f818560208601612d3f565b612da881612d69565b840191505092915050565b60006020820190508181036000830152612dcd8184612d7a565b905092915050565b600063ffffffff82169050919050565b612dee81612dd5565b8114612df957600080fd5b50565b600081359050612e0b81612de5565b92915050565b600080600060608486031215612e2a57612e29612b33565b5b6000612e3886828701612bbc565b9350506020612e4986828701612bbc565b9250506040612e5a86828701612dfc565b9150509250925092565b600080fd5b7f4e487b7100000000000000000000000000000000000000000000000000000000600052604160045260246000fd5b612ea182612d69565b810181811067ffffffffffffffff82111715612ec057612ebf612e69565b5b80604052505050565b6000612ed3612b29565b9050612edf8282612e98565b919050565b600067ffffffffffffffff821115612eff57612efe612e69565b5b602082029050602081019050919050565b600080fd5b6000612f28612f2384612ee4565b612ec9565b90508083825260208201905060208402830185811115612f4b57612f4a612f10565b5b835b81811015612f745780612f608882612bbc565b845260208401935050602081019050612f4d565b5050509392505050565b600082601f830112612f9357612f92612e64565b5b8135612fa3848260208601612f15565b91505092915050565b600080fd5b600067ffffffffffffffff821115612fcc57612fcb612e69565b5b612fd582612d69565b9050602081019050919050565b82818337600083830152505050565b6000613004612fff84612fb1565b612ec9565b9050828152602081018484840111156130205761301f612fac565b5b61302b848285612fe2565b509392505050565b600082601f83011261304857613047612e64565b5b8135613058848260208601612ff1565b91505092915050565b600080600080600060a0868803121561307d5761307c612b33565b5b600061308b88828901612b86565b955050602061309c88828901612b86565b945050604086013567ffffffffffffffff8111156130bd576130bc612b38565b5b6130c988828901612f7e565b935050606086013567ffffffffffffffff8111156130ea576130e9612b38565b5b6130f688828901612f7e565b925050608086013567ffffffffffffffff81111561311757613116612b38565b5b61312388828901613033565b9150509295509295909350565b600060ff82169050919050565b61314681613130565b811461315157600080fd5b50565b6000813590506131638161313d565b92915050565b600080600080600060a0868803121561318557613184612b33565b5b600061319388828901612bbc565b95505060206131a488828901612bbc565b94505060406131b588828901613154565b93505060606131c688828901612b86565b92505060806131d788828901612dfc565b9150509295509295909350565b600067ffffffffffffffff8211156131ff576131fe612e69565b5b602082029050602081019050919050565b600061322361321e846131e4565b612ec9565b9050808382526020820190506020840283018581111561324657613245612f10565b5b835b8181101561326f578061325b8882612b86565b845260208401935050602081019050613248565b5050509392505050565b600082601f83011261328e5761328d612e64565b5b813561329e848260208601613210565b91505092915050565b600080604083850312156132be576132bd612b33565b5b600083013567ffffffffffffffff8111156132dc576132db612b38565b5b6132e885828601613279565b925050602083013567ffffffffffffffff81111561330957613308612b38565b5b61331585828601612f7e565b9150509250929050565b600081519050919050565b600082825260208201905092915050565b6000819050602082019050919050565b61335481612b9b565b82525050565b6000613366838361334b565b60208301905092915050565b6000602082019050919050565b600061338a8261331f565b613394818561332a565b935061339f8361333b565b8060005b838110156133d05781516133b7888261335a565b97506133c283613372565b9250506001810190506133a3565b5085935050505092915050565b600060208201905081810360008301526133f7818461337f565b905092915050565b60008060006060848603121561341857613417612b33565b5b600061342686828701612b86565b935050602084013567ffffffffffffffff81111561344757613446612b38565b5b61345386828701612f7e565b925050604084013567ffffffffffffffff81111561347457613473612b38565b5b61348086828701612f7e565b9150509250925092565b61349381612dd5565b82525050565b60006020820190506134ae600083018461348a565b92915050565b6134bd81612b5d565b82525050565b60006020820190506134d860008301846134b4565b92915050565b6134e781612cc0565b81146134f257600080fd5b50565b600081359050613504816134de565b92915050565b6000806040838503121561352157613520612b33565b5b600061352f85828601612b86565b9250506020613540858286016134f5565b9150509250929050565b6000806040838503121561356157613560612b33565b5b600061356f85828601612bbc565b925050602061358085828601612dfc565b9150509250929050565b61359381613130565b82525050565b600481106135aa576135a9612afa565b5b50565b60008190506135bb82613599565b919050565b60006135cb826135ad565b9050919050565b6135db816135c0565b82525050565b6000610180820190506135f7600083018f612c11565b613604602083018e612c11565b613611604083018d612c11565b61361e606083018c612c11565b61362b608083018b612c11565b61363860a083018a612c11565b61364560c0830189612c11565b61365260e083018861358a565b61366061010083018761358a565b61366e61012083018661358a565b61367c6101408301856134b4565b61368a6101608301846135d2565b9d9c50505050505050505050505050565b600281106136ac576136ab612afa565b5b50565b60008190506136bd8261369b565b919050565b60006136cd826136af565b9050919050565b6136dd816136c2565b82525050565b60006020820190506136f860008301846136d4565b92915050565b6000806040838503121561371557613714612b33565b5b600061372385828601612b86565b925050602061373485828601612b86565b9150509250929050565b600080600080600060a0868803121561375a57613759612b33565b5b600061376888828901612b86565b955050602061377988828901612b86565b945050604061378a88828901612bbc565b935050606061379b88828901612bbc565b925050608086013567ffffffffffffffff8111156137bc576137bb612b38565b5b6137c888828901613033565b9150509295509295909350565b6000806000606084860312156137ee576137ed612b33565b5b60006137fc86828701612b86565b935050602061380d86828701612bbc565b925050604061381e86828701612bbc565b9150509250925092565b7f4d7573742073656e6420657468657220746f2062757920746f6b656e732e0000600082015250565b600061385e601e83612d2e565b915061386982613828565b602082019050919050565b6000602082019050818103600083015261388d81613851565b9050919050565b7f4e487b7100000000000000000000000000000000000000000000000000000000600052601160045260246000fd5b60006138ce82612b9b565b91506138d983612b9b565b92508282019050808211156138f1576138f0613894565b5b92915050565b7f4e487b7100000000000000000000000000000000000000000000000000000000600052601260045260246000fd5b600061393182612b9b565b915061393c83612b9b565b92508261394c5761394b6138f7565b5b828204905092915050565b600061396282612b9b565b915061396d83612b9b565b925082820261397b81612b9b565b9150828204841483151761399257613991613894565b5b5092915050565b7f4e487b7100000000000000000000000000000000000000000000000000000000600052602260045260246000fd5b600060028204905060018216806139e057607f821691505b6020821081036139f3576139f2613999565b5b50919050565b6000604082019050613a0e60008301856134b4565b613a1b60208301846134b4565b9392505050565b6000613a2d82613130565b9150613a3883613130565b9250828202613a4681613130565b9150808214613a5857613a57613894565b5b5092915050565b600062ffffff82169050919050565b6000613a7982613a5f565b9150613a8483613a5f565b9250828202613a9281613a5f565b9150808214613aa457613aa3613894565b5b5092915050565b6000613ab682612b9b565b9150613ac183612b9b565b9250828203905081811115613ad957613ad8613894565b5b92915050565b6000604082019050613af46000830185612c11565b613b016020830184612c11565b9392505050565b7f4e487b7100000000000000000000000000000000000000000000000000000000600052603260045260246000fd5b6000613b4282612b9b565b91507fffffffffffffffffffffffffffffffffffffffffffffffffffffffffffffffff8203613b7457613b73613894565b5b600182019050919050565b6000613b8a82613130565b9150613b9583613130565b9250828203905060ff811115613bae57613bad613894565b5b92915050565b600081519050919050565b600082825260208201905092915050565b6000613bdb82613bb4565b613be58185613bbf565b9350613bf5818560208601612d3f565b613bfe81612d69565b840191505092915050565b600060a082019050613c1e60008301886134b4565b613c2b60208301876134b4565b613c386040830186612c11565b613c456060830185612c11565b8181036080830152613c578184613bd0565b90509695505050505050565b600081519050613c7281612c67565b92915050565b600060208284031215613c8e57613c8d612b33565b5b6000613c9c84828501613c63565b91505092915050565b600060a082019050613cba60008301886134b4565b613cc760208301876134b4565b8181036040830152613cd9818661337f565b90508181036060830152613ced818561337f565b90508181036080830152613d018184613bd0565b90509695505050505050565b6000608082019050613d2260008301876134b4565b613d2f6020830186612c11565b613d3c6040830185612c11565b613d496060830184612c11565b95945050505050565b60006040820190508181036000830152613d6c818561337f565b90508181036020830152613d80818461337f565b9050939250505056fea26469706673582212208450b42fc4de47458e309a9c57c2881685cbcec5424e6eaf6bc0aeaa50d9937a64736f6c63430008150033","opcodes":"PUSH1 0x80 PUSH1 0x40 MSTORE PUSH8 0xDE0B6B3A7640000 PUSH1 0xF SSTORE PUSH1 0xF SLOAD PUSH1 0x1 PUSH3 0x21 SWAP2 SWAP1 PUSH3 0xB0 JUMP JUMPDEST PUSH1 0x10 SSTORE CALLVALUE DUP1 ISZERO PUSH3 0x31 JUMPI PUSH1 0x0 DUP1 REVERT JUMPDEST POP PUSH1 0x40 MLOAD DUP1 PUSH1 0x20 ADD PUSH1 0x40 MSTORE DUP1 PUSH1 0x0 DUP2 MSTORE POP PUSH3 0x53 DUP2 PUSH3 0x62 PUSH1 0x20 SHL PUSH1 0x20 SHR JUMP JUMPDEST POP PUSH1 0x1 PUSH1 0x5 DUP2 SWAP1 SSTORE POP PUSH3 0x452 JUMP JUMPDEST DUP1 PUSH1 0x2 SWAP1 DUP2 PUSH3 0x73 SWAP2 SWAP1 PUSH3 0x36B JUMP JUMPDEST POP POP JUMP JUMPDEST PUSH1 0x0 DUP2 SWAP1 POP SWAP2 SWAP1 POP JUMP JUMPDEST PUSH32 0x4E487B7100000000000000000000000000000000000000000000000000000000 PUSH1 0x0 MSTORE PUSH1 0x11 PUSH1 0x4 MSTORE PUSH1 0x24 PUSH1 0x0 REVERT JUMPDEST PUSH1 0x0 PUSH3 0xBD DUP3 PUSH3 0x77 JUMP JUMPDEST SWAP2 POP PUSH3 0xCA DUP4 PUSH3 0x77 JUMP JUMPDEST SWAP3 POP DUP3 DUP3 MUL PUSH3 0xDA DUP2 PUSH3 0x77 JUMP JUMPDEST SWAP2 POP DUP3 DUP3 DIV DUP5 EQ DUP4 ISZERO OR PUSH3 0xF4 JUMPI PUSH3 0xF3 PUSH3 0x81 JUMP JUMPDEST JUMPDEST POP SWAP3 SWAP2 POP POP JUMP JUMPDEST PUSH1 0x0 DUP2 MLOAD SWAP1 POP SWAP2 SWAP1 POP JUMP JUMPDEST PUSH32 0x4E487B7100000000000000000000000000000000000000000000000000000000 PUSH1 0x0 MSTORE PUSH1 0x41 PUSH1 0x4 MSTORE PUSH1 0x24 PUSH1 0x0 REVERT JUMPDEST PUSH32 0x4E487B7100000000000000000000000000000000000000000000000000000000 PUSH1 0x0 MSTORE PUSH1 0x22 PUSH1 0x4 MSTORE PUSH1 0x24 PUSH1 0x0 REVERT JUMPDEST PUSH1 0x0 PUSH1 0x2 DUP3 DIV SWAP1 POP PUSH1 0x1 DUP3 AND DUP1 PUSH3 0x17D JUMPI PUSH1 0x7F DUP3 AND SWAP2 POP JUMPDEST PUSH1 0x20 DUP3 LT DUP2 SUB PUSH3 0x193 JUMPI PUSH3 0x192 PUSH3 0x135 JUMP JUMPDEST JUMPDEST POP SWAP2 SWAP1 POP JUMP JUMPDEST PUSH1 0x0 DUP2 SWAP1 POP DUP2 PUSH1 0x0 MSTORE PUSH1 0x20 PUSH1 0x0 KECCAK256 SWAP1 POP SWAP2 SWAP1 POP JUMP JUMPDEST PUSH1 0x0 PUSH1 0x20 PUSH1 0x1F DUP4 ADD DIV SWAP1 POP SWAP2 SWAP1 POP JUMP JUMPDEST PUSH1 0x0 DUP3 DUP3 SHL SWAP1 POP SWAP3 SWAP2 POP POP JUMP JUMPDEST PUSH1 0x0 PUSH1 0x8 DUP4 MUL PUSH3 0x1FD PUSH32 0xFFFFFFFFFFFFFFFFFFFFFFFFFFFFFFFFFFFFFFFFFFFFFFFFFFFFFFFFFFFFFFFF DUP3 PUSH3 0x1BE JUMP JUMPDEST PUSH3 0x209 DUP7 DUP4 PUSH3 0x1BE JUMP JUMPDEST SWAP6 POP DUP1 NOT DUP5 AND SWAP4 POP DUP1 DUP7 AND DUP5 OR SWAP3 POP POP POP SWAP4 SWAP3 POP POP POP JUMP JUMPDEST PUSH1 0x0 DUP2 SWAP1 POP SWAP2 SWAP1 POP JUMP JUMPDEST PUSH1 0x0 PUSH3 0x24C PUSH3 0x246 PUSH3 0x240 DUP5 PUSH3 0x77 JUMP JUMPDEST PUSH3 0x221 JUMP JUMPDEST PUSH3 0x77 JUMP JUMPDEST SWAP1 POP SWAP2 SWAP1 POP JUMP JUMPDEST PUSH1 0x0 DUP2 SWAP1 POP SWAP2 SWAP1 POP JUMP JUMPDEST PUSH3 0x268 DUP4 PUSH3 0x22B JUMP JUMPDEST PUSH3 0x280 PUSH3 0x277 DUP3 PUSH3 0x253 JUMP JUMPDEST DUP5 DUP5 SLOAD PUSH3 0x1CB JUMP JUMPDEST DUP3 SSTORE POP POP POP POP JUMP JUMPDEST PUSH1 0x0 SWAP1 JUMP JUMPDEST PUSH3 0x297 PUSH3 0x288 JUMP JUMPDEST PUSH3 0x2A4 DUP2 DUP5 DUP5 PUSH3 0x25D JUMP JUMPDEST POP POP POP JUMP JUMPDEST JUMPDEST DUP2 DUP2 LT ISZERO PUSH3 0x2CC JUMPI PUSH3 0x2C0 PUSH1 0x0 DUP3 PUSH3 0x28D JUMP JUMPDEST PUSH1 0x1 DUP2 ADD SWAP1 POP PUSH3 0x2AA JUMP JUMPDEST POP POP JUMP JUMPDEST PUSH1 0x1F DUP3 GT ISZERO PUSH3 0x31B JUMPI PUSH3 0x2E5 DUP2 PUSH3 0x199 JUMP JUMPDEST PUSH3 0x2F0 DUP5 PUSH3 0x1AE JUMP JUMPDEST DUP2 ADD PUSH1 0x20 DUP6 LT ISZERO PUSH3 0x300 JUMPI DUP2 SWAP1 POP JUMPDEST PUSH3 0x318 PUSH3 0x30F DUP6 PUSH3 0x1AE JUMP JUMPDEST DUP4 ADD DUP3 PUSH3 0x2A9 JUMP JUMPDEST POP POP JUMPDEST POP POP POP JUMP JUMPDEST PUSH1 0x0 DUP3 DUP3 SHR SWAP1 POP SWAP3 SWAP2 POP POP JUMP JUMPDEST PUSH1 0x0 PUSH3 0x340 PUSH1 0x0 NOT DUP5 PUSH1 0x8 MUL PUSH3 0x320 JUMP JUMPDEST NOT DUP1 DUP4 AND SWAP2 POP POP SWAP3 SWAP2 POP POP JUMP JUMPDEST PUSH1 0x0 PUSH3 0x35B DUP4 DUP4 PUSH3 0x32D JUMP JUMPDEST SWAP2 POP DUP3 PUSH1 0x2 MUL DUP3 OR SWAP1 POP SWAP3 SWAP2 POP POP JUMP JUMPDEST PUSH3 0x376 DUP3 PUSH3 0xFB JUMP JUMPDEST PUSH8 0xFFFFFFFFFFFFFFFF DUP2 GT ISZERO PUSH3 0x392 JUMPI PUSH3 0x391 PUSH3 0x106 JUMP JUMPDEST JUMPDEST PUSH3 0x39E DUP3 SLOAD PUSH3 0x164 JUMP JUMPDEST PUSH3 0x3AB DUP3 DUP3 DUP6 PUSH3 0x2D0 JUMP JUMPDEST PUSH1 0x0 PUSH1 0x20 SWAP1 POP PUSH1 0x1F DUP4 GT PUSH1 0x1 DUP2 EQ PUSH3 0x3E3 JUMPI PUSH1 0x0 DUP5 ISZERO PUSH3 0x3CE JUMPI DUP3 DUP8 ADD MLOAD SWAP1 POP JUMPDEST PUSH3 0x3DA DUP6 DUP3 PUSH3 0x34D JUMP JUMPDEST DUP7 SSTORE POP PUSH3 0x44A JUMP JUMPDEST PUSH1 0x1F NOT DUP5 AND PUSH3 0x3F3 DUP7 PUSH3 0x199 JUMP JUMPDEST PUSH1 0x0 JUMPDEST DUP3 DUP2 LT ISZERO PUSH3 0x41D JUMPI DUP5 DUP10 ADD MLOAD DUP3 SSTORE PUSH1 0x1 DUP3 ADD SWAP2 POP PUSH1 0x20 DUP6 ADD SWAP5 POP PUSH1 0x20 DUP2 ADD SWAP1 POP PUSH3 0x3F6 JUMP JUMPDEST DUP7 DUP4 LT ISZERO PUSH3 0x43D JUMPI DUP5 DUP10 ADD MLOAD PUSH3 0x439 PUSH1 0x1F DUP10 AND DUP3 PUSH3 0x32D JUMP JUMPDEST DUP4 SSTORE POP JUMPDEST PUSH1 0x1 PUSH1 0x2 DUP9 MUL ADD DUP9 SSTORE POP POP POP JUMPDEST POP POP POP POP POP POP JUMP JUMPDEST PUSH2 0x3DBF DUP1 PUSH3 0x462 PUSH1 0x0 CODECOPY PUSH1 0x0 RETURN INVALID PUSH1 0x80 PUSH1 0x40 MSTORE PUSH1 0x4 CALLDATASIZE LT PUSH2 0x1F0 JUMPI PUSH1 0x0 CALLDATALOAD PUSH1 0xE0 SHR DUP1 PUSH4 0x7AB6D638 GT PUSH2 0x10D JUMPI DUP1 PUSH4 0xC4139441 GT PUSH2 0xA0 JUMPI DUP1 PUSH4 0xE985E9C5 GT PUSH2 0x6F JUMPI DUP1 PUSH4 0xE985E9C5 EQ PUSH2 0x6D4 JUMPI DUP1 PUSH4 0xEB6266E2 EQ PUSH2 0x711 JUMPI DUP1 PUSH4 0xF242432A EQ PUSH2 0x71B JUMPI DUP1 PUSH4 0xF51E181A EQ PUSH2 0x744 JUMPI DUP1 PUSH4 0xF5298ACA EQ PUSH2 0x76F JUMPI PUSH2 0x231 JUMP JUMPDEST DUP1 PUSH4 0xC4139441 EQ PUSH2 0x5F9 JUMPI DUP1 PUSH4 0xCBCED760 EQ PUSH2 0x636 JUMPI DUP1 PUSH4 0xDFBF53AE EQ PUSH2 0x66C JUMPI DUP1 PUSH4 0xE37B7A7A EQ PUSH2 0x697 JUMPI PUSH2 0x231 JUMP JUMPDEST DUP1 PUSH4 0x96365D44 GT PUSH2 0xDC JUMPI DUP1 PUSH4 0x96365D44 EQ PUSH2 0x53D JUMPI DUP1 PUSH4 0xA22CB465 EQ PUSH2 0x568 JUMPI DUP1 PUSH4 0xB2BDFA7B EQ PUSH2 0x591 JUMPI DUP1 PUSH4 0xBD85B039 EQ PUSH2 0x5BC JUMPI PUSH2 0x231 JUMP JUMPDEST DUP1 PUSH4 0x7AB6D638 EQ PUSH2 0x4D3 JUMPI DUP1 PUSH4 0x83CAF275 EQ PUSH2 0x4DD JUMPI DUP1 PUSH4 0x881FA170 EQ PUSH2 0x508 JUMPI DUP1 PUSH4 0x8DA5CB5B EQ PUSH2 0x512 JUMPI PUSH2 0x231 JUMP JUMPDEST DUP1 PUSH4 0x2EB2C2D6 GT PUSH2 0x185 JUMPI DUP1 PUSH4 0x4E1273F4 GT PUSH2 0x154 JUMPI DUP1 PUSH4 0x4E1273F4 EQ PUSH2 0x426 JUMPI DUP1 PUSH4 0x4F558E79 EQ PUSH2 0x463 JUMPI DUP1 PUSH4 0x6B20C454 EQ PUSH2 0x4A0 JUMPI DUP1 PUSH4 0x74F7EF4B EQ PUSH2 0x4C9 JUMPI PUSH2 0x231 JUMP JUMPDEST DUP1 PUSH4 0x2EB2C2D6 EQ PUSH2 0x3A6 JUMPI DUP1 PUSH4 0x3073D0CF EQ PUSH2 0x3CF JUMPI DUP1 PUSH4 0x3A31F9DA EQ PUSH2 0x3E6 JUMPI DUP1 PUSH4 0x3CCFD60B EQ PUSH2 0x40F JUMPI PUSH2 0x231 JUMP JUMPDEST DUP1 PUSH4 0x8801C20 GT PUSH2 0x1C1 JUMPI DUP1 PUSH4 0x8801C20 EQ PUSH2 0x2F7 JUMPI DUP1 PUSH4 0xE89341C EQ PUSH2 0x301 JUMPI DUP1 PUSH4 0x18160DDD EQ PUSH2 0x33E JUMPI DUP1 PUSH4 0x24AE021C EQ PUSH2 0x369 JUMPI PUSH2 0x231 JUMP JUMPDEST DUP1 PUSH3 0x198DA EQ PUSH2 0x236 JUMPI DUP1 PUSH3 0xFDD58E EQ PUSH2 0x240 JUMPI DUP1 PUSH4 0x1FFC9A7 EQ PUSH2 0x27D JUMPI DUP1 PUSH4 0x42C19E7 EQ PUSH2 0x2BA JUMPI PUSH2 0x231 JUMP JUMPDEST CALLDATASIZE PUSH2 0x231 JUMPI PUSH1 0x7 PUSH1 0x1 ADD SLOAD SELFBALANCE LT PUSH2 0x22F JUMPI PUSH1 0x1 PUSH1 0x7 DUP1 ADD PUSH1 0x17 PUSH2 0x100 EXP DUP2 SLOAD DUP2 PUSH1 0xFF MUL NOT AND SWAP1 DUP4 PUSH1 0x3 DUP2 GT ISZERO PUSH2 0x229 JUMPI PUSH2 0x228 PUSH2 0x2AFA JUMP JUMPDEST JUMPDEST MUL OR SWAP1 SSTORE POP JUMPDEST STOP JUMPDEST PUSH1 0x0 DUP1 REVERT JUMPDEST PUSH2 0x23E PUSH2 0x798 JUMP JUMPDEST STOP JUMPDEST CALLVALUE DUP1 ISZERO PUSH2 0x24C JUMPI PUSH1 0x0 DUP1 REVERT JUMPDEST POP PUSH2 0x267 PUSH1 0x4 DUP1 CALLDATASIZE SUB DUP2 ADD SWAP1 PUSH2 0x262 SWAP2 SWAP1 PUSH2 0x2BD1 JUMP JUMPDEST PUSH2 0x8AF JUMP JUMPDEST PUSH1 0x40 MLOAD PUSH2 0x274 SWAP2 SWAP1 PUSH2 0x2C20 JUMP JUMPDEST PUSH1 0x40 MLOAD DUP1 SWAP2 SUB SWAP1 RETURN JUMPDEST CALLVALUE DUP1 ISZERO PUSH2 0x289 JUMPI PUSH1 0x0 DUP1 REVERT JUMPDEST POP PUSH2 0x2A4 PUSH1 0x4 DUP1 CALLDATASIZE SUB DUP2 ADD SWAP1 PUSH2 0x29F SWAP2 SWAP1 PUSH2 0x2C93 JUMP JUMPDEST PUSH2 0x909 JUMP JUMPDEST PUSH1 0x40 MLOAD PUSH2 0x2B1 SWAP2 SWAP1 PUSH2 0x2CDB JUMP JUMPDEST PUSH1 0x40 MLOAD DUP1 SWAP2 SUB SWAP1 RETURN JUMPDEST CALLVALUE DUP1 ISZERO PUSH2 0x2C6 JUMPI PUSH1 0x0 DUP1 REVERT JUMPDEST POP PUSH2 0x2E1 PUSH1 0x4 DUP1 CALLDATASIZE SUB DUP2 ADD SWAP1 PUSH2 0x2DC SWAP2 SWAP1 PUSH2 0x2CF6 JUMP JUMPDEST PUSH2 0x9EB JUMP JUMPDEST PUSH1 0x40 MLOAD PUSH2 0x2EE SWAP2 SWAP1 PUSH2 0x2C20 JUMP JUMPDEST PUSH1 0x40 MLOAD DUP1 SWAP2 SUB SWAP1 RETURN JUMPDEST PUSH2 0x2FF PUSH2 0xA2B JUMP JUMPDEST STOP JUMPDEST CALLVALUE DUP1 ISZERO PUSH2 0x30D JUMPI PUSH1 0x0 DUP1 REVERT JUMPDEST POP PUSH2 0x328 PUSH1 0x4 DUP1 CALLDATASIZE SUB DUP2 ADD SWAP1 PUSH2 0x323 SWAP2 SWAP1 PUSH2 0x2CF6 JUMP JUMPDEST PUSH2 0xC1D JUMP JUMPDEST PUSH1 0x40 MLOAD PUSH2 0x335 SWAP2 SWAP1 PUSH2 0x2DB3 JUMP JUMPDEST PUSH1 0x40 MLOAD DUP1 SWAP2 SUB SWAP1 RETURN JUMPDEST CALLVALUE DUP1 ISZERO PUSH2 0x34A JUMPI PUSH1 0x0 DUP1 REVERT JUMPDEST POP PUSH2 0x353 PUSH2 0xCB1 JUMP JUMPDEST PUSH1 0x40 MLOAD PUSH2 0x360 SWAP2 SWAP1 PUSH2 0x2C20 JUMP JUMPDEST PUSH1 0x40 MLOAD DUP1 SWAP2 SUB SWAP1 RETURN JUMPDEST CALLVALUE DUP1 ISZERO PUSH2 0x375 JUMPI PUSH1 0x0 DUP1 REVERT JUMPDEST POP PUSH2 0x390 PUSH1 0x4 DUP1 CALLDATASIZE SUB DUP2 ADD SWAP1 PUSH2 0x38B SWAP2 SWAP1 PUSH2 0x2E11 JUMP JUMPDEST PUSH2 0xCBB JUMP JUMPDEST PUSH1 0x40 MLOAD PUSH2 0x39D SWAP2 SWAP1 PUSH2 0x2C20 JUMP JUMPDEST PUSH1 0x40 MLOAD DUP1 SWAP2 SUB SWAP1 RETURN JUMPDEST CALLVALUE DUP1 ISZERO PUSH2 0x3B2 JUMPI PUSH1 0x0 DUP1 REVERT JUMPDEST POP PUSH2 0x3CD PUSH1 0x4 DUP1 CALLDATASIZE SUB DUP2 ADD SWAP1 PUSH2 0x3C8 SWAP2 SWAP1 PUSH2 0x3061 JUMP JUMPDEST PUSH2 0xCE0 JUMP JUMPDEST STOP JUMPDEST CALLVALUE DUP1 ISZERO PUSH2 0x3DB JUMPI PUSH1 0x0 DUP1 REVERT JUMPDEST POP PUSH2 0x3E4 PUSH2 0xD88 JUMP JUMPDEST STOP JUMPDEST CALLVALUE DUP1 ISZERO PUSH2 0x3F2 JUMPI PUSH1 0x0 DUP1 REVERT JUMPDEST POP PUSH2 0x40D PUSH1 0x4 DUP1 CALLDATASIZE SUB DUP2 ADD SWAP1 PUSH2 0x408 SWAP2 SWAP1 PUSH2 0x3169 JUMP JUMPDEST PUSH2 0xE8D JUMP JUMPDEST STOP JUMPDEST CALLVALUE DUP1 ISZERO PUSH2 0x41B JUMPI PUSH1 0x0 DUP1 REVERT JUMPDEST POP PUSH2 0x424 PUSH2 0x103F JUMP JUMPDEST STOP JUMPDEST CALLVALUE DUP1 ISZERO PUSH2 0x432 JUMPI PUSH1 0x0 DUP1 REVERT JUMPDEST POP PUSH2 0x44D PUSH1 0x4 DUP1 CALLDATASIZE SUB DUP2 ADD SWAP1 PUSH2 0x448 SWAP2 SWAP1 PUSH2 0x32A7 JUMP JUMPDEST PUSH2 0x1126 JUMP JUMPDEST PUSH1 0x40 MLOAD PUSH2 0x45A SWAP2 SWAP1 PUSH2 0x33DD JUMP JUMPDEST PUSH1 0x40 MLOAD DUP1 SWAP2 SUB SWAP1 RETURN JUMPDEST CALLVALUE DUP1 ISZERO PUSH2 0x46F JUMPI PUSH1 0x0 DUP1 REVERT JUMPDEST POP PUSH2 0x48A PUSH1 0x4 DUP1 CALLDATASIZE SUB DUP2 ADD SWAP1 PUSH2 0x485 SWAP2 SWAP1 PUSH2 0x2CF6 JUMP JUMPDEST PUSH2 0x1235 JUMP JUMPDEST PUSH1 0x40 MLOAD PUSH2 0x497 SWAP2 SWAP1 PUSH2 0x2CDB JUMP JUMPDEST PUSH1 0x40 MLOAD DUP1 SWAP2 SUB SWAP1 RETURN JUMPDEST CALLVALUE DUP1 ISZERO PUSH2 0x4AC JUMPI PUSH1 0x0 DUP1 REVERT JUMPDEST POP PUSH2 0x4C7 PUSH1 0x4 DUP1 CALLDATASIZE SUB DUP2 ADD SWAP1 PUSH2 0x4C2 SWAP2 SWAP1 PUSH2 0x33FF JUMP JUMPDEST PUSH2 0x1249 JUMP JUMPDEST STOP JUMPDEST PUSH2 0x4D1 PUSH2 0x12F5 JUMP JUMPDEST STOP JUMPDEST PUSH2 0x4DB PUSH2 0x13AD JUMP JUMPDEST STOP JUMPDEST CALLVALUE DUP1 ISZERO PUSH2 0x4E9 JUMPI PUSH1 0x0 DUP1 REVERT JUMPDEST POP PUSH2 0x4F2 PUSH2 0x14CF JUMP JUMPDEST PUSH1 0x40 MLOAD PUSH2 0x4FF SWAP2 SWAP1 PUSH2 0x3499 JUMP JUMPDEST PUSH1 0x40 MLOAD DUP1 SWAP2 SUB SWAP1 RETURN JUMPDEST PUSH2 0x510 PUSH2 0x14E5 JUMP JUMPDEST STOP JUMPDEST CALLVALUE DUP1 ISZERO PUSH2 0x51E JUMPI PUSH1 0x0 DUP1 REVERT JUMPDEST POP PUSH2 0x527 PUSH2 0x159E JUMP JUMPDEST PUSH1 0x40 MLOAD PUSH2 0x534 SWAP2 SWAP1 PUSH2 0x34C3 JUMP JUMPDEST PUSH1 0x40 MLOAD DUP1 SWAP2 SUB SWAP1 RETURN JUMPDEST CALLVALUE DUP1 ISZERO PUSH2 0x549 JUMPI PUSH1 0x0 DUP1 REVERT JUMPDEST POP PUSH2 0x552 PUSH2 0x15C8 JUMP JUMPDEST PUSH1 0x40 MLOAD PUSH2 0x55F SWAP2 SWAP1 PUSH2 0x2C20 JUMP JUMPDEST PUSH1 0x40 MLOAD DUP1 SWAP2 SUB SWAP1 RETURN JUMPDEST CALLVALUE DUP1 ISZERO PUSH2 0x574 JUMPI PUSH1 0x0 DUP1 REVERT JUMPDEST POP PUSH2 0x58F PUSH1 0x4 DUP1 CALLDATASIZE SUB DUP2 ADD SWAP1 PUSH2 0x58A SWAP2 SWAP1 PUSH2 0x350A JUMP JUMPDEST PUSH2 0x15CE JUMP JUMPDEST STOP JUMPDEST CALLVALUE DUP1 ISZERO PUSH2 0x59D JUMPI PUSH1 0x0 DUP1 REVERT JUMPDEST POP PUSH2 0x5A6 PUSH2 0x15E4 JUMP JUMPDEST PUSH1 0x40 MLOAD PUSH2 0x5B3 SWAP2 SWAP1 PUSH2 0x34C3 JUMP JUMPDEST PUSH1 0x40 MLOAD DUP1 SWAP2 SUB SWAP1 RETURN JUMPDEST CALLVALUE DUP1 ISZERO PUSH2 0x5C8 JUMPI PUSH1 0x0 DUP1 REVERT JUMPDEST POP PUSH2 0x5E3 PUSH1 0x4 DUP1 CALLDATASIZE SUB DUP2 ADD SWAP1 PUSH2 0x5DE SWAP2 SWAP1 PUSH2 0x2CF6 JUMP JUMPDEST PUSH2 0x160A JUMP JUMPDEST PUSH1 0x40 MLOAD PUSH2 0x5F0 SWAP2 SWAP1 PUSH2 0x2C20 JUMP JUMPDEST PUSH1 0x40 MLOAD DUP1 SWAP2 SUB SWAP1 RETURN JUMPDEST CALLVALUE DUP1 ISZERO PUSH2 0x605 JUMPI PUSH1 0x0 DUP1 REVERT JUMPDEST POP PUSH2 0x620 PUSH1 0x4 DUP1 CALLDATASIZE SUB DUP2 ADD SWAP1 PUSH2 0x61B SWAP2 SWAP1 PUSH2 0x354A JUMP JUMPDEST PUSH2 0x1627 JUMP JUMPDEST PUSH1 0x40 MLOAD PUSH2 0x62D SWAP2 SWAP1 PUSH2 0x2C20 JUMP JUMPDEST PUSH1 0x40 MLOAD DUP1 SWAP2 SUB SWAP1 RETURN JUMPDEST CALLVALUE DUP1 ISZERO PUSH2 0x642 JUMPI PUSH1 0x0 DUP1 REVERT JUMPDEST POP PUSH2 0x64B PUSH2 0x1643 JUMP JUMPDEST PUSH1 0x40 MLOAD PUSH2 0x663 SWAP13 SWAP12 SWAP11 SWAP10 SWAP9 SWAP8 SWAP7 SWAP6 SWAP5 SWAP4 SWAP3 SWAP2 SWAP1 PUSH2 0x35E1 JUMP JUMPDEST PUSH1 0x40 MLOAD DUP1 SWAP2 SUB SWAP1 RETURN JUMPDEST CALLVALUE DUP1 ISZERO PUSH2 0x678 JUMPI PUSH1 0x0 DUP1 REVERT JUMPDEST POP PUSH2 0x681 PUSH2 0x16E5 JUMP JUMPDEST PUSH1 0x40 MLOAD PUSH2 0x68E SWAP2 SWAP1 PUSH2 0x36E3 JUMP JUMPDEST PUSH1 0x40 MLOAD DUP1 SWAP2 SUB SWAP1 RETURN JUMPDEST CALLVALUE DUP1 ISZERO PUSH2 0x6A3 JUMPI PUSH1 0x0 DUP1 REVERT JUMPDEST POP PUSH2 0x6BE PUSH1 0x4 DUP1 CALLDATASIZE SUB DUP2 ADD SWAP1 PUSH2 0x6B9 SWAP2 SWAP1 PUSH2 0x2CF6 JUMP JUMPDEST PUSH2 0x16F8 JUMP JUMPDEST PUSH1 0x40 MLOAD PUSH2 0x6CB SWAP2 SWAP1 PUSH2 0x2C20 JUMP JUMPDEST PUSH1 0x40 MLOAD DUP1 SWAP2 SUB SWAP1 RETURN JUMPDEST CALLVALUE DUP1 ISZERO PUSH2 0x6E0 JUMPI PUSH1 0x0 DUP1 REVERT JUMPDEST POP PUSH2 0x6FB PUSH1 0x4 DUP1 CALLDATASIZE SUB DUP2 ADD SWAP1 PUSH2 0x6F6 SWAP2 SWAP1 PUSH2 0x36FE JUMP JUMPDEST PUSH2 0x1738 JUMP JUMPDEST PUSH1 0x40 MLOAD PUSH2 0x708 SWAP2 SWAP1 PUSH2 0x2CDB JUMP JUMPDEST PUSH1 0x40 MLOAD DUP1 SWAP2 SUB SWAP1 RETURN JUMPDEST PUSH2 0x719 PUSH2 0x17CC JUMP JUMPDEST STOP JUMPDEST CALLVALUE DUP1 ISZERO PUSH2 0x727 JUMPI PUSH1 0x0 DUP1 REVERT JUMPDEST POP PUSH2 0x742 PUSH1 0x4 DUP1 CALLDATASIZE SUB DUP2 ADD SWAP1 PUSH2 0x73D SWAP2 SWAP1 PUSH2 0x373E JUMP JUMPDEST PUSH2 0x18D5 JUMP JUMPDEST STOP JUMPDEST CALLVALUE DUP1 ISZERO PUSH2 0x750 JUMPI PUSH1 0x0 DUP1 REVERT JUMPDEST POP PUSH2 0x759 PUSH2 0x197D JUMP JUMPDEST PUSH1 0x40 MLOAD PUSH2 0x766 SWAP2 SWAP1 PUSH2 0x2C20 JUMP JUMPDEST PUSH1 0x40 MLOAD DUP1 SWAP2 SUB SWAP1 RETURN JUMPDEST CALLVALUE DUP1 ISZERO PUSH2 0x77B JUMPI PUSH1 0x0 DUP1 REVERT JUMPDEST POP PUSH2 0x796 PUSH1 0x4 DUP1 CALLDATASIZE SUB DUP2 ADD SWAP1 PUSH2 0x791 SWAP2 SWAP1 PUSH2 0x37D5 JUMP JUMPDEST PUSH2 0x1983 JUMP JUMPDEST STOP JUMPDEST PUSH1 0x1 PUSH1 0x3 DUP2 GT ISZERO PUSH2 0x7AC JUMPI PUSH2 0x7AB PUSH2 0x2AFA JUMP JUMPDEST JUMPDEST PUSH1 0x7 DUP1 ADD PUSH1 0x17 SWAP1 SLOAD SWAP1 PUSH2 0x100 EXP SWAP1 DIV PUSH1 0xFF AND PUSH1 0x3 DUP2 GT ISZERO PUSH2 0x7D0 JUMPI PUSH2 0x7CF PUSH2 0x2AFA JUMP JUMPDEST JUMPDEST EQ PUSH2 0x807 JUMPI PUSH1 0x40 MLOAD PUSH32 0xD5EF09BA00000000000000000000000000000000000000000000000000000000 DUP2 MSTORE PUSH1 0x4 ADD PUSH1 0x40 MLOAD DUP1 SWAP2 SUB SWAP1 REVERT JUMPDEST PUSH1 0x0 CALLVALUE GT PUSH2 0x84A JUMPI PUSH1 0x40 MLOAD PUSH32 0x8C379A000000000000000000000000000000000000000000000000000000000 DUP2 MSTORE PUSH1 0x4 ADD PUSH2 0x841 SWAP1 PUSH2 0x3874 JUMP JUMPDEST PUSH1 0x40 MLOAD DUP1 SWAP2 SUB SWAP1 REVERT JUMPDEST PUSH1 0x0 PUSH2 0x883 PUSH2 0x86A PUSH1 0x1 DUP1 DUP2 GT ISZERO PUSH2 0x865 JUMPI PUSH2 0x864 PUSH2 0x2AFA JUMP JUMPDEST JUMPDEST PUSH2 0x160A JUMP JUMPDEST CALLVALUE PUSH1 0x11 PUSH1 0x0 SWAP1 SLOAD SWAP1 PUSH2 0x100 EXP SWAP1 DIV PUSH4 0xFFFFFFFF AND PUSH2 0xCBB JUMP JUMPDEST SWAP1 POP CALLVALUE PUSH1 0x7 PUSH1 0x3 ADD PUSH1 0x0 DUP3 DUP3 SLOAD PUSH2 0x89A SWAP2 SWAP1 PUSH2 0x38C3 JUMP JUMPDEST SWAP3 POP POP DUP2 SWAP1 SSTORE POP PUSH2 0x8AC DUP2 PUSH1 0x1 PUSH2 0x1A2F JUMP JUMPDEST POP JUMP JUMPDEST PUSH1 0x0 DUP1 PUSH1 0x0 DUP4 DUP2 MSTORE PUSH1 0x20 ADD SWAP1 DUP2 MSTORE PUSH1 0x20 ADD PUSH1 0x0 KECCAK256 PUSH1 0x0 DUP5 PUSH20 0xFFFFFFFFFFFFFFFFFFFFFFFFFFFFFFFFFFFFFFFF AND PUSH20 0xFFFFFFFFFFFFFFFFFFFFFFFFFFFFFFFFFFFFFFFF AND DUP2 MSTORE PUSH1 0x20 ADD SWAP1 DUP2 MSTORE PUSH1 0x20 ADD PUSH1 0x0 KECCAK256 SLOAD SWAP1 POP SWAP3 SWAP2 POP POP JUMP JUMPDEST PUSH1 0x0 PUSH32 0xD9B67A2600000000000000000000000000000000000000000000000000000000 PUSH28 0xFFFFFFFFFFFFFFFFFFFFFFFFFFFFFFFFFFFFFFFFFFFFFFFFFFFFFFFF NOT AND DUP3 PUSH28 0xFFFFFFFFFFFFFFFFFFFFFFFFFFFFFFFFFFFFFFFFFFFFFFFFFFFFFFFF NOT AND EQ DUP1 PUSH2 0x9D4 JUMPI POP PUSH32 0xE89341C00000000000000000000000000000000000000000000000000000000 PUSH28 0xFFFFFFFFFFFFFFFFFFFFFFFFFFFFFFFFFFFFFFFFFFFFFFFFFFFFFFFF NOT AND DUP3 PUSH28 0xFFFFFFFFFFFFFFFFFFFFFFFFFFFFFFFFFFFFFFFFFFFFFFFFFFFFFFFF NOT AND EQ JUMPDEST DUP1 PUSH2 0x9E4 JUMPI POP PUSH2 0x9E3 DUP3 PUSH2 0x1A60 JUMP JUMPDEST JUMPDEST SWAP1 POP SWAP2 SWAP1 POP JUMP JUMPDEST PUSH1 0x0 PUSH2 0xA24 PUSH2 0xA0B PUSH1 0x1 DUP1 DUP2 GT ISZERO PUSH2 0xA06 JUMPI PUSH2 0xA05 PUSH2 0x2AFA JUMP JUMPDEST JUMPDEST PUSH2 0x160A JUMP JUMPDEST DUP4 PUSH1 0x11 PUSH1 0x0 SWAP1 SLOAD SWAP1 PUSH2 0x100 EXP SWAP1 DIV PUSH4 0xFFFFFFFF AND PUSH2 0xCBB JUMP JUMPDEST SWAP1 POP SWAP2 SWAP1 POP JUMP JUMPDEST PUSH1 0x1 PUSH1 0x3 DUP2 GT ISZERO PUSH2 0xA3F JUMPI PUSH2 0xA3E PUSH2 0x2AFA JUMP JUMPDEST JUMPDEST PUSH1 0x7 DUP1 ADD PUSH1 0x17 SWAP1 SLOAD SWAP1 PUSH2 0x100 EXP SWAP1 DIV PUSH1 0xFF AND PUSH1 0x3 DUP2 GT ISZERO PUSH2 0xA63 JUMPI PUSH2 0xA62 PUSH2 0x2AFA JUMP JUMPDEST JUMPDEST EQ PUSH2 0xA9A JUMPI PUSH1 0x40 MLOAD PUSH32 0xD5EF09BA00000000000000000000000000000000000000000000000000000000 DUP2 MSTORE PUSH1 0x4 ADD PUSH1 0x40 MLOAD DUP1 SWAP2 SUB SWAP1 REVERT JUMPDEST PUSH1 0x0 CALLVALUE GT PUSH2 0xADD JUMPI PUSH1 0x40 MLOAD PUSH32 0x8C379A000000000000000000000000000000000000000000000000000000000 DUP2 MSTORE PUSH1 0x4 ADD PUSH2 0xAD4 SWAP1 PUSH2 0x3874 JUMP JUMPDEST PUSH1 0x40 MLOAD DUP1 SWAP2 SUB SWAP1 REVERT JUMPDEST CALLVALUE PUSH1 0x7 PUSH1 0x2 ADD PUSH1 0x0 DUP3 DUP3 SLOAD PUSH2 0xAF2 SWAP2 SWAP1 PUSH2 0x38C3 JUMP JUMPDEST SWAP3 POP POP DUP2 SWAP1 SSTORE POP PUSH1 0x7 PUSH1 0x0 ADD SLOAD PUSH1 0x7 PUSH1 0x2 ADD SLOAD LT PUSH2 0xBD3 JUMPI PUSH1 0x2 PUSH1 0x7 DUP1 ADD PUSH1 0x17 PUSH2 0x100 EXP DUP2 SLOAD DUP2 PUSH1 0xFF MUL NOT AND SWAP1 DUP4 PUSH1 0x3 DUP2 GT ISZERO PUSH2 0xB32 JUMPI PUSH2 0xB31 PUSH2 0x2AFA JUMP JUMPDEST JUMPDEST MUL OR SWAP1 SSTORE POP PUSH1 0x7 PUSH1 0x3 ADD SLOAD PUSH1 0x7 PUSH1 0x2 ADD SLOAD PUSH2 0xB4D SWAP2 SWAP1 PUSH2 0x3926 JUMP JUMPDEST PUSH1 0x7 DUP1 ADD PUSH1 0x1 PUSH2 0x100 EXP DUP2 SLOAD DUP2 PUSH1 0xFF MUL NOT AND SWAP1 DUP4 PUSH1 0xFF AND MUL OR SWAP1 SSTORE POP PUSH1 0x7 DUP1 ADD PUSH1 0x2 SWAP1 SLOAD SWAP1 PUSH2 0x100 EXP SWAP1 DIV PUSH1 0xFF AND PUSH1 0xFF AND PUSH1 0x64 PUSH1 0x7 DUP1 ADD PUSH1 0x1 SWAP1 SLOAD SWAP1 PUSH2 0x100 EXP SWAP1 DIV PUSH1 0xFF AND PUSH1 0xFF AND PUSH1 0x7 PUSH1 0x0 ADD SLOAD PUSH2 0xBA5 SWAP2 SWAP1 PUSH2 0x3957 JUMP JUMPDEST PUSH2 0xBAF SWAP2 SWAP1 PUSH2 0x3926 JUMP JUMPDEST PUSH1 0x7 PUSH1 0x0 ADD SLOAD PUSH2 0xBBF SWAP2 SWAP1 PUSH2 0x38C3 JUMP JUMPDEST PUSH2 0xBC9 SWAP2 SWAP1 PUSH2 0x3926 JUMP JUMPDEST PUSH1 0x7 PUSH1 0x5 ADD DUP2 SWAP1 SSTORE POP JUMPDEST PUSH1 0x0 PUSH2 0xC0D PUSH2 0xBF4 PUSH1 0x0 PUSH1 0x1 DUP2 GT ISZERO PUSH2 0xBEF JUMPI PUSH2 0xBEE PUSH2 0x2AFA JUMP JUMPDEST JUMPDEST PUSH2 0x160A JUMP JUMPDEST CALLVALUE PUSH1 0x11 PUSH1 0x0 SWAP1 SLOAD SWAP1 PUSH2 0x100 EXP SWAP1 DIV PUSH4 0xFFFFFFFF AND PUSH2 0xCBB JUMP JUMPDEST SWAP1 POP PUSH2 0xC1A DUP2 PUSH1 0x0 PUSH2 0x1A2F JUMP JUMPDEST POP JUMP JUMPDEST PUSH1 0x60 PUSH1 0x2 DUP1 SLOAD PUSH2 0xC2C SWAP1 PUSH2 0x39C8 JUMP JUMPDEST DUP1 PUSH1 0x1F ADD PUSH1 0x20 DUP1 SWAP2 DIV MUL PUSH1 0x20 ADD PUSH1 0x40 MLOAD SWAP1 DUP2 ADD PUSH1 0x40 MSTORE DUP1 SWAP3 SWAP2 SWAP1 DUP2 DUP2 MSTORE PUSH1 0x20 ADD DUP3 DUP1 SLOAD PUSH2 0xC58 SWAP1 PUSH2 0x39C8 JUMP JUMPDEST DUP1 ISZERO PUSH2 0xCA5 JUMPI DUP1 PUSH1 0x1F LT PUSH2 0xC7A JUMPI PUSH2 0x100 DUP1 DUP4 SLOAD DIV MUL DUP4 MSTORE SWAP2 PUSH1 0x20 ADD SWAP2 PUSH2 0xCA5 JUMP JUMPDEST DUP3 ADD SWAP2 SWAP1 PUSH1 0x0 MSTORE PUSH1 0x20 PUSH1 0x0 KECCAK256 SWAP1 JUMPDEST DUP2 SLOAD DUP2 MSTORE SWAP1 PUSH1 0x1 ADD SWAP1 PUSH1 0x20 ADD DUP1 DUP4 GT PUSH2 0xC88 JUMPI DUP3 SWAP1 SUB PUSH1 0x1F AND DUP3 ADD SWAP2 JUMPDEST POP POP POP POP POP SWAP1 POP SWAP2 SWAP1 POP JUMP JUMPDEST PUSH1 0x0 PUSH1 0x4 SLOAD SWAP1 POP SWAP1 JUMP JUMPDEST PUSH1 0x0 DUP1 PUSH2 0xCC8 DUP6 DUP5 PUSH2 0x1627 JUMP JUMPDEST SWAP1 POP DUP1 DUP5 PUSH2 0xCD6 SWAP2 SWAP1 PUSH2 0x3926 JUMP JUMPDEST SWAP2 POP POP SWAP4 SWAP3 POP POP POP JUMP JUMPDEST PUSH1 0x0 PUSH2 0xCEA PUSH2 0x1ACA JUMP JUMPDEST SWAP1 POP DUP1 PUSH20 0xFFFFFFFFFFFFFFFFFFFFFFFFFFFFFFFFFFFFFFFF AND DUP7 PUSH20 0xFFFFFFFFFFFFFFFFFFFFFFFFFFFFFFFFFFFFFFFF AND EQ ISZERO DUP1 ISZERO PUSH2 0xD2F JUMPI POP PUSH2 0xD2D DUP7 DUP3 PUSH2 0x1738 JUMP JUMPDEST ISZERO JUMPDEST ISZERO PUSH2 0xD73 JUMPI DUP1 DUP7 PUSH1 0x40 MLOAD PUSH32 0xE237D92200000000000000000000000000000000000000000000000000000000 DUP2 MSTORE PUSH1 0x4 ADD PUSH2 0xD6A SWAP3 SWAP2 SWAP1 PUSH2 0x39F9 JUMP JUMPDEST PUSH1 0x40 MLOAD DUP1 SWAP2 SUB SWAP1 REVERT JUMPDEST PUSH2 0xD80 DUP7 DUP7 DUP7 DUP7 DUP7 PUSH2 0x1AD2 JUMP JUMPDEST POP POP POP POP POP POP JUMP JUMPDEST PUSH1 0x2 PUSH1 0x3 DUP2 GT ISZERO PUSH2 0xD9C JUMPI PUSH2 0xD9B PUSH2 0x2AFA JUMP JUMPDEST JUMPDEST PUSH1 0x7 DUP1 ADD PUSH1 0x17 SWAP1 SLOAD SWAP1 PUSH2 0x100 EXP SWAP1 DIV PUSH1 0xFF AND PUSH1 0x3 DUP2 GT ISZERO PUSH2 0xDC0 JUMPI PUSH2 0xDBF PUSH2 0x2AFA JUMP JUMPDEST JUMPDEST EQ PUSH2 0xDF7 JUMPI PUSH1 0x40 MLOAD PUSH32 0xB26B5A6400000000000000000000000000000000000000000000000000000000 DUP2 MSTORE PUSH1 0x4 ADD PUSH1 0x40 MLOAD DUP1 SWAP2 SUB SWAP1 REVERT JUMPDEST PUSH3 0x93A80 PUSH1 0x4 PUSH1 0x7 DUP1 ADD PUSH1 0x2 SWAP1 SLOAD SWAP1 PUSH2 0x100 EXP SWAP1 DIV PUSH1 0xFF AND PUSH2 0xE19 SWAP2 SWAP1 PUSH2 0x3A22 JUMP JUMPDEST PUSH1 0xFF AND PUSH2 0xE26 SWAP2 SWAP1 PUSH2 0x3A6E JUMP JUMPDEST PUSH3 0xFFFFFF AND PUSH1 0x7 PUSH1 0x6 ADD SLOAD TIMESTAMP PUSH2 0xE3C SWAP2 SWAP1 PUSH2 0x3AAB JUMP JUMPDEST GT ISZERO PUSH2 0xE8B JUMPI PUSH1 0x0 PUSH1 0x7 DUP1 ADD PUSH1 0x0 SWAP1 SLOAD SWAP1 PUSH2 0x100 EXP SWAP1 DIV PUSH1 0xFF AND PUSH1 0xFF AND EQ PUSH2 0xE8A JUMPI PUSH1 0x1 PUSH1 0x6 PUSH1 0x14 PUSH2 0x100 EXP DUP2 SLOAD DUP2 PUSH1 0xFF MUL NOT AND SWAP1 DUP4 PUSH1 0x1 DUP2 GT ISZERO PUSH2 0xE84 JUMPI PUSH2 0xE83 PUSH2 0x2AFA JUMP JUMPDEST JUMPDEST MUL OR SWAP1 SSTORE POP JUMPDEST JUMPDEST JUMP JUMPDEST PUSH2 0xE95 PUSH2 0x1BCA JUMP JUMPDEST DUP5 PUSH1 0x7 PUSH1 0x0 ADD DUP2 SWAP1 SSTORE POP DUP4 PUSH1 0x7 PUSH1 0x1 ADD DUP2 SWAP1 SSTORE POP DUP3 PUSH1 0x7 DUP1 ADD PUSH1 0x2 PUSH2 0x100 EXP DUP2 SLOAD DUP2 PUSH1 0xFF MUL NOT AND SWAP1 DUP4 PUSH1 0xFF AND MUL OR SWAP1 SSTORE POP DUP2 PUSH1 0x7 DUP1 ADD PUSH1 0x3 PUSH2 0x100 EXP DUP2 SLOAD DUP2 PUSH20 0xFFFFFFFFFFFFFFFFFFFFFFFFFFFFFFFFFFFFFFFF MUL NOT AND SWAP1 DUP4 PUSH20 0xFFFFFFFFFFFFFFFFFFFFFFFFFFFFFFFFFFFFFFFF AND MUL OR SWAP1 SSTORE POP PUSH1 0x0 PUSH1 0x7 DUP1 ADD PUSH1 0x17 PUSH2 0x100 EXP DUP2 SLOAD DUP2 PUSH1 0xFF MUL NOT AND SWAP1 DUP4 PUSH1 0x3 DUP2 GT ISZERO PUSH2 0xF31 JUMPI PUSH2 0xF30 PUSH2 0x2AFA JUMP JUMPDEST JUMPDEST MUL OR SWAP1 SSTORE POP DUP1 PUSH1 0x11 PUSH1 0x0 PUSH2 0x100 EXP DUP2 SLOAD DUP2 PUSH4 0xFFFFFFFF MUL NOT AND SWAP1 DUP4 PUSH4 0xFFFFFFFF AND MUL OR SWAP1 SSTORE POP DUP3 PUSH1 0x7 DUP1 ADD PUSH1 0x0 PUSH2 0x100 EXP DUP2 SLOAD DUP2 PUSH1 0xFF MUL NOT AND SWAP1 DUP4 PUSH1 0xFF AND MUL OR SWAP1 SSTORE POP PUSH1 0x0 PUSH1 0x7 PUSH1 0x4 ADD DUP2 SWAP1 SSTORE POP PUSH1 0x0 PUSH1 0x7 PUSH1 0x5 ADD DUP2 SWAP1 SSTORE POP TIMESTAMP PUSH1 0x7 PUSH1 0x6 ADD DUP2 SWAP1 SSTORE POP DUP2 PUSH1 0x6 PUSH1 0x0 PUSH2 0x100 EXP DUP2 SLOAD DUP2 PUSH20 0xFFFFFFFFFFFFFFFFFFFFFFFFFFFFFFFFFFFFFFFF MUL NOT AND SWAP1 DUP4 PUSH20 0xFFFFFFFFFFFFFFFFFFFFFFFFFFFFFFFFFFFFFFFF AND MUL OR SWAP1 SSTORE POP PUSH2 0x1003 DUP3 PUSH1 0x0 PUSH1 0x1 DUP2 GT ISZERO PUSH2 0xFED JUMPI PUSH2 0xFEC PUSH2 0x2AFA JUMP JUMPDEST JUMPDEST DUP8 PUSH1 0x40 MLOAD DUP1 PUSH1 0x20 ADD PUSH1 0x40 MSTORE DUP1 PUSH1 0x0 DUP2 MSTORE POP PUSH2 0x1C10 JUMP JUMPDEST PUSH2 0x1030 DUP3 PUSH1 0x1 DUP1 DUP2 GT ISZERO PUSH2 0x101A JUMPI PUSH2 0x1019 PUSH2 0x2AFA JUMP JUMPDEST JUMPDEST DUP8 PUSH1 0x40 MLOAD DUP1 PUSH1 0x20 ADD PUSH1 0x40 MSTORE DUP1 PUSH1 0x0 DUP2 MSTORE POP PUSH2 0x1C10 JUMP JUMPDEST PUSH2 0x1038 PUSH2 0x1CA9 JUMP JUMPDEST POP POP POP POP POP JUMP JUMPDEST PUSH2 0x1047 PUSH2 0x1CB3 JUMP JUMPDEST PUSH1 0x2 PUSH1 0x3 DUP2 GT ISZERO PUSH2 0x105B JUMPI PUSH2 0x105A PUSH2 0x2AFA JUMP JUMPDEST JUMPDEST PUSH1 0x7 DUP1 ADD PUSH1 0x17 SWAP1 SLOAD SWAP1 PUSH2 0x100 EXP SWAP1 DIV PUSH1 0xFF AND PUSH1 0x3 DUP2 GT ISZERO PUSH2 0x107F JUMPI PUSH2 0x107E PUSH2 0x2AFA JUMP JUMPDEST JUMPDEST EQ PUSH2 0x10B6 JUMPI PUSH1 0x40 MLOAD PUSH32 0xB26B5A6400000000000000000000000000000000000000000000000000000000 DUP2 MSTORE PUSH1 0x4 ADD PUSH1 0x40 MLOAD DUP1 SWAP2 SUB SWAP1 REVERT JUMPDEST PUSH1 0x6 PUSH1 0x0 SWAP1 SLOAD SWAP1 PUSH2 0x100 EXP SWAP1 DIV PUSH20 0xFFFFFFFFFFFFFFFFFFFFFFFFFFFFFFFFFFFFFFFF AND PUSH20 0xFFFFFFFFFFFFFFFFFFFFFFFFFFFFFFFFFFFFFFFF AND PUSH2 0x8FC PUSH1 0x7 PUSH1 0x0 ADD SLOAD SWAP1 DUP2 ISZERO MUL SWAP1 PUSH1 0x40 MLOAD PUSH1 0x0 PUSH1 0x40 MLOAD DUP1 DUP4 SUB DUP2 DUP6 DUP9 DUP9 CALL SWAP4 POP POP POP POP ISZERO DUP1 ISZERO PUSH2 0x1123 JUMPI RETURNDATASIZE PUSH1 0x0 DUP1 RETURNDATACOPY RETURNDATASIZE PUSH1 0x0 REVERT JUMPDEST POP JUMP JUMPDEST PUSH1 0x60 DUP2 MLOAD DUP4 MLOAD EQ PUSH2 0x1172 JUMPI DUP2 MLOAD DUP4 MLOAD PUSH1 0x40 MLOAD PUSH32 0x5B05999100000000000000000000000000000000000000000000000000000000 DUP2 MSTORE PUSH1 0x4 ADD PUSH2 0x1169 SWAP3 SWAP2 SWAP1 PUSH2 0x3ADF JUMP JUMPDEST PUSH1 0x40 MLOAD DUP1 SWAP2 SUB SWAP1 REVERT JUMPDEST PUSH1 0x0 DUP4 MLOAD PUSH8 0xFFFFFFFFFFFFFFFF DUP2 GT ISZERO PUSH2 0x118F JUMPI PUSH2 0x118E PUSH2 0x2E69 JUMP JUMPDEST JUMPDEST PUSH1 0x40 MLOAD SWAP1 DUP1 DUP3 MSTORE DUP1 PUSH1 0x20 MUL PUSH1 0x20 ADD DUP3 ADD PUSH1 0x40 MSTORE DUP1 ISZERO PUSH2 0x11BD JUMPI DUP2 PUSH1 0x20 ADD PUSH1 0x20 DUP3 MUL DUP1 CALLDATASIZE DUP4 CALLDATACOPY DUP1 DUP3 ADD SWAP2 POP POP SWAP1 POP JUMPDEST POP SWAP1 POP PUSH1 0x0 JUMPDEST DUP5 MLOAD DUP2 LT ISZERO PUSH2 0x122A JUMPI PUSH2 0x11FA PUSH2 0x11E2 DUP3 DUP8 PUSH2 0x1D3A SWAP1 SWAP2 SWAP1 PUSH4 0xFFFFFFFF AND JUMP JUMPDEST PUSH2 0x11F5 DUP4 DUP8 PUSH2 0x1D4E SWAP1 SWAP2 SWAP1 PUSH4 0xFFFFFFFF AND JUMP JUMPDEST PUSH2 0x8AF JUMP JUMPDEST DUP3 DUP3 DUP2 MLOAD DUP2 LT PUSH2 0x120D JUMPI PUSH2 0x120C PUSH2 0x3B08 JUMP JUMPDEST JUMPDEST PUSH1 0x20 MUL PUSH1 0x20 ADD ADD DUP2 DUP2 MSTORE POP POP DUP1 PUSH2 0x1223 SWAP1 PUSH2 0x3B37 JUMP JUMPDEST SWAP1 POP PUSH2 0x11C3 JUMP JUMPDEST POP DUP1 SWAP2 POP POP SWAP3 SWAP2 POP POP JUMP JUMPDEST PUSH1 0x0 DUP1 PUSH2 0x1241 DUP4 PUSH2 0x160A JUMP JUMPDEST GT SWAP1 POP SWAP2 SWAP1 POP JUMP JUMPDEST PUSH2 0x1251 PUSH2 0x1ACA JUMP JUMPDEST PUSH20 0xFFFFFFFFFFFFFFFFFFFFFFFFFFFFFFFFFFFFFFFF AND DUP4 PUSH20 0xFFFFFFFFFFFFFFFFFFFFFFFFFFFFFFFFFFFFFFFF AND EQ ISZERO DUP1 ISZERO PUSH2 0x129A JUMPI POP PUSH2 0x1298 DUP4 PUSH2 0x1293 PUSH2 0x1ACA JUMP JUMPDEST PUSH2 0x1738 JUMP JUMPDEST ISZERO JUMPDEST ISZERO PUSH2 0x12E5 JUMPI PUSH2 0x12A7 PUSH2 0x1ACA JUMP JUMPDEST DUP4 PUSH1 0x40 MLOAD PUSH32 0xE237D92200000000000000000000000000000000000000000000000000000000 DUP2 MSTORE PUSH1 0x4 ADD PUSH2 0x12DC SWAP3 SWAP2 SWAP1 PUSH2 0x39F9 JUMP JUMPDEST PUSH1 0x40 MLOAD DUP1 SWAP2 SUB SWAP1 REVERT JUMPDEST PUSH2 0x12F0 DUP4 DUP4 DUP4 PUSH2 0x1D62 JUMP JUMPDEST POP POP POP JUMP JUMPDEST PUSH1 0x3 DUP1 DUP2 GT ISZERO PUSH2 0x1308 JUMPI PUSH2 0x1307 PUSH2 0x2AFA JUMP JUMPDEST JUMPDEST PUSH1 0x7 DUP1 ADD PUSH1 0x17 SWAP1 SLOAD SWAP1 PUSH2 0x100 EXP SWAP1 DIV PUSH1 0xFF AND PUSH1 0x3 DUP2 GT ISZERO PUSH2 0x132C JUMPI PUSH2 0x132B PUSH2 0x2AFA JUMP JUMPDEST JUMPDEST EQ PUSH2 0x1363 JUMPI PUSH1 0x40 MLOAD PUSH32 0x8B4B52DE00000000000000000000000000000000000000000000000000000000 DUP2 MSTORE PUSH1 0x4 ADD PUSH1 0x40 MLOAD DUP1 SWAP2 SUB SWAP1 REVERT JUMPDEST PUSH1 0x0 PUSH2 0x139D SELFBALANCE PUSH2 0x1385 CALLER PUSH1 0x1 DUP1 DUP2 GT ISZERO PUSH2 0x1380 JUMPI PUSH2 0x137F PUSH2 0x2AFA JUMP JUMPDEST JUMPDEST PUSH2 0x8AF JUMP JUMPDEST PUSH1 0x11 PUSH1 0x0 SWAP1 SLOAD SWAP1 PUSH2 0x100 EXP SWAP1 DIV PUSH4 0xFFFFFFFF AND PUSH2 0xCBB JUMP JUMPDEST SWAP1 POP PUSH2 0x13AA DUP2 PUSH1 0x1 PUSH2 0x1DF6 JUMP JUMPDEST POP JUMP JUMPDEST PUSH1 0x2 PUSH1 0x3 DUP2 GT ISZERO PUSH2 0x13C1 JUMPI PUSH2 0x13C0 PUSH2 0x2AFA JUMP JUMPDEST JUMPDEST PUSH1 0x7 DUP1 ADD PUSH1 0x17 SWAP1 SLOAD SWAP1 PUSH2 0x100 EXP SWAP1 DIV PUSH1 0xFF AND PUSH1 0x3 DUP2 GT ISZERO PUSH2 0x13E5 JUMPI PUSH2 0x13E4 PUSH2 0x2AFA JUMP JUMPDEST JUMPDEST EQ PUSH2 0x141C JUMPI PUSH1 0x40 MLOAD PUSH32 0xB26B5A6400000000000000000000000000000000000000000000000000000000 DUP2 MSTORE PUSH1 0x4 ADD PUSH1 0x40 MLOAD DUP1 SWAP2 SUB SWAP1 REVERT JUMPDEST PUSH1 0x7 PUSH1 0x5 ADD SLOAD CALLVALUE LT ISZERO PUSH2 0x142E JUMPI PUSH1 0x0 DUP1 REVERT JUMPDEST PUSH1 0x1 PUSH1 0x7 DUP1 ADD PUSH1 0x0 DUP3 DUP3 DUP3 SWAP1 SLOAD SWAP1 PUSH2 0x100 EXP SWAP1 DIV PUSH1 0xFF AND PUSH2 0x144F SWAP2 SWAP1 PUSH2 0x3B7F JUMP JUMPDEST SWAP3 POP PUSH2 0x100 EXP DUP2 SLOAD DUP2 PUSH1 0xFF MUL NOT AND SWAP1 DUP4 PUSH1 0xFF AND MUL OR SWAP1 SSTORE POP CALLVALUE PUSH1 0x7 PUSH1 0x4 ADD PUSH1 0x0 DUP3 DUP3 SLOAD PUSH2 0x147C SWAP2 SWAP1 PUSH2 0x38C3 JUMP JUMPDEST SWAP3 POP POP DUP2 SWAP1 SSTORE POP PUSH1 0x0 PUSH1 0x7 DUP1 ADD PUSH1 0x0 SWAP1 SLOAD SWAP1 PUSH2 0x100 EXP SWAP1 DIV PUSH1 0xFF AND PUSH1 0xFF AND SUB PUSH2 0x14CD JUMPI PUSH1 0x3 PUSH1 0x7 DUP1 ADD PUSH1 0x17 PUSH2 0x100 EXP DUP2 SLOAD DUP2 PUSH1 0xFF MUL NOT AND SWAP1 DUP4 PUSH1 0x3 DUP2 GT ISZERO PUSH2 0x14C7 JUMPI PUSH2 0x14C6 PUSH2 0x2AFA JUMP JUMPDEST JUMPDEST MUL OR SWAP1 SSTORE POP JUMPDEST JUMP JUMPDEST PUSH1 0x11 PUSH1 0x0 SWAP1 SLOAD SWAP1 PUSH2 0x100 EXP SWAP1 DIV PUSH4 0xFFFFFFFF AND DUP2 JUMP JUMPDEST PUSH1 0x3 DUP1 DUP2 GT ISZERO PUSH2 0x14F8 JUMPI PUSH2 0x14F7 PUSH2 0x2AFA JUMP JUMPDEST JUMPDEST PUSH1 0x7 DUP1 ADD PUSH1 0x17 SWAP1 SLOAD SWAP1 PUSH2 0x100 EXP SWAP1 DIV PUSH1 0xFF AND PUSH1 0x3 DUP2 GT ISZERO PUSH2 0x151C JUMPI PUSH2 0x151B PUSH2 0x2AFA JUMP JUMPDEST JUMPDEST EQ PUSH2 0x1553 JUMPI PUSH1 0x40 MLOAD PUSH32 0x8B4B52DE00000000000000000000000000000000000000000000000000000000 DUP2 MSTORE PUSH1 0x4 ADD PUSH1 0x40 MLOAD DUP1 SWAP2 SUB SWAP1 REVERT JUMPDEST PUSH1 0x0 PUSH2 0x158E SELFBALANCE PUSH2 0x1576 CALLER PUSH1 0x0 PUSH1 0x1 DUP2 GT ISZERO PUSH2 0x1571 JUMPI PUSH2 0x1570 PUSH2 0x2AFA JUMP JUMPDEST JUMPDEST PUSH2 0x8AF JUMP JUMPDEST PUSH1 0x11 PUSH1 0x0 SWAP1 SLOAD SWAP1 PUSH2 0x100 EXP SWAP1 DIV PUSH4 0xFFFFFFFF AND PUSH2 0xCBB JUMP JUMPDEST SWAP1 POP PUSH2 0x159B DUP2 PUSH1 0x0 PUSH2 0x1DF6 JUMP JUMPDEST POP JUMP JUMPDEST PUSH1 0x0 PUSH1 0x6 PUSH1 0x0 SWAP1 SLOAD SWAP1 PUSH2 0x100 EXP SWAP1 DIV PUSH20 0xFFFFFFFFFFFFFFFFFFFFFFFFFFFFFFFFFFFFFFFF AND SWAP1 POP SWAP1 JUMP JUMPDEST PUSH1 0x10 SLOAD DUP2 JUMP JUMPDEST PUSH2 0x15E0 PUSH2 0x15D9 PUSH2 0x1ACA JUMP JUMPDEST DUP4 DUP4 PUSH2 0x1E17 JUMP JUMPDEST POP POP JUMP JUMPDEST PUSH1 0x6 PUSH1 0x0 SWAP1 SLOAD SWAP1 PUSH2 0x100 EXP SWAP1 DIV PUSH20 0xFFFFFFFFFFFFFFFFFFFFFFFFFFFFFFFFFFFFFFFF AND DUP2 JUMP JUMPDEST PUSH1 0x0 PUSH1 0x3 PUSH1 0x0 DUP4 DUP2 MSTORE PUSH1 0x20 ADD SWAP1 DUP2 MSTORE PUSH1 0x20 ADD PUSH1 0x0 KECCAK256 SLOAD SWAP1 POP SWAP2 SWAP1 POP JUMP JUMPDEST PUSH1 0x0 DUP3 DUP3 PUSH4 0xFFFFFFFF AND PUSH2 0x163B SWAP2 SWAP1 PUSH2 0x3957 JUMP JUMPDEST SWAP1 POP SWAP3 SWAP2 POP POP JUMP JUMPDEST PUSH1 0x7 DUP1 PUSH1 0x0 ADD SLOAD SWAP1 DUP1 PUSH1 0x1 ADD SLOAD SWAP1 DUP1 PUSH1 0x2 ADD SLOAD SWAP1 DUP1 PUSH1 0x3 ADD SLOAD SWAP1 DUP1 PUSH1 0x4 ADD SLOAD SWAP1 DUP1 PUSH1 0x5 ADD SLOAD SWAP1 DUP1 PUSH1 0x6 ADD SLOAD SWAP1 DUP1 PUSH1 0x7 ADD PUSH1 0x0 SWAP1 SLOAD SWAP1 PUSH2 0x100 EXP SWAP1 DIV PUSH1 0xFF AND SWAP1 DUP1 PUSH1 0x7 ADD PUSH1 0x1 SWAP1 SLOAD SWAP1 PUSH2 0x100 EXP SWAP1 DIV PUSH1 0xFF AND SWAP1 DUP1 PUSH1 0x7 ADD PUSH1 0x2 SWAP1 SLOAD SWAP1 PUSH2 0x100 EXP SWAP1 DIV PUSH1 0xFF AND SWAP1 DUP1 PUSH1 0x7 ADD PUSH1 0x3 SWAP1 SLOAD SWAP1 PUSH2 0x100 EXP SWAP1 DIV PUSH20 0xFFFFFFFFFFFFFFFFFFFFFFFFFFFFFFFFFFFFFFFF AND SWAP1 DUP1 PUSH1 0x7 ADD PUSH1 0x17 SWAP1 SLOAD SWAP1 PUSH2 0x100 EXP SWAP1 DIV PUSH1 0xFF AND SWAP1 POP DUP13 JUMP JUMPDEST PUSH1 0x6 PUSH1 0x14 SWAP1 SLOAD SWAP1 PUSH2 0x100 EXP SWAP1 DIV PUSH1 0xFF AND DUP2 JUMP JUMPDEST PUSH1 0x0 PUSH2 0x1731 PUSH2 0x1718 PUSH1 0x1 DUP1 DUP2 GT ISZERO PUSH2 0x1713 JUMPI PUSH2 0x1712 PUSH2 0x2AFA JUMP JUMPDEST JUMPDEST PUSH2 0x160A JUMP JUMPDEST DUP4 PUSH1 0x11 PUSH1 0x0 SWAP1 SLOAD SWAP1 PUSH2 0x100 EXP SWAP1 DIV PUSH4 0xFFFFFFFF AND PUSH2 0xCBB JUMP JUMPDEST SWAP1 POP SWAP2 SWAP1 POP JUMP JUMPDEST PUSH1 0x0 PUSH1 0x1 PUSH1 0x0 DUP5 PUSH20 0xFFFFFFFFFFFFFFFFFFFFFFFFFFFFFFFFFFFFFFFF AND PUSH20 0xFFFFFFFFFFFFFFFFFFFFFFFFFFFFFFFFFFFFFFFF AND DUP2 MSTORE PUSH1 0x20 ADD SWAP1 DUP2 MSTORE PUSH1 0x20 ADD PUSH1 0x0 KECCAK256 PUSH1 0x0 DUP4 PUSH20 0xFFFFFFFFFFFFFFFFFFFFFFFFFFFFFFFFFFFFFFFF AND PUSH20 0xFFFFFFFFFFFFFFFFFFFFFFFFFFFFFFFFFFFFFFFF AND DUP2 MSTORE PUSH1 0x20 ADD SWAP1 DUP2 MSTORE PUSH1 0x20 ADD PUSH1 0x0 KECCAK256 PUSH1 0x0 SWAP1 SLOAD SWAP1 PUSH2 0x100 EXP SWAP1 DIV PUSH1 0xFF AND SWAP1 POP SWAP3 SWAP2 POP POP JUMP JUMPDEST PUSH1 0x2 PUSH1 0x3 DUP2 GT ISZERO PUSH2 0x17E0 JUMPI PUSH2 0x17DF PUSH2 0x2AFA JUMP JUMPDEST JUMPDEST PUSH1 0x7 DUP1 ADD PUSH1 0x17 SWAP1 SLOAD SWAP1 PUSH2 0x100 EXP SWAP1 DIV PUSH1 0xFF AND PUSH1 0x3 DUP2 GT ISZERO PUSH2 0x1804 JUMPI PUSH2 0x1803 PUSH2 0x2AFA JUMP JUMPDEST JUMPDEST EQ PUSH2 0x183B JUMPI PUSH1 0x40 MLOAD PUSH32 0xB26B5A6400000000000000000000000000000000000000000000000000000000 DUP2 MSTORE PUSH1 0x4 ADD PUSH1 0x40 MLOAD DUP1 SWAP2 SUB SWAP1 REVERT JUMPDEST PUSH1 0x7 PUSH1 0x5 ADD SLOAD PUSH1 0x7 DUP1 ADD PUSH1 0x0 SWAP1 SLOAD SWAP1 PUSH2 0x100 EXP SWAP1 DIV PUSH1 0xFF AND PUSH1 0xFF AND PUSH2 0x1860 SWAP2 SWAP1 PUSH2 0x3957 JUMP JUMPDEST CALLVALUE LT ISZERO PUSH2 0x186C JUMPI PUSH1 0x0 DUP1 REVERT JUMPDEST PUSH1 0x0 PUSH1 0x7 DUP1 ADD PUSH1 0x0 PUSH2 0x100 EXP DUP2 SLOAD DUP2 PUSH1 0xFF MUL NOT AND SWAP1 DUP4 PUSH1 0xFF AND MUL OR SWAP1 SSTORE POP CALLVALUE PUSH1 0x7 PUSH1 0x4 ADD PUSH1 0x0 DUP3 DUP3 SLOAD PUSH2 0x189F SWAP2 SWAP1 PUSH2 0x38C3 JUMP JUMPDEST SWAP3 POP POP DUP2 SWAP1 SSTORE POP PUSH1 0x3 PUSH1 0x7 DUP1 ADD PUSH1 0x17 PUSH2 0x100 EXP DUP2 SLOAD DUP2 PUSH1 0xFF MUL NOT AND SWAP1 DUP4 PUSH1 0x3 DUP2 GT ISZERO PUSH2 0x18CE JUMPI PUSH2 0x18CD PUSH2 0x2AFA JUMP JUMPDEST JUMPDEST MUL OR SWAP1 SSTORE POP JUMP JUMPDEST PUSH1 0x0 PUSH2 0x18DF PUSH2 0x1ACA JUMP JUMPDEST SWAP1 POP DUP1 PUSH20 0xFFFFFFFFFFFFFFFFFFFFFFFFFFFFFFFFFFFFFFFF AND DUP7 PUSH20 0xFFFFFFFFFFFFFFFFFFFFFFFFFFFFFFFFFFFFFFFF AND EQ ISZERO DUP1 ISZERO PUSH2 0x1924 JUMPI POP PUSH2 0x1922 DUP7 DUP3 PUSH2 0x1738 JUMP JUMPDEST ISZERO JUMPDEST ISZERO PUSH2 0x1968 JUMPI DUP1 DUP7 PUSH1 0x40 MLOAD PUSH32 0xE237D92200000000000000000000000000000000000000000000000000000000 DUP2 MSTORE PUSH1 0x4 ADD PUSH2 0x195F SWAP3 SWAP2 SWAP1 PUSH2 0x39F9 JUMP JUMPDEST PUSH1 0x40 MLOAD DUP1 SWAP2 SUB SWAP1 REVERT JUMPDEST PUSH2 0x1975 DUP7 DUP7 DUP7 DUP7 DUP7 PUSH2 0x1F87 JUMP JUMPDEST POP POP POP POP POP POP JUMP JUMPDEST PUSH1 0xF SLOAD DUP2 JUMP JUMPDEST PUSH2 0x198B PUSH2 0x1ACA JUMP JUMPDEST PUSH20 0xFFFFFFFFFFFFFFFFFFFFFFFFFFFFFFFFFFFFFFFF AND DUP4 PUSH20 0xFFFFFFFFFFFFFFFFFFFFFFFFFFFFFFFFFFFFFFFF AND EQ ISZERO DUP1 ISZERO PUSH2 0x19D4 JUMPI POP PUSH2 0x19D2 DUP4 PUSH2 0x19CD PUSH2 0x1ACA JUMP JUMPDEST PUSH2 0x1738 JUMP JUMPDEST ISZERO JUMPDEST ISZERO PUSH2 0x1A1F JUMPI PUSH2 0x19E1 PUSH2 0x1ACA JUMP JUMPDEST DUP4 PUSH1 0x40 MLOAD PUSH32 0xE237D92200000000000000000000000000000000000000000000000000000000 DUP2 MSTORE PUSH1 0x4 ADD PUSH2 0x1A16 SWAP3 SWAP2 SWAP1 PUSH2 0x39F9 JUMP JUMPDEST PUSH1 0x40 MLOAD DUP1 SWAP2 SUB SWAP1 REVERT JUMPDEST PUSH2 0x1A2A DUP4 DUP4 DUP4 PUSH2 0x2092 JUMP JUMPDEST POP POP POP JUMP JUMPDEST PUSH2 0x1A5C CALLER DUP3 PUSH1 0x1 DUP2 GT ISZERO PUSH2 0x1A46 JUMPI PUSH2 0x1A45 PUSH2 0x2AFA JUMP JUMPDEST JUMPDEST DUP5 PUSH1 0x40 MLOAD DUP1 PUSH1 0x20 ADD PUSH1 0x40 MSTORE DUP1 PUSH1 0x0 DUP2 MSTORE POP PUSH2 0x1C10 JUMP JUMPDEST POP POP JUMP JUMPDEST PUSH1 0x0 PUSH32 0x1FFC9A700000000000000000000000000000000000000000000000000000000 PUSH28 0xFFFFFFFFFFFFFFFFFFFFFFFFFFFFFFFFFFFFFFFFFFFFFFFFFFFFFFFF NOT AND DUP3 PUSH28 0xFFFFFFFFFFFFFFFFFFFFFFFFFFFFFFFFFFFFFFFFFFFFFFFFFFFFFFFF NOT AND EQ SWAP1 POP SWAP2 SWAP1 POP JUMP JUMPDEST PUSH1 0x0 CALLER SWAP1 POP SWAP1 JUMP JUMPDEST PUSH1 0x0 PUSH20 0xFFFFFFFFFFFFFFFFFFFFFFFFFFFFFFFFFFFFFFFF AND DUP5 PUSH20 0xFFFFFFFFFFFFFFFFFFFFFFFFFFFFFFFFFFFFFFFF AND SUB PUSH2 0x1B44 JUMPI PUSH1 0x0 PUSH1 0x40 MLOAD PUSH32 0x57F447CE00000000000000000000000000000000000000000000000000000000 DUP2 MSTORE PUSH1 0x4 ADD PUSH2 0x1B3B SWAP2 SWAP1 PUSH2 0x34C3 JUMP JUMPDEST PUSH1 0x40 MLOAD DUP1 SWAP2 SUB SWAP1 REVERT JUMPDEST PUSH1 0x0 PUSH20 0xFFFFFFFFFFFFFFFFFFFFFFFFFFFFFFFFFFFFFFFF AND DUP6 PUSH20 0xFFFFFFFFFFFFFFFFFFFFFFFFFFFFFFFFFFFFFFFF AND SUB PUSH2 0x1BB6 JUMPI PUSH1 0x0 PUSH1 0x40 MLOAD PUSH32 0x1A8351400000000000000000000000000000000000000000000000000000000 DUP2 MSTORE PUSH1 0x4 ADD PUSH2 0x1BAD SWAP2 SWAP1 PUSH2 0x34C3 JUMP JUMPDEST PUSH1 0x40 MLOAD DUP1 SWAP2 SUB SWAP1 REVERT JUMPDEST PUSH2 0x1BC3 DUP6 DUP6 DUP6 DUP6 DUP6 PUSH2 0x2139 JUMP JUMPDEST POP POP POP POP POP JUMP JUMPDEST PUSH1 0x2 PUSH1 0x5 SLOAD SUB PUSH2 0x1C06 JUMPI PUSH1 0x40 MLOAD PUSH32 0x3EE5AEB500000000000000000000000000000000000000000000000000000000 DUP2 MSTORE PUSH1 0x4 ADD PUSH1 0x40 MLOAD DUP1 SWAP2 SUB SWAP1 REVERT JUMPDEST PUSH1 0x2 PUSH1 0x5 DUP2 SWAP1 SSTORE POP JUMP JUMPDEST PUSH1 0x0 PUSH20 0xFFFFFFFFFFFFFFFFFFFFFFFFFFFFFFFFFFFFFFFF AND DUP5 PUSH20 0xFFFFFFFFFFFFFFFFFFFFFFFFFFFFFFFFFFFFFFFF AND SUB PUSH2 0x1C82 JUMPI PUSH1 0x0 PUSH1 0x40 MLOAD PUSH32 0x57F447CE00000000000000000000000000000000000000000000000000000000 DUP2 MSTORE PUSH1 0x4 ADD PUSH2 0x1C79 SWAP2 SWAP1 PUSH2 0x34C3 JUMP JUMPDEST PUSH1 0x40 MLOAD DUP1 SWAP2 SUB SWAP1 REVERT JUMPDEST PUSH1 0x0 DUP1 PUSH2 0x1C8F DUP6 DUP6 PUSH2 0x21EB JUMP JUMPDEST SWAP2 POP SWAP2 POP PUSH2 0x1CA1 PUSH1 0x0 DUP8 DUP5 DUP5 DUP8 PUSH2 0x2139 JUMP JUMPDEST POP POP POP POP POP POP JUMP JUMPDEST PUSH1 0x1 PUSH1 0x5 DUP2 SWAP1 SSTORE POP JUMP JUMPDEST PUSH2 0x1CBB PUSH2 0x1ACA JUMP JUMPDEST PUSH20 0xFFFFFFFFFFFFFFFFFFFFFFFFFFFFFFFFFFFFFFFF AND PUSH2 0x1CD9 PUSH2 0x159E JUMP JUMPDEST PUSH20 0xFFFFFFFFFFFFFFFFFFFFFFFFFFFFFFFFFFFFFFFF AND EQ PUSH2 0x1D38 JUMPI PUSH2 0x1CFC PUSH2 0x1ACA JUMP JUMPDEST PUSH1 0x40 MLOAD PUSH32 0x118CDAA700000000000000000000000000000000000000000000000000000000 DUP2 MSTORE PUSH1 0x4 ADD PUSH2 0x1D2F SWAP2 SWAP1 PUSH2 0x34C3 JUMP JUMPDEST PUSH1 0x40 MLOAD DUP1 SWAP2 SUB SWAP1 REVERT JUMPDEST JUMP JUMPDEST PUSH1 0x0 PUSH1 0x20 DUP3 MUL PUSH1 0x20 DUP5 ADD ADD MLOAD SWAP1 POP SWAP3 SWAP2 POP POP JUMP JUMPDEST PUSH1 0x0 PUSH1 0x20 DUP3 MUL PUSH1 0x20 DUP5 ADD ADD MLOAD SWAP1 POP SWAP3 SWAP2 POP POP JUMP JUMPDEST PUSH1 0x0 PUSH20 0xFFFFFFFFFFFFFFFFFFFFFFFFFFFFFFFFFFFFFFFF AND DUP4 PUSH20 0xFFFFFFFFFFFFFFFFFFFFFFFFFFFFFFFFFFFFFFFF AND SUB PUSH2 0x1DD4 JUMPI PUSH1 0x0 PUSH1 0x40 MLOAD PUSH32 0x1A8351400000000000000000000000000000000000000000000000000000000 DUP2 MSTORE PUSH1 0x4 ADD PUSH2 0x1DCB SWAP2 SWAP1 PUSH2 0x34C3 JUMP JUMPDEST PUSH1 0x40 MLOAD DUP1 SWAP2 SUB SWAP1 REVERT JUMPDEST PUSH2 0x1DF1 DUP4 PUSH1 0x0 DUP5 DUP5 PUSH1 0x40 MLOAD DUP1 PUSH1 0x20 ADD PUSH1 0x40 MSTORE DUP1 PUSH1 0x0 DUP2 MSTORE POP PUSH2 0x2139 JUMP JUMPDEST POP POP POP JUMP JUMPDEST PUSH2 0x1E13 CALLER DUP3 PUSH1 0x1 DUP2 GT ISZERO PUSH2 0x1E0D JUMPI PUSH2 0x1E0C PUSH2 0x2AFA JUMP JUMPDEST JUMPDEST DUP5 PUSH2 0x2092 JUMP JUMPDEST POP POP JUMP JUMPDEST PUSH1 0x0 PUSH20 0xFFFFFFFFFFFFFFFFFFFFFFFFFFFFFFFFFFFFFFFF AND DUP3 PUSH20 0xFFFFFFFFFFFFFFFFFFFFFFFFFFFFFFFFFFFFFFFF AND SUB PUSH2 0x1E89 JUMPI PUSH1 0x0 PUSH1 0x40 MLOAD PUSH32 0xCED3E10000000000000000000000000000000000000000000000000000000000 DUP2 MSTORE PUSH1 0x4 ADD PUSH2 0x1E80 SWAP2 SWAP1 PUSH2 0x34C3 JUMP JUMPDEST PUSH1 0x40 MLOAD DUP1 SWAP2 SUB SWAP1 REVERT JUMPDEST DUP1 PUSH1 0x1 PUSH1 0x0 DUP6 PUSH20 0xFFFFFFFFFFFFFFFFFFFFFFFFFFFFFFFFFFFFFFFF AND PUSH20 0xFFFFFFFFFFFFFFFFFFFFFFFFFFFFFFFFFFFFFFFF AND DUP2 MSTORE PUSH1 0x20 ADD SWAP1 DUP2 MSTORE PUSH1 0x20 ADD PUSH1 0x0 KECCAK256 PUSH1 0x0 DUP5 PUSH20 0xFFFFFFFFFFFFFFFFFFFFFFFFFFFFFFFFFFFFFFFF AND PUSH20 0xFFFFFFFFFFFFFFFFFFFFFFFFFFFFFFFFFFFFFFFF AND DUP2 MSTORE PUSH1 0x20 ADD SWAP1 DUP2 MSTORE PUSH1 0x20 ADD PUSH1 0x0 KECCAK256 PUSH1 0x0 PUSH2 0x100 EXP DUP2 SLOAD DUP2 PUSH1 0xFF MUL NOT AND SWAP1 DUP4 ISZERO ISZERO MUL OR SWAP1 SSTORE POP DUP2 PUSH20 0xFFFFFFFFFFFFFFFFFFFFFFFFFFFFFFFFFFFFFFFF AND DUP4 PUSH20 0xFFFFFFFFFFFFFFFFFFFFFFFFFFFFFFFFFFFFFFFF AND PUSH32 0x17307EAB39AB6107E8899845AD3D59BD9653F200F220920489CA2B5937696C31 DUP4 PUSH1 0x40 MLOAD PUSH2 0x1F7A SWAP2 SWAP1 PUSH2 0x2CDB JUMP JUMPDEST PUSH1 0x40 MLOAD DUP1 SWAP2 SUB SWAP1 LOG3 POP POP POP JUMP JUMPDEST PUSH1 0x0 PUSH20 0xFFFFFFFFFFFFFFFFFFFFFFFFFFFFFFFFFFFFFFFF AND DUP5 PUSH20 0xFFFFFFFFFFFFFFFFFFFFFFFFFFFFFFFFFFFFFFFF AND SUB PUSH2 0x1FF9 JUMPI PUSH1 0x0 PUSH1 0x40 MLOAD PUSH32 0x57F447CE00000000000000000000000000000000000000000000000000000000 DUP2 MSTORE PUSH1 0x4 ADD PUSH2 0x1FF0 SWAP2 SWAP1 PUSH2 0x34C3 JUMP JUMPDEST PUSH1 0x40 MLOAD DUP1 SWAP2 SUB SWAP1 REVERT JUMPDEST PUSH1 0x0 PUSH20 0xFFFFFFFFFFFFFFFFFFFFFFFFFFFFFFFFFFFFFFFF AND DUP6 PUSH20 0xFFFFFFFFFFFFFFFFFFFFFFFFFFFFFFFFFFFFFFFF AND SUB PUSH2 0x206B JUMPI PUSH1 0x0 PUSH1 0x40 MLOAD PUSH32 0x1A8351400000000000000000000000000000000000000000000000000000000 DUP2 MSTORE PUSH1 0x4 ADD PUSH2 0x2062 SWAP2 SWAP1 PUSH2 0x34C3 JUMP JUMPDEST PUSH1 0x40 MLOAD DUP1 SWAP2 SUB SWAP1 REVERT JUMPDEST PUSH1 0x0 DUP1 PUSH2 0x2078 DUP6 DUP6 PUSH2 0x21EB JUMP JUMPDEST SWAP2 POP SWAP2 POP PUSH2 0x2089 DUP8 DUP8 DUP5 DUP5 DUP8 PUSH2 0x2139 JUMP JUMPDEST POP POP POP POP POP POP POP JUMP JUMPDEST PUSH1 0x0 PUSH20 0xFFFFFFFFFFFFFFFFFFFFFFFFFFFFFFFFFFFFFFFF AND DUP4 PUSH20 0xFFFFFFFFFFFFFFFFFFFFFFFFFFFFFFFFFFFFFFFF AND SUB PUSH2 0x2104 JUMPI PUSH1 0x0 PUSH1 0x40 MLOAD PUSH32 0x1A8351400000000000000000000000000000000000000000000000000000000 DUP2 MSTORE PUSH1 0x4 ADD PUSH2 0x20FB SWAP2 SWAP1 PUSH2 0x34C3 JUMP JUMPDEST PUSH1 0x40 MLOAD DUP1 SWAP2 SUB SWAP1 REVERT JUMPDEST PUSH1 0x0 DUP1 PUSH2 0x2111 DUP5 DUP5 PUSH2 0x21EB JUMP JUMPDEST SWAP2 POP SWAP2 POP PUSH2 0x2132 DUP6 PUSH1 0x0 DUP5 DUP5 PUSH1 0x40 MLOAD DUP1 PUSH1 0x20 ADD PUSH1 0x40 MSTORE DUP1 PUSH1 0x0 DUP2 MSTORE POP PUSH2 0x2139 JUMP JUMPDEST POP POP POP POP POP JUMP JUMPDEST PUSH2 0x2145 DUP6 DUP6 DUP6 DUP6 PUSH2 0x221B JUMP JUMPDEST PUSH1 0x0 PUSH20 0xFFFFFFFFFFFFFFFFFFFFFFFFFFFFFFFFFFFFFFFF AND DUP5 PUSH20 0xFFFFFFFFFFFFFFFFFFFFFFFFFFFFFFFFFFFFFFFF AND EQ PUSH2 0x21E4 JUMPI PUSH1 0x0 PUSH2 0x2183 PUSH2 0x1ACA JUMP JUMPDEST SWAP1 POP PUSH1 0x1 DUP5 MLOAD SUB PUSH2 0x21D3 JUMPI PUSH1 0x0 PUSH2 0x21A4 PUSH1 0x0 DUP7 PUSH2 0x1D4E SWAP1 SWAP2 SWAP1 PUSH4 0xFFFFFFFF AND JUMP JUMPDEST SWAP1 POP PUSH1 0x0 PUSH2 0x21BC PUSH1 0x0 DUP7 PUSH2 0x1D4E SWAP1 SWAP2 SWAP1 PUSH4 0xFFFFFFFF AND JUMP JUMPDEST SWAP1 POP PUSH2 0x21CC DUP4 DUP10 DUP10 DUP6 DUP6 DUP10 PUSH2 0x222D JUMP JUMPDEST POP POP PUSH2 0x21E2 JUMP JUMPDEST PUSH2 0x21E1 DUP2 DUP8 DUP8 DUP8 DUP8 DUP8 PUSH2 0x23E1 JUMP JUMPDEST JUMPDEST POP JUMPDEST POP POP POP POP POP JUMP JUMPDEST PUSH1 0x60 DUP1 PUSH1 0x40 MLOAD SWAP2 POP PUSH1 0x1 DUP3 MSTORE DUP4 PUSH1 0x20 DUP4 ADD MSTORE PUSH1 0x40 DUP3 ADD SWAP1 POP PUSH1 0x1 DUP2 MSTORE DUP3 PUSH1 0x20 DUP3 ADD MSTORE PUSH1 0x40 DUP2 ADD PUSH1 0x40 MSTORE SWAP3 POP SWAP3 SWAP1 POP JUMP JUMPDEST PUSH2 0x2227 DUP5 DUP5 DUP5 DUP5 PUSH2 0x2595 JUMP JUMPDEST POP POP POP POP JUMP JUMPDEST PUSH1 0x0 DUP5 PUSH20 0xFFFFFFFFFFFFFFFFFFFFFFFFFFFFFFFFFFFFFFFF AND EXTCODESIZE GT ISZERO PUSH2 0x23D9 JUMPI DUP4 PUSH20 0xFFFFFFFFFFFFFFFFFFFFFFFFFFFFFFFFFFFFFFFF AND PUSH4 0xF23A6E61 DUP8 DUP8 DUP7 DUP7 DUP7 PUSH1 0x40 MLOAD DUP7 PUSH4 0xFFFFFFFF AND PUSH1 0xE0 SHL DUP2 MSTORE PUSH1 0x4 ADD PUSH2 0x228E SWAP6 SWAP5 SWAP4 SWAP3 SWAP2 SWAP1 PUSH2 0x3C09 JUMP JUMPDEST PUSH1 0x20 PUSH1 0x40 MLOAD DUP1 DUP4 SUB DUP2 PUSH1 0x0 DUP8 GAS CALL SWAP3 POP POP POP DUP1 ISZERO PUSH2 0x22CA JUMPI POP PUSH1 0x40 MLOAD RETURNDATASIZE PUSH1 0x1F NOT PUSH1 0x1F DUP3 ADD AND DUP3 ADD DUP1 PUSH1 0x40 MSTORE POP DUP2 ADD SWAP1 PUSH2 0x22C7 SWAP2 SWAP1 PUSH2 0x3C78 JUMP JUMPDEST PUSH1 0x1 JUMPDEST PUSH2 0x234E JUMPI RETURNDATASIZE DUP1 PUSH1 0x0 DUP2 EQ PUSH2 0x22FA JUMPI PUSH1 0x40 MLOAD SWAP2 POP PUSH1 0x1F NOT PUSH1 0x3F RETURNDATASIZE ADD AND DUP3 ADD PUSH1 0x40 MSTORE RETURNDATASIZE DUP3 MSTORE RETURNDATASIZE PUSH1 0x0 PUSH1 0x20 DUP5 ADD RETURNDATACOPY PUSH2 0x22FF JUMP JUMPDEST PUSH1 0x60 SWAP2 POP JUMPDEST POP PUSH1 0x0 DUP2 MLOAD SUB PUSH2 0x2346 JUMPI DUP5 PUSH1 0x40 MLOAD PUSH32 0x57F447CE00000000000000000000000000000000000000000000000000000000 DUP2 MSTORE PUSH1 0x4 ADD PUSH2 0x233D SWAP2 SWAP1 PUSH2 0x34C3 JUMP JUMPDEST PUSH1 0x40 MLOAD DUP1 SWAP2 SUB SWAP1 REVERT JUMPDEST DUP1 MLOAD DUP2 PUSH1 0x20 ADD REVERT JUMPDEST PUSH4 0xF23A6E61 PUSH1 0xE0 SHL PUSH28 0xFFFFFFFFFFFFFFFFFFFFFFFFFFFFFFFFFFFFFFFFFFFFFFFFFFFFFFFF NOT AND DUP2 PUSH28 0xFFFFFFFFFFFFFFFFFFFFFFFFFFFFFFFFFFFFFFFFFFFFFFFFFFFFFFFF NOT AND EQ PUSH2 0x23D7 JUMPI DUP5 PUSH1 0x40 MLOAD PUSH32 0x57F447CE00000000000000000000000000000000000000000000000000000000 DUP2 MSTORE PUSH1 0x4 ADD PUSH2 0x23CE SWAP2 SWAP1 PUSH2 0x34C3 JUMP JUMPDEST PUSH1 0x40 MLOAD DUP1 SWAP2 SUB SWAP1 REVERT JUMPDEST POP JUMPDEST POP POP POP POP POP POP JUMP JUMPDEST PUSH1 0x0 DUP5 PUSH20 0xFFFFFFFFFFFFFFFFFFFFFFFFFFFFFFFFFFFFFFFF AND EXTCODESIZE GT ISZERO PUSH2 0x258D JUMPI DUP4 PUSH20 0xFFFFFFFFFFFFFFFFFFFFFFFFFFFFFFFFFFFFFFFF AND PUSH4 0xBC197C81 DUP8 DUP8 DUP7 DUP7 DUP7 PUSH1 0x40 MLOAD DUP7 PUSH4 0xFFFFFFFF AND PUSH1 0xE0 SHL DUP2 MSTORE PUSH1 0x4 ADD PUSH2 0x2442 SWAP6 SWAP5 SWAP4 SWAP3 SWAP2 SWAP1 PUSH2 0x3CA5 JUMP JUMPDEST PUSH1 0x20 PUSH1 0x40 MLOAD DUP1 DUP4 SUB DUP2 PUSH1 0x0 DUP8 GAS CALL SWAP3 POP POP POP DUP1 ISZERO PUSH2 0x247E JUMPI POP PUSH1 0x40 MLOAD RETURNDATASIZE PUSH1 0x1F NOT PUSH1 0x1F DUP3 ADD AND DUP3 ADD DUP1 PUSH1 0x40 MSTORE POP DUP2 ADD SWAP1 PUSH2 0x247B SWAP2 SWAP1 PUSH2 0x3C78 JUMP JUMPDEST PUSH1 0x1 JUMPDEST PUSH2 0x2502 JUMPI RETURNDATASIZE DUP1 PUSH1 0x0 DUP2 EQ PUSH2 0x24AE JUMPI PUSH1 0x40 MLOAD SWAP2 POP PUSH1 0x1F NOT PUSH1 0x3F RETURNDATASIZE ADD AND DUP3 ADD PUSH1 0x40 MSTORE RETURNDATASIZE DUP3 MSTORE RETURNDATASIZE PUSH1 0x0 PUSH1 0x20 DUP5 ADD RETURNDATACOPY PUSH2 0x24B3 JUMP JUMPDEST PUSH1 0x60 SWAP2 POP JUMPDEST POP PUSH1 0x0 DUP2 MLOAD SUB PUSH2 0x24FA JUMPI DUP5 PUSH1 0x40 MLOAD PUSH32 0x57F447CE00000000000000000000000000000000000000000000000000000000 DUP2 MSTORE PUSH1 0x4 ADD PUSH2 0x24F1 SWAP2 SWAP1 PUSH2 0x34C3 JUMP JUMPDEST PUSH1 0x40 MLOAD DUP1 SWAP2 SUB SWAP1 REVERT JUMPDEST DUP1 MLOAD DUP2 PUSH1 0x20 ADD REVERT JUMPDEST PUSH4 0xBC197C81 PUSH1 0xE0 SHL PUSH28 0xFFFFFFFFFFFFFFFFFFFFFFFFFFFFFFFFFFFFFFFFFFFFFFFFFFFFFFFF NOT AND DUP2 PUSH28 0xFFFFFFFFFFFFFFFFFFFFFFFFFFFFFFFFFFFFFFFFFFFFFFFFFFFFFFFF NOT AND EQ PUSH2 0x258B JUMPI DUP5 PUSH1 0x40 MLOAD PUSH32 0x57F447CE00000000000000000000000000000000000000000000000000000000 DUP2 MSTORE PUSH1 0x4 ADD PUSH2 0x2582 SWAP2 SWAP1 PUSH2 0x34C3 JUMP JUMPDEST PUSH1 0x40 MLOAD DUP1 SWAP2 SUB SWAP1 REVERT JUMPDEST POP JUMPDEST POP POP POP POP POP POP JUMP JUMPDEST PUSH2 0x25A1 DUP5 DUP5 DUP5 DUP5 PUSH2 0x274C JUMP JUMPDEST PUSH1 0x0 PUSH20 0xFFFFFFFFFFFFFFFFFFFFFFFFFFFFFFFFFFFFFFFF AND DUP5 PUSH20 0xFFFFFFFFFFFFFFFFFFFFFFFFFFFFFFFFFFFFFFFF AND SUB PUSH2 0x2681 JUMPI PUSH1 0x0 DUP1 JUMPDEST DUP4 MLOAD DUP2 LT ISZERO PUSH2 0x2665 JUMPI PUSH1 0x0 DUP4 DUP3 DUP2 MLOAD DUP2 LT PUSH2 0x25F7 JUMPI PUSH2 0x25F6 PUSH2 0x3B08 JUMP JUMPDEST JUMPDEST PUSH1 0x20 MUL PUSH1 0x20 ADD ADD MLOAD SWAP1 POP DUP1 PUSH1 0x3 PUSH1 0x0 DUP8 DUP6 DUP2 MLOAD DUP2 LT PUSH2 0x2619 JUMPI PUSH2 0x2618 PUSH2 0x3B08 JUMP JUMPDEST JUMPDEST PUSH1 0x20 MUL PUSH1 0x20 ADD ADD MLOAD DUP2 MSTORE PUSH1 0x20 ADD SWAP1 DUP2 MSTORE PUSH1 0x20 ADD PUSH1 0x0 KECCAK256 PUSH1 0x0 DUP3 DUP3 SLOAD PUSH2 0x263E SWAP2 SWAP1 PUSH2 0x38C3 JUMP JUMPDEST SWAP3 POP POP DUP2 SWAP1 SSTORE POP DUP1 DUP4 PUSH2 0x2651 SWAP2 SWAP1 PUSH2 0x38C3 JUMP JUMPDEST SWAP3 POP POP DUP1 PUSH2 0x265E SWAP1 PUSH2 0x3B37 JUMP JUMPDEST SWAP1 POP PUSH2 0x25D9 JUMP JUMPDEST POP DUP1 PUSH1 0x4 PUSH1 0x0 DUP3 DUP3 SLOAD PUSH2 0x2678 SWAP2 SWAP1 PUSH2 0x38C3 JUMP JUMPDEST SWAP3 POP POP DUP2 SWAP1 SSTORE POP POP JUMPDEST PUSH1 0x0 PUSH20 0xFFFFFFFFFFFFFFFFFFFFFFFFFFFFFFFFFFFFFFFF AND DUP4 PUSH20 0xFFFFFFFFFFFFFFFFFFFFFFFFFFFFFFFFFFFFFFFF AND SUB PUSH2 0x2746 JUMPI PUSH1 0x0 DUP1 JUMPDEST DUP4 MLOAD DUP2 LT ISZERO PUSH2 0x2733 JUMPI PUSH1 0x0 DUP4 DUP3 DUP2 MLOAD DUP2 LT PUSH2 0x26D7 JUMPI PUSH2 0x26D6 PUSH2 0x3B08 JUMP JUMPDEST JUMPDEST PUSH1 0x20 MUL PUSH1 0x20 ADD ADD MLOAD SWAP1 POP DUP1 PUSH1 0x3 PUSH1 0x0 DUP8 DUP6 DUP2 MLOAD DUP2 LT PUSH2 0x26F9 JUMPI PUSH2 0x26F8 PUSH2 0x3B08 JUMP JUMPDEST JUMPDEST PUSH1 0x20 MUL PUSH1 0x20 ADD ADD MLOAD DUP2 MSTORE PUSH1 0x20 ADD SWAP1 DUP2 MSTORE PUSH1 0x20 ADD PUSH1 0x0 KECCAK256 PUSH1 0x0 DUP3 DUP3 SLOAD SUB SWAP3 POP POP DUP2 SWAP1 SSTORE POP DUP1 DUP4 ADD SWAP3 POP POP DUP1 PUSH2 0x272C SWAP1 PUSH2 0x3B37 JUMP JUMPDEST SWAP1 POP PUSH2 0x26B9 JUMP JUMPDEST POP DUP1 PUSH1 0x4 PUSH1 0x0 DUP3 DUP3 SLOAD SUB SWAP3 POP POP DUP2 SWAP1 SSTORE POP POP JUMPDEST POP POP POP POP JUMP JUMPDEST DUP1 MLOAD DUP3 MLOAD EQ PUSH2 0x2796 JUMPI DUP2 MLOAD DUP2 MLOAD PUSH1 0x40 MLOAD PUSH32 0x5B05999100000000000000000000000000000000000000000000000000000000 DUP2 MSTORE PUSH1 0x4 ADD PUSH2 0x278D SWAP3 SWAP2 SWAP1 PUSH2 0x3ADF JUMP JUMPDEST PUSH1 0x40 MLOAD DUP1 SWAP2 SUB SWAP1 REVERT JUMPDEST PUSH1 0x0 PUSH2 0x27A0 PUSH2 0x1ACA JUMP JUMPDEST SWAP1 POP PUSH1 0x0 JUMPDEST DUP4 MLOAD DUP2 LT ISZERO PUSH2 0x29B5 JUMPI PUSH1 0x0 PUSH2 0x27C3 DUP3 DUP7 PUSH2 0x1D4E SWAP1 SWAP2 SWAP1 PUSH4 0xFFFFFFFF AND JUMP JUMPDEST SWAP1 POP PUSH1 0x0 PUSH2 0x27DA DUP4 DUP7 PUSH2 0x1D4E SWAP1 SWAP2 SWAP1 PUSH4 0xFFFFFFFF AND JUMP JUMPDEST SWAP1 POP PUSH1 0x0 PUSH20 0xFFFFFFFFFFFFFFFFFFFFFFFFFFFFFFFFFFFFFFFF AND DUP9 PUSH20 0xFFFFFFFFFFFFFFFFFFFFFFFFFFFFFFFFFFFFFFFF AND EQ PUSH2 0x2907 JUMPI PUSH1 0x0 DUP1 PUSH1 0x0 DUP5 DUP2 MSTORE PUSH1 0x20 ADD SWAP1 DUP2 MSTORE PUSH1 0x20 ADD PUSH1 0x0 KECCAK256 PUSH1 0x0 DUP11 PUSH20 0xFFFFFFFFFFFFFFFFFFFFFFFFFFFFFFFFFFFFFFFF AND PUSH20 0xFFFFFFFFFFFFFFFFFFFFFFFFFFFFFFFFFFFFFFFF AND DUP2 MSTORE PUSH1 0x20 ADD SWAP1 DUP2 MSTORE PUSH1 0x20 ADD PUSH1 0x0 KECCAK256 SLOAD SWAP1 POP DUP2 DUP2 LT ISZERO PUSH2 0x28AF JUMPI DUP9 DUP2 DUP4 DUP6 PUSH1 0x40 MLOAD PUSH32 0x3DEE4C500000000000000000000000000000000000000000000000000000000 DUP2 MSTORE PUSH1 0x4 ADD PUSH2 0x28A6 SWAP5 SWAP4 SWAP3 SWAP2 SWAP1 PUSH2 0x3D0D JUMP JUMPDEST PUSH1 0x40 MLOAD DUP1 SWAP2 SUB SWAP1 REVERT JUMPDEST DUP2 DUP2 SUB PUSH1 0x0 DUP1 DUP6 DUP2 MSTORE PUSH1 0x20 ADD SWAP1 DUP2 MSTORE PUSH1 0x20 ADD PUSH1 0x0 KECCAK256 PUSH1 0x0 DUP12 PUSH20 0xFFFFFFFFFFFFFFFFFFFFFFFFFFFFFFFFFFFFFFFF AND PUSH20 0xFFFFFFFFFFFFFFFFFFFFFFFFFFFFFFFFFFFFFFFF AND DUP2 MSTORE PUSH1 0x20 ADD SWAP1 DUP2 MSTORE PUSH1 0x20 ADD PUSH1 0x0 KECCAK256 DUP2 SWAP1 SSTORE POP POP JUMPDEST PUSH1 0x0 PUSH20 0xFFFFFFFFFFFFFFFFFFFFFFFFFFFFFFFFFFFFFFFF AND DUP8 PUSH20 0xFFFFFFFFFFFFFFFFFFFFFFFFFFFFFFFFFFFFFFFF AND EQ PUSH2 0x29A2 JUMPI DUP1 PUSH1 0x0 DUP1 DUP5 DUP2 MSTORE PUSH1 0x20 ADD SWAP1 DUP2 MSTORE PUSH1 0x20 ADD PUSH1 0x0 KECCAK256 PUSH1 0x0 DUP10 PUSH20 0xFFFFFFFFFFFFFFFFFFFFFFFFFFFFFFFFFFFFFFFF AND PUSH20 0xFFFFFFFFFFFFFFFFFFFFFFFFFFFFFFFFFFFFFFFF AND DUP2 MSTORE PUSH1 0x20 ADD SWAP1 DUP2 MSTORE PUSH1 0x20 ADD PUSH1 0x0 KECCAK256 PUSH1 0x0 DUP3 DUP3 SLOAD PUSH2 0x299A SWAP2 SWAP1 PUSH2 0x38C3 JUMP JUMPDEST SWAP3 POP POP DUP2 SWAP1 SSTORE POP JUMPDEST POP POP DUP1 PUSH2 0x29AE SWAP1 PUSH2 0x3B37 JUMP JUMPDEST SWAP1 POP PUSH2 0x27A5 JUMP JUMPDEST POP PUSH1 0x1 DUP4 MLOAD SUB PUSH2 0x2A74 JUMPI PUSH1 0x0 PUSH2 0x29D5 PUSH1 0x0 DUP6 PUSH2 0x1D4E SWAP1 SWAP2 SWAP1 PUSH4 0xFFFFFFFF AND JUMP JUMPDEST SWAP1 POP PUSH1 0x0 PUSH2 0x29ED PUSH1 0x0 DUP6 PUSH2 0x1D4E SWAP1 SWAP2 SWAP1 PUSH4 0xFFFFFFFF AND JUMP JUMPDEST SWAP1 POP DUP6 PUSH20 0xFFFFFFFFFFFFFFFFFFFFFFFFFFFFFFFFFFFFFFFF AND DUP8 PUSH20 0xFFFFFFFFFFFFFFFFFFFFFFFFFFFFFFFFFFFFFFFF AND DUP5 PUSH20 0xFFFFFFFFFFFFFFFFFFFFFFFFFFFFFFFFFFFFFFFF AND PUSH32 0xC3D58168C5AE7397731D063D5BBF3D657854427343F4C083240F7AACAA2D0F62 DUP6 DUP6 PUSH1 0x40 MLOAD PUSH2 0x2A65 SWAP3 SWAP2 SWAP1 PUSH2 0x3ADF JUMP JUMPDEST PUSH1 0x40 MLOAD DUP1 SWAP2 SUB SWAP1 LOG4 POP POP PUSH2 0x2AF3 JUMP JUMPDEST DUP4 PUSH20 0xFFFFFFFFFFFFFFFFFFFFFFFFFFFFFFFFFFFFFFFF AND DUP6 PUSH20 0xFFFFFFFFFFFFFFFFFFFFFFFFFFFFFFFFFFFFFFFF AND DUP3 PUSH20 0xFFFFFFFFFFFFFFFFFFFFFFFFFFFFFFFFFFFFFFFF AND PUSH32 0x4A39DC06D4C0DBC64B70AF90FD698A233A518AA5D07E595D983B8C0526C8F7FB DUP7 DUP7 PUSH1 0x40 MLOAD PUSH2 0x2AEA SWAP3 SWAP2 SWAP1 PUSH2 0x3D52 JUMP JUMPDEST PUSH1 0x40 MLOAD DUP1 SWAP2 SUB SWAP1 LOG4 JUMPDEST POP POP POP POP POP JUMP JUMPDEST PUSH32 0x4E487B7100000000000000000000000000000000000000000000000000000000 PUSH1 0x0 MSTORE PUSH1 0x21 PUSH1 0x4 MSTORE PUSH1 0x24 PUSH1 0x0 REVERT JUMPDEST PUSH1 0x0 PUSH1 0x40 MLOAD SWAP1 POP SWAP1 JUMP JUMPDEST PUSH1 0x0 DUP1 REVERT JUMPDEST PUSH1 0x0 DUP1 REVERT JUMPDEST PUSH1 0x0 PUSH20 0xFFFFFFFFFFFFFFFFFFFFFFFFFFFFFFFFFFFFFFFF DUP3 AND SWAP1 POP SWAP2 SWAP1 POP JUMP JUMPDEST PUSH1 0x0 PUSH2 0x2B68 DUP3 PUSH2 0x2B3D JUMP JUMPDEST SWAP1 POP SWAP2 SWAP1 POP JUMP JUMPDEST PUSH2 0x2B78 DUP2 PUSH2 0x2B5D JUMP JUMPDEST DUP2 EQ PUSH2 0x2B83 JUMPI PUSH1 0x0 DUP1 REVERT JUMPDEST POP JUMP JUMPDEST PUSH1 0x0 DUP2 CALLDATALOAD SWAP1 POP PUSH2 0x2B95 DUP2 PUSH2 0x2B6F JUMP JUMPDEST SWAP3 SWAP2 POP POP JUMP JUMPDEST PUSH1 0x0 DUP2 SWAP1 POP SWAP2 SWAP1 POP JUMP JUMPDEST PUSH2 0x2BAE DUP2 PUSH2 0x2B9B JUMP JUMPDEST DUP2 EQ PUSH2 0x2BB9 JUMPI PUSH1 0x0 DUP1 REVERT JUMPDEST POP JUMP JUMPDEST PUSH1 0x0 DUP2 CALLDATALOAD SWAP1 POP PUSH2 0x2BCB DUP2 PUSH2 0x2BA5 JUMP JUMPDEST SWAP3 SWAP2 POP POP JUMP JUMPDEST PUSH1 0x0 DUP1 PUSH1 0x40 DUP4 DUP6 SUB SLT ISZERO PUSH2 0x2BE8 JUMPI PUSH2 0x2BE7 PUSH2 0x2B33 JUMP JUMPDEST JUMPDEST PUSH1 0x0 PUSH2 0x2BF6 DUP6 DUP3 DUP7 ADD PUSH2 0x2B86 JUMP JUMPDEST SWAP3 POP POP PUSH1 0x20 PUSH2 0x2C07 DUP6 DUP3 DUP7 ADD PUSH2 0x2BBC JUMP JUMPDEST SWAP2 POP POP SWAP3 POP SWAP3 SWAP1 POP JUMP JUMPDEST PUSH2 0x2C1A DUP2 PUSH2 0x2B9B JUMP JUMPDEST DUP3 MSTORE POP POP JUMP JUMPDEST PUSH1 0x0 PUSH1 0x20 DUP3 ADD SWAP1 POP PUSH2 0x2C35 PUSH1 0x0 DUP4 ADD DUP5 PUSH2 0x2C11 JUMP JUMPDEST SWAP3 SWAP2 POP POP JUMP JUMPDEST PUSH1 0x0 PUSH32 0xFFFFFFFF00000000000000000000000000000000000000000000000000000000 DUP3 AND SWAP1 POP SWAP2 SWAP1 POP JUMP JUMPDEST PUSH2 0x2C70 DUP2 PUSH2 0x2C3B JUMP JUMPDEST DUP2 EQ PUSH2 0x2C7B JUMPI PUSH1 0x0 DUP1 REVERT JUMPDEST POP JUMP JUMPDEST PUSH1 0x0 DUP2 CALLDATALOAD SWAP1 POP PUSH2 0x2C8D DUP2 PUSH2 0x2C67 JUMP JUMPDEST SWAP3 SWAP2 POP POP JUMP JUMPDEST PUSH1 0x0 PUSH1 0x20 DUP3 DUP5 SUB SLT ISZERO PUSH2 0x2CA9 JUMPI PUSH2 0x2CA8 PUSH2 0x2B33 JUMP JUMPDEST JUMPDEST PUSH1 0x0 PUSH2 0x2CB7 DUP5 DUP3 DUP6 ADD PUSH2 0x2C7E JUMP JUMPDEST SWAP2 POP POP SWAP3 SWAP2 POP POP JUMP JUMPDEST PUSH1 0x0 DUP2 ISZERO ISZERO SWAP1 POP SWAP2 SWAP1 POP JUMP JUMPDEST PUSH2 0x2CD5 DUP2 PUSH2 0x2CC0 JUMP JUMPDEST DUP3 MSTORE POP POP JUMP JUMPDEST PUSH1 0x0 PUSH1 0x20 DUP3 ADD SWAP1 POP PUSH2 0x2CF0 PUSH1 0x0 DUP4 ADD DUP5 PUSH2 0x2CCC JUMP JUMPDEST SWAP3 SWAP2 POP POP JUMP JUMPDEST PUSH1 0x0 PUSH1 0x20 DUP3 DUP5 SUB SLT ISZERO PUSH2 0x2D0C JUMPI PUSH2 0x2D0B PUSH2 0x2B33 JUMP JUMPDEST JUMPDEST PUSH1 0x0 PUSH2 0x2D1A DUP5 DUP3 DUP6 ADD PUSH2 0x2BBC JUMP JUMPDEST SWAP2 POP POP SWAP3 SWAP2 POP POP JUMP JUMPDEST PUSH1 0x0 DUP2 MLOAD SWAP1 POP SWAP2 SWAP1 POP JUMP JUMPDEST PUSH1 0x0 DUP3 DUP3 MSTORE PUSH1 0x20 DUP3 ADD SWAP1 POP SWAP3 SWAP2 POP POP JUMP JUMPDEST PUSH1 0x0 JUMPDEST DUP4 DUP2 LT ISZERO PUSH2 0x2D5D JUMPI DUP1 DUP3 ADD MLOAD DUP2 DUP5 ADD MSTORE PUSH1 0x20 DUP2 ADD SWAP1 POP PUSH2 0x2D42 JUMP JUMPDEST PUSH1 0x0 DUP5 DUP5 ADD MSTORE POP POP POP POP JUMP JUMPDEST PUSH1 0x0 PUSH1 0x1F NOT PUSH1 0x1F DUP4 ADD AND SWAP1 POP SWAP2 SWAP1 POP JUMP JUMPDEST PUSH1 0x0 PUSH2 0x2D85 DUP3 PUSH2 0x2D23 JUMP JUMPDEST PUSH2 0x2D8F DUP2 DUP6 PUSH2 0x2D2E JUMP JUMPDEST SWAP4 POP PUSH2 0x2D9F DUP2 DUP6 PUSH1 0x20 DUP7 ADD PUSH2 0x2D3F JUMP JUMPDEST PUSH2 0x2DA8 DUP2 PUSH2 0x2D69 JUMP JUMPDEST DUP5 ADD SWAP2 POP POP SWAP3 SWAP2 POP POP JUMP JUMPDEST PUSH1 0x0 PUSH1 0x20 DUP3 ADD SWAP1 POP DUP2 DUP2 SUB PUSH1 0x0 DUP4 ADD MSTORE PUSH2 0x2DCD DUP2 DUP5 PUSH2 0x2D7A JUMP JUMPDEST SWAP1 POP SWAP3 SWAP2 POP POP JUMP JUMPDEST PUSH1 0x0 PUSH4 0xFFFFFFFF DUP3 AND SWAP1 POP SWAP2 SWAP1 POP JUMP JUMPDEST PUSH2 0x2DEE DUP2 PUSH2 0x2DD5 JUMP JUMPDEST DUP2 EQ PUSH2 0x2DF9 JUMPI PUSH1 0x0 DUP1 REVERT JUMPDEST POP JUMP JUMPDEST PUSH1 0x0 DUP2 CALLDATALOAD SWAP1 POP PUSH2 0x2E0B DUP2 PUSH2 0x2DE5 JUMP JUMPDEST SWAP3 SWAP2 POP POP JUMP JUMPDEST PUSH1 0x0 DUP1 PUSH1 0x0 PUSH1 0x60 DUP5 DUP7 SUB SLT ISZERO PUSH2 0x2E2A JUMPI PUSH2 0x2E29 PUSH2 0x2B33 JUMP JUMPDEST JUMPDEST PUSH1 0x0 PUSH2 0x2E38 DUP7 DUP3 DUP8 ADD PUSH2 0x2BBC JUMP JUMPDEST SWAP4 POP POP PUSH1 0x20 PUSH2 0x2E49 DUP7 DUP3 DUP8 ADD PUSH2 0x2BBC JUMP JUMPDEST SWAP3 POP POP PUSH1 0x40 PUSH2 0x2E5A DUP7 DUP3 DUP8 ADD PUSH2 0x2DFC JUMP JUMPDEST SWAP2 POP POP SWAP3 POP SWAP3 POP SWAP3 JUMP JUMPDEST PUSH1 0x0 DUP1 REVERT JUMPDEST PUSH32 0x4E487B7100000000000000000000000000000000000000000000000000000000 PUSH1 0x0 MSTORE PUSH1 0x41 PUSH1 0x4 MSTORE PUSH1 0x24 PUSH1 0x0 REVERT JUMPDEST PUSH2 0x2EA1 DUP3 PUSH2 0x2D69 JUMP JUMPDEST DUP2 ADD DUP2 DUP2 LT PUSH8 0xFFFFFFFFFFFFFFFF DUP3 GT OR ISZERO PUSH2 0x2EC0 JUMPI PUSH2 0x2EBF PUSH2 0x2E69 JUMP JUMPDEST JUMPDEST DUP1 PUSH1 0x40 MSTORE POP POP POP JUMP JUMPDEST PUSH1 0x0 PUSH2 0x2ED3 PUSH2 0x2B29 JUMP JUMPDEST SWAP1 POP PUSH2 0x2EDF DUP3 DUP3 PUSH2 0x2E98 JUMP JUMPDEST SWAP2 SWAP1 POP JUMP JUMPDEST PUSH1 0x0 PUSH8 0xFFFFFFFFFFFFFFFF DUP3 GT ISZERO PUSH2 0x2EFF JUMPI PUSH2 0x2EFE PUSH2 0x2E69 JUMP JUMPDEST JUMPDEST PUSH1 0x20 DUP3 MUL SWAP1 POP PUSH1 0x20 DUP2 ADD SWAP1 POP SWAP2 SWAP1 POP JUMP JUMPDEST PUSH1 0x0 DUP1 REVERT JUMPDEST PUSH1 0x0 PUSH2 0x2F28 PUSH2 0x2F23 DUP5 PUSH2 0x2EE4 JUMP JUMPDEST PUSH2 0x2EC9 JUMP JUMPDEST SWAP1 POP DUP1 DUP4 DUP3 MSTORE PUSH1 0x20 DUP3 ADD SWAP1 POP PUSH1 0x20 DUP5 MUL DUP4 ADD DUP6 DUP2 GT ISZERO PUSH2 0x2F4B JUMPI PUSH2 0x2F4A PUSH2 0x2F10 JUMP JUMPDEST JUMPDEST DUP4 JUMPDEST DUP2 DUP2 LT ISZERO PUSH2 0x2F74 JUMPI DUP1 PUSH2 0x2F60 DUP9 DUP3 PUSH2 0x2BBC JUMP JUMPDEST DUP5 MSTORE PUSH1 0x20 DUP5 ADD SWAP4 POP POP PUSH1 0x20 DUP2 ADD SWAP1 POP PUSH2 0x2F4D JUMP JUMPDEST POP POP POP SWAP4 SWAP3 POP POP POP JUMP JUMPDEST PUSH1 0x0 DUP3 PUSH1 0x1F DUP4 ADD SLT PUSH2 0x2F93 JUMPI PUSH2 0x2F92 PUSH2 0x2E64 JUMP JUMPDEST JUMPDEST DUP2 CALLDATALOAD PUSH2 0x2FA3 DUP5 DUP3 PUSH1 0x20 DUP7 ADD PUSH2 0x2F15 JUMP JUMPDEST SWAP2 POP POP SWAP3 SWAP2 POP POP JUMP JUMPDEST PUSH1 0x0 DUP1 REVERT JUMPDEST PUSH1 0x0 PUSH8 0xFFFFFFFFFFFFFFFF DUP3 GT ISZERO PUSH2 0x2FCC JUMPI PUSH2 0x2FCB PUSH2 0x2E69 JUMP JUMPDEST JUMPDEST PUSH2 0x2FD5 DUP3 PUSH2 0x2D69 JUMP JUMPDEST SWAP1 POP PUSH1 0x20 DUP2 ADD SWAP1 POP SWAP2 SWAP1 POP JUMP JUMPDEST DUP3 DUP2 DUP4 CALLDATACOPY PUSH1 0x0 DUP4 DUP4 ADD MSTORE POP POP POP JUMP JUMPDEST PUSH1 0x0 PUSH2 0x3004 PUSH2 0x2FFF DUP5 PUSH2 0x2FB1 JUMP JUMPDEST PUSH2 0x2EC9 JUMP JUMPDEST SWAP1 POP DUP3 DUP2 MSTORE PUSH1 0x20 DUP2 ADD DUP5 DUP5 DUP5 ADD GT ISZERO PUSH2 0x3020 JUMPI PUSH2 0x301F PUSH2 0x2FAC JUMP JUMPDEST JUMPDEST PUSH2 0x302B DUP5 DUP3 DUP6 PUSH2 0x2FE2 JUMP JUMPDEST POP SWAP4 SWAP3 POP POP POP JUMP JUMPDEST PUSH1 0x0 DUP3 PUSH1 0x1F DUP4 ADD SLT PUSH2 0x3048 JUMPI PUSH2 0x3047 PUSH2 0x2E64 JUMP JUMPDEST JUMPDEST DUP2 CALLDATALOAD PUSH2 0x3058 DUP5 DUP3 PUSH1 0x20 DUP7 ADD PUSH2 0x2FF1 JUMP JUMPDEST SWAP2 POP POP SWAP3 SWAP2 POP POP JUMP JUMPDEST PUSH1 0x0 DUP1 PUSH1 0x0 DUP1 PUSH1 0x0 PUSH1 0xA0 DUP7 DUP9 SUB SLT ISZERO PUSH2 0x307D JUMPI PUSH2 0x307C PUSH2 0x2B33 JUMP JUMPDEST JUMPDEST PUSH1 0x0 PUSH2 0x308B DUP9 DUP3 DUP10 ADD PUSH2 0x2B86 JUMP JUMPDEST SWAP6 POP POP PUSH1 0x20 PUSH2 0x309C DUP9 DUP3 DUP10 ADD PUSH2 0x2B86 JUMP JUMPDEST SWAP5 POP POP PUSH1 0x40 DUP7 ADD CALLDATALOAD PUSH8 0xFFFFFFFFFFFFFFFF DUP2 GT ISZERO PUSH2 0x30BD JUMPI PUSH2 0x30BC PUSH2 0x2B38 JUMP JUMPDEST JUMPDEST PUSH2 0x30C9 DUP9 DUP3 DUP10 ADD PUSH2 0x2F7E JUMP JUMPDEST SWAP4 POP POP PUSH1 0x60 DUP7 ADD CALLDATALOAD PUSH8 0xFFFFFFFFFFFFFFFF DUP2 GT ISZERO PUSH2 0x30EA JUMPI PUSH2 0x30E9 PUSH2 0x2B38 JUMP JUMPDEST JUMPDEST PUSH2 0x30F6 DUP9 DUP3 DUP10 ADD PUSH2 0x2F7E JUMP JUMPDEST SWAP3 POP POP PUSH1 0x80 DUP7 ADD CALLDATALOAD PUSH8 0xFFFFFFFFFFFFFFFF DUP2 GT ISZERO PUSH2 0x3117 JUMPI PUSH2 0x3116 PUSH2 0x2B38 JUMP JUMPDEST JUMPDEST PUSH2 0x3123 DUP9 DUP3 DUP10 ADD PUSH2 0x3033 JUMP JUMPDEST SWAP2 POP POP SWAP3 SWAP6 POP SWAP3 SWAP6 SWAP1 SWAP4 POP JUMP JUMPDEST PUSH1 0x0 PUSH1 0xFF DUP3 AND SWAP1 POP SWAP2 SWAP1 POP JUMP JUMPDEST PUSH2 0x3146 DUP2 PUSH2 0x3130 JUMP JUMPDEST DUP2 EQ PUSH2 0x3151 JUMPI PUSH1 0x0 DUP1 REVERT JUMPDEST POP JUMP JUMPDEST PUSH1 0x0 DUP2 CALLDATALOAD SWAP1 POP PUSH2 0x3163 DUP2 PUSH2 0x313D JUMP JUMPDEST SWAP3 SWAP2 POP POP JUMP JUMPDEST PUSH1 0x0 DUP1 PUSH1 0x0 DUP1 PUSH1 0x0 PUSH1 0xA0 DUP7 DUP9 SUB SLT ISZERO PUSH2 0x3185 JUMPI PUSH2 0x3184 PUSH2 0x2B33 JUMP JUMPDEST JUMPDEST PUSH1 0x0 PUSH2 0x3193 DUP9 DUP3 DUP10 ADD PUSH2 0x2BBC JUMP JUMPDEST SWAP6 POP POP PUSH1 0x20 PUSH2 0x31A4 DUP9 DUP3 DUP10 ADD PUSH2 0x2BBC JUMP JUMPDEST SWAP5 POP POP PUSH1 0x40 PUSH2 0x31B5 DUP9 DUP3 DUP10 ADD PUSH2 0x3154 JUMP JUMPDEST SWAP4 POP POP PUSH1 0x60 PUSH2 0x31C6 DUP9 DUP3 DUP10 ADD PUSH2 0x2B86 JUMP JUMPDEST SWAP3 POP POP PUSH1 0x80 PUSH2 0x31D7 DUP9 DUP3 DUP10 ADD PUSH2 0x2DFC JUMP JUMPDEST SWAP2 POP POP SWAP3 SWAP6 POP SWAP3 SWAP6 SWAP1 SWAP4 POP JUMP JUMPDEST PUSH1 0x0 PUSH8 0xFFFFFFFFFFFFFFFF DUP3 GT ISZERO PUSH2 0x31FF JUMPI PUSH2 0x31FE PUSH2 0x2E69 JUMP JUMPDEST JUMPDEST PUSH1 0x20 DUP3 MUL SWAP1 POP PUSH1 0x20 DUP2 ADD SWAP1 POP SWAP2 SWAP1 POP JUMP JUMPDEST PUSH1 0x0 PUSH2 0x3223 PUSH2 0x321E DUP5 PUSH2 0x31E4 JUMP JUMPDEST PUSH2 0x2EC9 JUMP JUMPDEST SWAP1 POP DUP1 DUP4 DUP3 MSTORE PUSH1 0x20 DUP3 ADD SWAP1 POP PUSH1 0x20 DUP5 MUL DUP4 ADD DUP6 DUP2 GT ISZERO PUSH2 0x3246 JUMPI PUSH2 0x3245 PUSH2 0x2F10 JUMP JUMPDEST JUMPDEST DUP4 JUMPDEST DUP2 DUP2 LT ISZERO PUSH2 0x326F JUMPI DUP1 PUSH2 0x325B DUP9 DUP3 PUSH2 0x2B86 JUMP JUMPDEST DUP5 MSTORE PUSH1 0x20 DUP5 ADD SWAP4 POP POP PUSH1 0x20 DUP2 ADD SWAP1 POP PUSH2 0x3248 JUMP JUMPDEST POP POP POP SWAP4 SWAP3 POP POP POP JUMP JUMPDEST PUSH1 0x0 DUP3 PUSH1 0x1F DUP4 ADD SLT PUSH2 0x328E JUMPI PUSH2 0x328D PUSH2 0x2E64 JUMP JUMPDEST JUMPDEST DUP2 CALLDATALOAD PUSH2 0x329E DUP5 DUP3 PUSH1 0x20 DUP7 ADD PUSH2 0x3210 JUMP JUMPDEST SWAP2 POP POP SWAP3 SWAP2 POP POP JUMP JUMPDEST PUSH1 0x0 DUP1 PUSH1 0x40 DUP4 DUP6 SUB SLT ISZERO PUSH2 0x32BE JUMPI PUSH2 0x32BD PUSH2 0x2B33 JUMP JUMPDEST JUMPDEST PUSH1 0x0 DUP4 ADD CALLDATALOAD PUSH8 0xFFFFFFFFFFFFFFFF DUP2 GT ISZERO PUSH2 0x32DC JUMPI PUSH2 0x32DB PUSH2 0x2B38 JUMP JUMPDEST JUMPDEST PUSH2 0x32E8 DUP6 DUP3 DUP7 ADD PUSH2 0x3279 JUMP JUMPDEST SWAP3 POP POP PUSH1 0x20 DUP4 ADD CALLDATALOAD PUSH8 0xFFFFFFFFFFFFFFFF DUP2 GT ISZERO PUSH2 0x3309 JUMPI PUSH2 0x3308 PUSH2 0x2B38 JUMP JUMPDEST JUMPDEST PUSH2 0x3315 DUP6 DUP3 DUP7 ADD PUSH2 0x2F7E JUMP JUMPDEST SWAP2 POP POP SWAP3 POP SWAP3 SWAP1 POP JUMP JUMPDEST PUSH1 0x0 DUP2 MLOAD SWAP1 POP SWAP2 SWAP1 POP JUMP JUMPDEST PUSH1 0x0 DUP3 DUP3 MSTORE PUSH1 0x20 DUP3 ADD SWAP1 POP SWAP3 SWAP2 POP POP JUMP JUMPDEST PUSH1 0x0 DUP2 SWAP1 POP PUSH1 0x20 DUP3 ADD SWAP1 POP SWAP2 SWAP1 POP JUMP JUMPDEST PUSH2 0x3354 DUP2 PUSH2 0x2B9B JUMP JUMPDEST DUP3 MSTORE POP POP JUMP JUMPDEST PUSH1 0x0 PUSH2 0x3366 DUP4 DUP4 PUSH2 0x334B JUMP JUMPDEST PUSH1 0x20 DUP4 ADD SWAP1 POP SWAP3 SWAP2 POP POP JUMP JUMPDEST PUSH1 0x0 PUSH1 0x20 DUP3 ADD SWAP1 POP SWAP2 SWAP1 POP JUMP JUMPDEST PUSH1 0x0 PUSH2 0x338A DUP3 PUSH2 0x331F JUMP JUMPDEST PUSH2 0x3394 DUP2 DUP6 PUSH2 0x332A JUMP JUMPDEST SWAP4 POP PUSH2 0x339F DUP4 PUSH2 0x333B JUMP JUMPDEST DUP1 PUSH1 0x0 JUMPDEST DUP4 DUP2 LT ISZERO PUSH2 0x33D0 JUMPI DUP2 MLOAD PUSH2 0x33B7 DUP9 DUP3 PUSH2 0x335A JUMP JUMPDEST SWAP8 POP PUSH2 0x33C2 DUP4 PUSH2 0x3372 JUMP JUMPDEST SWAP3 POP POP PUSH1 0x1 DUP2 ADD SWAP1 POP PUSH2 0x33A3 JUMP JUMPDEST POP DUP6 SWAP4 POP POP POP POP SWAP3 SWAP2 POP POP JUMP JUMPDEST PUSH1 0x0 PUSH1 0x20 DUP3 ADD SWAP1 POP DUP2 DUP2 SUB PUSH1 0x0 DUP4 ADD MSTORE PUSH2 0x33F7 DUP2 DUP5 PUSH2 0x337F JUMP JUMPDEST SWAP1 POP SWAP3 SWAP2 POP POP JUMP JUMPDEST PUSH1 0x0 DUP1 PUSH1 0x0 PUSH1 0x60 DUP5 DUP7 SUB SLT ISZERO PUSH2 0x3418 JUMPI PUSH2 0x3417 PUSH2 0x2B33 JUMP JUMPDEST JUMPDEST PUSH1 0x0 PUSH2 0x3426 DUP7 DUP3 DUP8 ADD PUSH2 0x2B86 JUMP JUMPDEST SWAP4 POP POP PUSH1 0x20 DUP5 ADD CALLDATALOAD PUSH8 0xFFFFFFFFFFFFFFFF DUP2 GT ISZERO PUSH2 0x3447 JUMPI PUSH2 0x3446 PUSH2 0x2B38 JUMP JUMPDEST JUMPDEST PUSH2 0x3453 DUP7 DUP3 DUP8 ADD PUSH2 0x2F7E JUMP JUMPDEST SWAP3 POP POP PUSH1 0x40 DUP5 ADD CALLDATALOAD PUSH8 0xFFFFFFFFFFFFFFFF DUP2 GT ISZERO PUSH2 0x3474 JUMPI PUSH2 0x3473 PUSH2 0x2B38 JUMP JUMPDEST JUMPDEST PUSH2 0x3480 DUP7 DUP3 DUP8 ADD PUSH2 0x2F7E JUMP JUMPDEST SWAP2 POP POP SWAP3 POP SWAP3 POP SWAP3 JUMP JUMPDEST PUSH2 0x3493 DUP2 PUSH2 0x2DD5 JUMP JUMPDEST DUP3 MSTORE POP POP JUMP JUMPDEST PUSH1 0x0 PUSH1 0x20 DUP3 ADD SWAP1 POP PUSH2 0x34AE PUSH1 0x0 DUP4 ADD DUP5 PUSH2 0x348A JUMP JUMPDEST SWAP3 SWAP2 POP POP JUMP JUMPDEST PUSH2 0x34BD DUP2 PUSH2 0x2B5D JUMP JUMPDEST DUP3 MSTORE POP POP JUMP JUMPDEST PUSH1 0x0 PUSH1 0x20 DUP3 ADD SWAP1 POP PUSH2 0x34D8 PUSH1 0x0 DUP4 ADD DUP5 PUSH2 0x34B4 JUMP JUMPDEST SWAP3 SWAP2 POP POP JUMP JUMPDEST PUSH2 0x34E7 DUP2 PUSH2 0x2CC0 JUMP JUMPDEST DUP2 EQ PUSH2 0x34F2 JUMPI PUSH1 0x0 DUP1 REVERT JUMPDEST POP JUMP JUMPDEST PUSH1 0x0 DUP2 CALLDATALOAD SWAP1 POP PUSH2 0x3504 DUP2 PUSH2 0x34DE JUMP JUMPDEST SWAP3 SWAP2 POP POP JUMP JUMPDEST PUSH1 0x0 DUP1 PUSH1 0x40 DUP4 DUP6 SUB SLT ISZERO PUSH2 0x3521 JUMPI PUSH2 0x3520 PUSH2 0x2B33 JUMP JUMPDEST JUMPDEST PUSH1 0x0 PUSH2 0x352F DUP6 DUP3 DUP7 ADD PUSH2 0x2B86 JUMP JUMPDEST SWAP3 POP POP PUSH1 0x20 PUSH2 0x3540 DUP6 DUP3 DUP7 ADD PUSH2 0x34F5 JUMP JUMPDEST SWAP2 POP POP SWAP3 POP SWAP3 SWAP1 POP JUMP JUMPDEST PUSH1 0x0 DUP1 PUSH1 0x40 DUP4 DUP6 SUB SLT ISZERO PUSH2 0x3561 JUMPI PUSH2 0x3560 PUSH2 0x2B33 JUMP JUMPDEST JUMPDEST PUSH1 0x0 PUSH2 0x356F DUP6 DUP3 DUP7 ADD PUSH2 0x2BBC JUMP JUMPDEST SWAP3 POP POP PUSH1 0x20 PUSH2 0x3580 DUP6 DUP3 DUP7 ADD PUSH2 0x2DFC JUMP JUMPDEST SWAP2 POP POP SWAP3 POP SWAP3 SWAP1 POP JUMP JUMPDEST PUSH2 0x3593 DUP2 PUSH2 0x3130 JUMP JUMPDEST DUP3 MSTORE POP POP JUMP JUMPDEST PUSH1 0x4 DUP2 LT PUSH2 0x35AA JUMPI PUSH2 0x35A9 PUSH2 0x2AFA JUMP JUMPDEST JUMPDEST POP JUMP JUMPDEST PUSH1 0x0 DUP2 SWAP1 POP PUSH2 0x35BB DUP3 PUSH2 0x3599 JUMP JUMPDEST SWAP2 SWAP1 POP JUMP JUMPDEST PUSH1 0x0 PUSH2 0x35CB DUP3 PUSH2 0x35AD JUMP JUMPDEST SWAP1 POP SWAP2 SWAP1 POP JUMP JUMPDEST PUSH2 0x35DB DUP2 PUSH2 0x35C0 JUMP JUMPDEST DUP3 MSTORE POP POP JUMP JUMPDEST PUSH1 0x0 PUSH2 0x180 DUP3 ADD SWAP1 POP PUSH2 0x35F7 PUSH1 0x0 DUP4 ADD DUP16 PUSH2 0x2C11 JUMP JUMPDEST PUSH2 0x3604 PUSH1 0x20 DUP4 ADD DUP15 PUSH2 0x2C11 JUMP JUMPDEST PUSH2 0x3611 PUSH1 0x40 DUP4 ADD DUP14 PUSH2 0x2C11 JUMP JUMPDEST PUSH2 0x361E PUSH1 0x60 DUP4 ADD DUP13 PUSH2 0x2C11 JUMP JUMPDEST PUSH2 0x362B PUSH1 0x80 DUP4 ADD DUP12 PUSH2 0x2C11 JUMP JUMPDEST PUSH2 0x3638 PUSH1 0xA0 DUP4 ADD DUP11 PUSH2 0x2C11 JUMP JUMPDEST PUSH2 0x3645 PUSH1 0xC0 DUP4 ADD DUP10 PUSH2 0x2C11 JUMP JUMPDEST PUSH2 0x3652 PUSH1 0xE0 DUP4 ADD DUP9 PUSH2 0x358A JUMP JUMPDEST PUSH2 0x3660 PUSH2 0x100 DUP4 ADD DUP8 PUSH2 0x358A JUMP JUMPDEST PUSH2 0x366E PUSH2 0x120 DUP4 ADD DUP7 PUSH2 0x358A JUMP JUMPDEST PUSH2 0x367C PUSH2 0x140 DUP4 ADD DUP6 PUSH2 0x34B4 JUMP JUMPDEST PUSH2 0x368A PUSH2 0x160 DUP4 ADD DUP5 PUSH2 0x35D2 JUMP JUMPDEST SWAP14 SWAP13 POP POP POP POP POP POP POP POP POP POP POP POP POP JUMP JUMPDEST PUSH1 0x2 DUP2 LT PUSH2 0x36AC JUMPI PUSH2 0x36AB PUSH2 0x2AFA JUMP JUMPDEST JUMPDEST POP JUMP JUMPDEST PUSH1 0x0 DUP2 SWAP1 POP PUSH2 0x36BD DUP3 PUSH2 0x369B JUMP JUMPDEST SWAP2 SWAP1 POP JUMP JUMPDEST PUSH1 0x0 PUSH2 0x36CD DUP3 PUSH2 0x36AF JUMP JUMPDEST SWAP1 POP SWAP2 SWAP1 POP JUMP JUMPDEST PUSH2 0x36DD DUP2 PUSH2 0x36C2 JUMP JUMPDEST DUP3 MSTORE POP POP JUMP JUMPDEST PUSH1 0x0 PUSH1 0x20 DUP3 ADD SWAP1 POP PUSH2 0x36F8 PUSH1 0x0 DUP4 ADD DUP5 PUSH2 0x36D4 JUMP JUMPDEST SWAP3 SWAP2 POP POP JUMP JUMPDEST PUSH1 0x0 DUP1 PUSH1 0x40 DUP4 DUP6 SUB SLT ISZERO PUSH2 0x3715 JUMPI PUSH2 0x3714 PUSH2 0x2B33 JUMP JUMPDEST JUMPDEST PUSH1 0x0 PUSH2 0x3723 DUP6 DUP3 DUP7 ADD PUSH2 0x2B86 JUMP JUMPDEST SWAP3 POP POP PUSH1 0x20 PUSH2 0x3734 DUP6 DUP3 DUP7 ADD PUSH2 0x2B86 JUMP JUMPDEST SWAP2 POP POP SWAP3 POP SWAP3 SWAP1 POP JUMP JUMPDEST PUSH1 0x0 DUP1 PUSH1 0x0 DUP1 PUSH1 0x0 PUSH1 0xA0 DUP7 DUP9 SUB SLT ISZERO PUSH2 0x375A JUMPI PUSH2 0x3759 PUSH2 0x2B33 JUMP JUMPDEST JUMPDEST PUSH1 0x0 PUSH2 0x3768 DUP9 DUP3 DUP10 ADD PUSH2 0x2B86 JUMP JUMPDEST SWAP6 POP POP PUSH1 0x20 PUSH2 0x3779 DUP9 DUP3 DUP10 ADD PUSH2 0x2B86 JUMP JUMPDEST SWAP5 POP POP PUSH1 0x40 PUSH2 0x378A DUP9 DUP3 DUP10 ADD PUSH2 0x2BBC JUMP JUMPDEST SWAP4 POP POP PUSH1 0x60 PUSH2 0x379B DUP9 DUP3 DUP10 ADD PUSH2 0x2BBC JUMP JUMPDEST SWAP3 POP POP PUSH1 0x80 DUP7 ADD CALLDATALOAD PUSH8 0xFFFFFFFFFFFFFFFF DUP2 GT ISZERO PUSH2 0x37BC JUMPI PUSH2 0x37BB PUSH2 0x2B38 JUMP JUMPDEST JUMPDEST PUSH2 0x37C8 DUP9 DUP3 DUP10 ADD PUSH2 0x3033 JUMP JUMPDEST SWAP2 POP POP SWAP3 SWAP6 POP SWAP3 SWAP6 SWAP1 SWAP4 POP JUMP JUMPDEST PUSH1 0x0 DUP1 PUSH1 0x0 PUSH1 0x60 DUP5 DUP7 SUB SLT ISZERO PUSH2 0x37EE JUMPI PUSH2 0x37ED PUSH2 0x2B33 JUMP JUMPDEST JUMPDEST PUSH1 0x0 PUSH2 0x37FC DUP7 DUP3 DUP8 ADD PUSH2 0x2B86 JUMP JUMPDEST SWAP4 POP POP PUSH1 0x20 PUSH2 0x380D DUP7 DUP3 DUP8 ADD PUSH2 0x2BBC JUMP JUMPDEST SWAP3 POP POP PUSH1 0x40 PUSH2 0x381E DUP7 DUP3 DUP8 ADD PUSH2 0x2BBC JUMP JUMPDEST SWAP2 POP POP SWAP3 POP SWAP3 POP SWAP3 JUMP JUMPDEST PUSH32 0x4D7573742073656E6420657468657220746F2062757920746F6B656E732E0000 PUSH1 0x0 DUP3 ADD MSTORE POP JUMP JUMPDEST PUSH1 0x0 PUSH2 0x385E PUSH1 0x1E DUP4 PUSH2 0x2D2E JUMP JUMPDEST SWAP2 POP PUSH2 0x3869 DUP3 PUSH2 0x3828 JUMP JUMPDEST PUSH1 0x20 DUP3 ADD SWAP1 POP SWAP2 SWAP1 POP JUMP JUMPDEST PUSH1 0x0 PUSH1 0x20 DUP3 ADD SWAP1 POP DUP2 DUP2 SUB PUSH1 0x0 DUP4 ADD MSTORE PUSH2 0x388D DUP2 PUSH2 0x3851 JUMP JUMPDEST SWAP1 POP SWAP2 SWAP1 POP JUMP JUMPDEST PUSH32 0x4E487B7100000000000000000000000000000000000000000000000000000000 PUSH1 0x0 MSTORE PUSH1 0x11 PUSH1 0x4 MSTORE PUSH1 0x24 PUSH1 0x0 REVERT JUMPDEST PUSH1 0x0 PUSH2 0x38CE DUP3 PUSH2 0x2B9B JUMP JUMPDEST SWAP2 POP PUSH2 0x38D9 DUP4 PUSH2 0x2B9B JUMP JUMPDEST SWAP3 POP DUP3 DUP3 ADD SWAP1 POP DUP1 DUP3 GT ISZERO PUSH2 0x38F1 JUMPI PUSH2 0x38F0 PUSH2 0x3894 JUMP JUMPDEST JUMPDEST SWAP3 SWAP2 POP POP JUMP JUMPDEST PUSH32 0x4E487B7100000000000000000000000000000000000000000000000000000000 PUSH1 0x0 MSTORE PUSH1 0x12 PUSH1 0x4 MSTORE PUSH1 0x24 PUSH1 0x0 REVERT JUMPDEST PUSH1 0x0 PUSH2 0x3931 DUP3 PUSH2 0x2B9B JUMP JUMPDEST SWAP2 POP PUSH2 0x393C DUP4 PUSH2 0x2B9B JUMP JUMPDEST SWAP3 POP DUP3 PUSH2 0x394C JUMPI PUSH2 0x394B PUSH2 0x38F7 JUMP JUMPDEST JUMPDEST DUP3 DUP3 DIV SWAP1 POP SWAP3 SWAP2 POP POP JUMP JUMPDEST PUSH1 0x0 PUSH2 0x3962 DUP3 PUSH2 0x2B9B JUMP JUMPDEST SWAP2 POP PUSH2 0x396D DUP4 PUSH2 0x2B9B JUMP JUMPDEST SWAP3 POP DUP3 DUP3 MUL PUSH2 0x397B DUP2 PUSH2 0x2B9B JUMP JUMPDEST SWAP2 POP DUP3 DUP3 DIV DUP5 EQ DUP4 ISZERO OR PUSH2 0x3992 JUMPI PUSH2 0x3991 PUSH2 0x3894 JUMP JUMPDEST JUMPDEST POP SWAP3 SWAP2 POP POP JUMP JUMPDEST PUSH32 0x4E487B7100000000000000000000000000000000000000000000000000000000 PUSH1 0x0 MSTORE PUSH1 0x22 PUSH1 0x4 MSTORE PUSH1 0x24 PUSH1 0x0 REVERT JUMPDEST PUSH1 0x0 PUSH1 0x2 DUP3 DIV SWAP1 POP PUSH1 0x1 DUP3 AND DUP1 PUSH2 0x39E0 JUMPI PUSH1 0x7F DUP3 AND SWAP2 POP JUMPDEST PUSH1 0x20 DUP3 LT DUP2 SUB PUSH2 0x39F3 JUMPI PUSH2 0x39F2 PUSH2 0x3999 JUMP JUMPDEST JUMPDEST POP SWAP2 SWAP1 POP JUMP JUMPDEST PUSH1 0x0 PUSH1 0x40 DUP3 ADD SWAP1 POP PUSH2 0x3A0E PUSH1 0x0 DUP4 ADD DUP6 PUSH2 0x34B4 JUMP JUMPDEST PUSH2 0x3A1B PUSH1 0x20 DUP4 ADD DUP5 PUSH2 0x34B4 JUMP JUMPDEST SWAP4 SWAP3 POP POP POP JUMP JUMPDEST PUSH1 0x0 PUSH2 0x3A2D DUP3 PUSH2 0x3130 JUMP JUMPDEST SWAP2 POP PUSH2 0x3A38 DUP4 PUSH2 0x3130 JUMP JUMPDEST SWAP3 POP DUP3 DUP3 MUL PUSH2 0x3A46 DUP2 PUSH2 0x3130 JUMP JUMPDEST SWAP2 POP DUP1 DUP3 EQ PUSH2 0x3A58 JUMPI PUSH2 0x3A57 PUSH2 0x3894 JUMP JUMPDEST JUMPDEST POP SWAP3 SWAP2 POP POP JUMP JUMPDEST PUSH1 0x0 PUSH3 0xFFFFFF DUP3 AND SWAP1 POP SWAP2 SWAP1 POP JUMP JUMPDEST PUSH1 0x0 PUSH2 0x3A79 DUP3 PUSH2 0x3A5F JUMP JUMPDEST SWAP2 POP PUSH2 0x3A84 DUP4 PUSH2 0x3A5F JUMP JUMPDEST SWAP3 POP DUP3 DUP3 MUL PUSH2 0x3A92 DUP2 PUSH2 0x3A5F JUMP JUMPDEST SWAP2 POP DUP1 DUP3 EQ PUSH2 0x3AA4 JUMPI PUSH2 0x3AA3 PUSH2 0x3894 JUMP JUMPDEST JUMPDEST POP SWAP3 SWAP2 POP POP JUMP JUMPDEST PUSH1 0x0 PUSH2 0x3AB6 DUP3 PUSH2 0x2B9B JUMP JUMPDEST SWAP2 POP PUSH2 0x3AC1 DUP4 PUSH2 0x2B9B JUMP JUMPDEST SWAP3 POP DUP3 DUP3 SUB SWAP1 POP DUP2 DUP2 GT ISZERO PUSH2 0x3AD9 JUMPI PUSH2 0x3AD8 PUSH2 0x3894 JUMP JUMPDEST JUMPDEST SWAP3 SWAP2 POP POP JUMP JUMPDEST PUSH1 0x0 PUSH1 0x40 DUP3 ADD SWAP1 POP PUSH2 0x3AF4 PUSH1 0x0 DUP4 ADD DUP6 PUSH2 0x2C11 JUMP JUMPDEST PUSH2 0x3B01 PUSH1 0x20 DUP4 ADD DUP5 PUSH2 0x2C11 JUMP JUMPDEST SWAP4 SWAP3 POP POP POP JUMP JUMPDEST PUSH32 0x4E487B7100000000000000000000000000000000000000000000000000000000 PUSH1 0x0 MSTORE PUSH1 0x32 PUSH1 0x4 MSTORE PUSH1 0x24 PUSH1 0x0 REVERT JUMPDEST PUSH1 0x0 PUSH2 0x3B42 DUP3 PUSH2 0x2B9B JUMP JUMPDEST SWAP2 POP PUSH32 0xFFFFFFFFFFFFFFFFFFFFFFFFFFFFFFFFFFFFFFFFFFFFFFFFFFFFFFFFFFFFFFFF DUP3 SUB PUSH2 0x3B74 JUMPI PUSH2 0x3B73 PUSH2 0x3894 JUMP JUMPDEST JUMPDEST PUSH1 0x1 DUP3 ADD SWAP1 POP SWAP2 SWAP1 POP JUMP JUMPDEST PUSH1 0x0 PUSH2 0x3B8A DUP3 PUSH2 0x3130 JUMP JUMPDEST SWAP2 POP PUSH2 0x3B95 DUP4 PUSH2 0x3130 JUMP JUMPDEST SWAP3 POP DUP3 DUP3 SUB SWAP1 POP PUSH1 0xFF DUP2 GT ISZERO PUSH2 0x3BAE JUMPI PUSH2 0x3BAD PUSH2 0x3894 JUMP JUMPDEST JUMPDEST SWAP3 SWAP2 POP POP JUMP JUMPDEST PUSH1 0x0 DUP2 MLOAD SWAP1 POP SWAP2 SWAP1 POP JUMP JUMPDEST PUSH1 0x0 DUP3 DUP3 MSTORE PUSH1 0x20 DUP3 ADD SWAP1 POP SWAP3 SWAP2 POP POP JUMP JUMPDEST PUSH1 0x0 PUSH2 0x3BDB DUP3 PUSH2 0x3BB4 JUMP JUMPDEST PUSH2 0x3BE5 DUP2 DUP6 PUSH2 0x3BBF JUMP JUMPDEST SWAP4 POP PUSH2 0x3BF5 DUP2 DUP6 PUSH1 0x20 DUP7 ADD PUSH2 0x2D3F JUMP JUMPDEST PUSH2 0x3BFE DUP2 PUSH2 0x2D69 JUMP JUMPDEST DUP5 ADD SWAP2 POP POP SWAP3 SWAP2 POP POP JUMP JUMPDEST PUSH1 0x0 PUSH1 0xA0 DUP3 ADD SWAP1 POP PUSH2 0x3C1E PUSH1 0x0 DUP4 ADD DUP9 PUSH2 0x34B4 JUMP JUMPDEST PUSH2 0x3C2B PUSH1 0x20 DUP4 ADD DUP8 PUSH2 0x34B4 JUMP JUMPDEST PUSH2 0x3C38 PUSH1 0x40 DUP4 ADD DUP7 PUSH2 0x2C11 JUMP JUMPDEST PUSH2 0x3C45 PUSH1 0x60 DUP4 ADD DUP6 PUSH2 0x2C11 JUMP JUMPDEST DUP2 DUP2 SUB PUSH1 0x80 DUP4 ADD MSTORE PUSH2 0x3C57 DUP2 DUP5 PUSH2 0x3BD0 JUMP JUMPDEST SWAP1 POP SWAP7 SWAP6 POP POP POP POP POP POP JUMP JUMPDEST PUSH1 0x0 DUP2 MLOAD SWAP1 POP PUSH2 0x3C72 DUP2 PUSH2 0x2C67 JUMP JUMPDEST SWAP3 SWAP2 POP POP JUMP JUMPDEST PUSH1 0x0 PUSH1 0x20 DUP3 DUP5 SUB SLT ISZERO PUSH2 0x3C8E JUMPI PUSH2 0x3C8D PUSH2 0x2B33 JUMP JUMPDEST JUMPDEST PUSH1 0x0 PUSH2 0x3C9C DUP5 DUP3 DUP6 ADD PUSH2 0x3C63 JUMP JUMPDEST SWAP2 POP POP SWAP3 SWAP2 POP POP JUMP JUMPDEST PUSH1 0x0 PUSH1 0xA0 DUP3 ADD SWAP1 POP PUSH2 0x3CBA PUSH1 0x0 DUP4 ADD DUP9 PUSH2 0x34B4 JUMP JUMPDEST PUSH2 0x3CC7 PUSH1 0x20 DUP4 ADD DUP8 PUSH2 0x34B4 JUMP JUMPDEST DUP2 DUP2 SUB PUSH1 0x40 DUP4 ADD MSTORE PUSH2 0x3CD9 DUP2 DUP7 PUSH2 0x337F JUMP JUMPDEST SWAP1 POP DUP2 DUP2 SUB PUSH1 0x60 DUP4 ADD MSTORE PUSH2 0x3CED DUP2 DUP6 PUSH2 0x337F JUMP JUMPDEST SWAP1 POP DUP2 DUP2 SUB PUSH1 0x80 DUP4 ADD MSTORE PUSH2 0x3D01 DUP2 DUP5 PUSH2 0x3BD0 JUMP JUMPDEST SWAP1 POP SWAP7 SWAP6 POP POP POP POP POP POP JUMP JUMPDEST PUSH1 0x0 PUSH1 0x80 DUP3 ADD SWAP1 POP PUSH2 0x3D22 PUSH1 0x0 DUP4 ADD DUP8 PUSH2 0x34B4 JUMP JUMPDEST PUSH2 0x3D2F PUSH1 0x20 DUP4 ADD DUP7 PUSH2 0x2C11 JUMP JUMPDEST PUSH2 0x3D3C PUSH1 0x40 DUP4 ADD DUP6 PUSH2 0x2C11 JUMP JUMPDEST PUSH2 0x3D49 PUSH1 0x60 DUP4 ADD DUP5 PUSH2 0x2C11 JUMP JUMPDEST SWAP6 SWAP5 POP POP POP POP POP JUMP JUMPDEST PUSH1 0x0 PUSH1 0x40 DUP3 ADD SWAP1 POP DUP2 DUP2 SUB PUSH1 0x0 DUP4 ADD MSTORE PUSH2 0x3D6C DUP2 DUP6 PUSH2 0x337F JUMP JUMPDEST SWAP1 POP DUP2 DUP2 SUB PUSH1 0x20 DUP4 ADD MSTORE PUSH2 0x3D80 DUP2 DUP5 PUSH2 0x337F JUMP JUMPDEST SWAP1 POP SWAP4 SWAP3 POP POP POP JUMP INVALID LOG2 PUSH5 0x6970667358 0x22 SLT KECCAK256 DUP5 POP 0xB4 0x2F 0xC4 0xDE SELFBALANCE GASLIMIT DUP15 ADDRESS SWAP11 SWAP13 JUMPI 0xC2 DUP9 AND DUP6 0xCB 0xCE 0xC5 TIMESTAMP 0x4E PUSH15 0xAF6BC0AEAA50D9937A64736F6C6343 STOP ADDMOD ISZERO STOP CALLER "},"methodIdentifiers":{"_owner()":"b2bdfa7b","balanceOf(address,uint256)":"00fdd58e","balanceOfBatch(address[],uint256[])":"4e1273f4","burn(address,uint256,uint256)":"f5298aca","burnBatch(address,uint256[],uint256[])":"6b20c454","buyLong()":"08801c20","buyShort()":"000198da","calculateBuyReturn(uint256,uint256,uint32)":"24ae021c","calculateLongSpotPrice(uint256)":"e37b7a7a","calculatePrice(uint256,uint32)":"c4139441","calculateShortSpotPrice(uint256)":"042c19e7","checkTenure()":"3073d0cf","exists(uint256)":"4f558e79","foreclose()":"eb6266e2","init(uint256,uint256,uint8,address,uint32)":"3a31f9da","isApprovedForAll(address,address)":"e985e9c5","owner()":"8da5cb5b","payEmi()":"7ab6d638","poolBalance()":"96365d44","proposalStorage()":"cbced760","safeBatchTransferFrom(address,address,uint256[],uint256[],bytes)":"2eb2c2d6","safeTransferFrom(address,address,uint256,uint256,bytes)":"f242432a","scale()":"f51e181a","sellLong()":"881fa170","sellShort()":"74f7ef4b","setApprovalForAll(address,bool)":"a22cb465","slope()":"83caf275","supportsInterface(bytes4)":"01ffc9a7","totalSupply()":"18160ddd","totalSupply(uint256)":"bd85b039","uri(uint256)":"0e89341c","winner()":"dfbf53ae","withdraw()":"3ccfd60b"}}}}}