{
  "_format": "hh-sol-artifact-1",
  "contractName": "HelsinkiFactory",
  "sourceName": "contracts/Factory.sol",
  "abi": [
    {
      "inputs": [],
      "stateMutability": "nonpayable",
      "type": "constructor"
    },
    {
      "inputs": [
        {
          "internalType": "address",
          "name": "owner",
          "type": "address"
        }
      ],
      "name": "OwnableInvalidOwner",
      "type": "error"
    },
    {
      "inputs": [
        {
          "internalType": "address",
          "name": "account",
          "type": "address"
        }
      ],
      "name": "OwnableUnauthorizedAccount",
      "type": "error"
    },
    {
      "anonymous": false,
      "inputs": [
        {
          "indexed": true,
          "internalType": "address",
          "name": "previousOwner",
          "type": "address"
        },
        {
          "indexed": true,
          "internalType": "address",
          "name": "newOwner",
          "type": "address"
        }
      ],
      "name": "OwnershipTransferred",
      "type": "event"
    },
    {
      "inputs": [
        {
          "internalType": "uint256",
          "name": "amount",
          "type": "uint256"
        },
        {
          "internalType": "uint256",
          "name": "security",
          "type": "uint256"
        },
        {
          "internalType": "uint8",
          "name": "tenure",
          "type": "uint8"
        },
        {
          "internalType": "address",
          "name": "walletAddress",
          "type": "address"
        },
        {
          "internalType": "uint256",
          "name": "slope",
          "type": "uint256"
        }
      ],
      "name": "createProposal",
      "outputs": [],
      "stateMutability": "nonpayable",
      "type": "function"
    },
    {
      "inputs": [],
      "name": "helsinkiAddress",
      "outputs": [
        {
          "internalType": "address",
          "name": "",
          "type": "address"
        }
      ],
      "stateMutability": "view",
      "type": "function"
    },
    {
      "inputs": [],
      "name": "owner",
      "outputs": [
        {
          "internalType": "address",
          "name": "",
          "type": "address"
        }
      ],
      "stateMutability": "view",
      "type": "function"
    },
    {
      "inputs": [
        {
          "internalType": "address",
          "name": "",
          "type": "address"
        }
      ],
      "name": "proposals",
      "outputs": [
        {
          "internalType": "address",
          "name": "",
          "type": "address"
        }
      ],
      "stateMutability": "view",
      "type": "function"
    },
    {
      "inputs": [],
      "name": "renounceOwnership",
      "outputs": [],
      "stateMutability": "nonpayable",
      "type": "function"
    },
    {
      "inputs": [
        {
          "internalType": "address",
          "name": "_address",
          "type": "address"
        }
      ],
      "name": "setBetAddress",
      "outputs": [],
      "stateMutability": "nonpayable",
      "type": "function"
    },
    {
      "inputs": [
        {
          "internalType": "address",
          "name": "masterCopy",
          "type": "address"
        }
      ],
      "name": "setMaster",
      "outputs": [],
      "stateMutability": "nonpayable",
      "type": "function"
    },
    {
      "inputs": [
        {
          "internalType": "address",
          "name": "newOwner",
          "type": "address"
        }
      ],
      "name": "transferOwnership",
      "outputs": [],
      "stateMutability": "nonpayable",
      "type": "function"
    }
  ],
  "bytecode": "0x608060405234801561001057600080fd5b5033600073ffffffffffffffffffffffffffffffffffffffff168173ffffffffffffffffffffffffffffffffffffffff16036100845760006040517f1e4fbdf700000000000000000000000000000000000000000000000000000000815260040161007b919061019e565b60405180910390fd5b6100938161009960201b60201c565b506101b9565b60008060009054906101000a900473ffffffffffffffffffffffffffffffffffffffff169050816000806101000a81548173ffffffffffffffffffffffffffffffffffffffff021916908373ffffffffffffffffffffffffffffffffffffffff1602179055508173ffffffffffffffffffffffffffffffffffffffff168173ffffffffffffffffffffffffffffffffffffffff167f8be0079c531659141344cd1fd0a4f28419497f9722a3daafe3b4186f6b6457e060405160405180910390a35050565b600073ffffffffffffffffffffffffffffffffffffffff82169050919050565b60006101888261015d565b9050919050565b6101988161017d565b82525050565b60006020820190506101b3600083018461018f565b92915050565b610855806101c86000396000f3fe608060405234801561001057600080fd5b50600436106100885760003560e01c8063746f29961161005b578063746f2996146100ff5780638da5cb5b1461011b5780639e9e1b9714610139578063f2fde38b1461015757610088565b80630c53a1391461008d57806326fae0d3146100a95780633341b445146100c5578063715018a6146100f5575b600080fd5b6100a760048036038101906100a291906106dc565b610173565b005b6100c360048036038101906100be9190610757565b6102a1565b005b6100df60048036038101906100da9190610757565b6102e5565b6040516100ec9190610793565b60405180910390f35b6100fd610318565b005b61011960048036038101906101149190610757565b61032c565b005b610123610378565b6040516101309190610793565b60405180910390f35b6101416103a1565b60405161014e9190610793565b60405180910390f35b610171600480360381019061016c9190610757565b6103c7565b005b60006101a0600260009054906101000a900473ffffffffffffffffffffffffffffffffffffffff1661044d565b905060008190508073ffffffffffffffffffffffffffffffffffffffff1663445f54b288888888886040518663ffffffff1660e01b81526004016101e89594939291906107cc565b600060405180830381600087803b15801561020257600080fd5b505af1158015610216573d6000803e3d6000fd5b5050505081600160008673ffffffffffffffffffffffffffffffffffffffff1673ffffffffffffffffffffffffffffffffffffffff16815260200190815260200160002060006101000a81548173ffffffffffffffffffffffffffffffffffffffff021916908373ffffffffffffffffffffffffffffffffffffffff16021790555050505050505050565b80600260006101000a81548173ffffffffffffffffffffffffffffffffffffffff021916908373ffffffffffffffffffffffffffffffffffffffff16021790555050565b60016020528060005260406000206000915054906101000a900473ffffffffffffffffffffffffffffffffffffffff1681565b6103206104b7565b61032a600061053e565b565b6103346104b7565b80600260006101000a81548173ffffffffffffffffffffffffffffffffffffffff021916908373ffffffffffffffffffffffffffffffffffffffff16021790555050565b60008060009054906101000a900473ffffffffffffffffffffffffffffffffffffffff16905090565b600260009054906101000a900473ffffffffffffffffffffffffffffffffffffffff1681565b6103cf6104b7565b600073ffffffffffffffffffffffffffffffffffffffff168173ffffffffffffffffffffffffffffffffffffffff16036104415760006040517f1e4fbdf70000000000000000000000000000000000000000000000000000000081526004016104389190610793565b60405180910390fd5b61044a8161053e565b50565b6000808260601b90506040517f3d602d80600a3d3981f3363d3d373d3d3d363d7300000000000000000000000081528160148201527f5af43d82803e903d91602b57fd5bf3000000000000000000000000000000000060288201526037816000f092505050919050565b6104bf610602565b73ffffffffffffffffffffffffffffffffffffffff166104dd610378565b73ffffffffffffffffffffffffffffffffffffffff161461053c57610500610602565b6040517f118cdaa70000000000000000000000000000000000000000000000000000000081526004016105339190610793565b60405180910390fd5b565b60008060009054906101000a900473ffffffffffffffffffffffffffffffffffffffff169050816000806101000a81548173ffffffffffffffffffffffffffffffffffffffff021916908373ffffffffffffffffffffffffffffffffffffffff1602179055508173ffffffffffffffffffffffffffffffffffffffff168173ffffffffffffffffffffffffffffffffffffffff167f8be0079c531659141344cd1fd0a4f28419497f9722a3daafe3b4186f6b6457e060405160405180910390a35050565b600033905090565b600080fd5b6000819050919050565b6106228161060f565b811461062d57600080fd5b50565b60008135905061063f81610619565b92915050565b600060ff82169050919050565b61065b81610645565b811461066657600080fd5b50565b60008135905061067881610652565b92915050565b600073ffffffffffffffffffffffffffffffffffffffff82169050919050565b60006106a98261067e565b9050919050565b6106b98161069e565b81146106c457600080fd5b50565b6000813590506106d6816106b0565b92915050565b600080600080600060a086880312156106f8576106f761060a565b5b600061070688828901610630565b955050602061071788828901610630565b945050604061072888828901610669565b9350506060610739888289016106c7565b925050608061074a88828901610630565b9150509295509295909350565b60006020828403121561076d5761076c61060a565b5b600061077b848285016106c7565b91505092915050565b61078d8161069e565b82525050565b60006020820190506107a86000830184610784565b92915050565b6107b78161060f565b82525050565b6107c681610645565b82525050565b600060a0820190506107e160008301886107ae565b6107ee60208301876107ae565b6107fb60408301866107bd565b6108086060830185610784565b61081560808301846107ae565b969550505050505056fea26469706673582212203b231aab902bf790a2ee34733c4472aa77453b085c8300d049c3c88d6126fd9b64736f6c63430008150033",
  "linkReferences": {},
  "deployedLinkReferences": {}
}