{
  "_format": "hh-sol-artifact-1",
  "contractName": "MaxGasPrice",
  "sourceName": "contracts/MaxGasPrice.sol",
  "abi": [
    {
      "inputs": [],
      "name": "maxGasPrice",
      "outputs": [
        {
          "internalType": "uint256",
          "name": "",
          "type": "uint256"
        }
      ],
      "stateMutability": "view",
      "type": "function"
    }
  ],
  "bytecode": "0x6080604052670de0b6b3a764000060005534801561001c57600080fd5b5060b38061002b6000396000f3fe6080604052348015600f57600080fd5b506004361060285760003560e01c80633de39c1114602d575b600080fd5b60336047565b604051603e91906064565b60405180910390f35b60005481565b6000819050919050565b605e81604d565b82525050565b6000602082019050607760008301846057565b9291505056fea2646970667358221220e1adb096e966184d7202da99ca269c0b6010bbcc116dcf3ae5db9b2d0a7ccb8e64736f6c63430008150033",
  "linkReferences": {},
  "deployedLinkReferences": {}
}