{
  "_format": "hh-sol-artifact-1",
  "contractName": "Helsinki",
  "sourceName": "contracts/Helsinki.sol",
  "abi": [
    {
      "inputs": [],
      "stateMutability": "nonpayable",
      "type": "constructor"
    },
    {
      "inputs": [
        {
          "internalType": "address",
          "name": "sender",
          "type": "address"
        },
        {
          "internalType": "uint256",
          "name": "balance",
          "type": "uint256"
        },
        {
          "internalType": "uint256",
          "name": "needed",
          "type": "uint256"
        },
        {
          "internalType": "uint256",
          "name": "tokenId",
          "type": "uint256"
        }
      ],
      "name": "ERC1155InsufficientBalance",
      "type": "error"
    },
    {
      "inputs": [
        {
          "internalType": "address",
          "name": "approver",
          "type": "address"
        }
      ],
      "name": "ERC1155InvalidApprover",
      "type": "error"
    },
    {
      "inputs": [
        {
          "internalType": "uint256",
          "name": "idsLength",
          "type": "uint256"
        },
        {
          "internalType": "uint256",
          "name": "valuesLength",
          "type": "uint256"
        }
      ],
      "name": "ERC1155InvalidArrayLength",
      "type": "error"
    },
    {
      "inputs": [
        {
          "internalType": "address",
          "name": "operator",
          "type": "address"
        }
      ],
      "name": "ERC1155InvalidOperator",
      "type": "error"
    },
    {
      "inputs": [
        {
          "internalType": "address",
          "name": "receiver",
          "type": "address"
        }
      ],
      "name": "ERC1155InvalidReceiver",
      "type": "error"
    },
    {
      "inputs": [
        {
          "internalType": "address",
          "name": "sender",
          "type": "address"
        }
      ],
      "name": "ERC1155InvalidSender",
      "type": "error"
    },
    {
      "inputs": [
        {
          "internalType": "address",
          "name": "operator",
          "type": "address"
        },
        {
          "internalType": "address",
          "name": "owner",
          "type": "address"
        }
      ],
      "name": "ERC1155MissingApprovalForAll",
      "type": "error"
    },
    {
      "inputs": [],
      "name": "NotClosed",
      "type": "error"
    },
    {
      "inputs": [],
      "name": "NotFunded",
      "type": "error"
    },
    {
      "inputs": [],
      "name": "NotPassed",
      "type": "error"
    },
    {
      "inputs": [
        {
          "internalType": "address",
          "name": "account",
          "type": "address"
        }
      ],
      "name": "OwnableUnauthorizedAccount",
      "type": "error"
    },
    {
      "inputs": [],
      "name": "ReentrancyGuardReentrantCall",
      "type": "error"
    },
    {
      "anonymous": false,
      "inputs": [
        {
          "indexed": true,
          "internalType": "address",
          "name": "account",
          "type": "address"
        },
        {
          "indexed": true,
          "internalType": "address",
          "name": "operator",
          "type": "address"
        },
        {
          "indexed": false,
          "internalType": "bool",
          "name": "approved",
          "type": "bool"
        }
      ],
      "name": "ApprovalForAll",
      "type": "event"
    },
    {
      "anonymous": false,
      "inputs": [
        {
          "indexed": true,
          "internalType": "address",
          "name": "operator",
          "type": "address"
        },
        {
          "indexed": true,
          "internalType": "address",
          "name": "from",
          "type": "address"
        },
        {
          "indexed": true,
          "internalType": "address",
          "name": "to",
          "type": "address"
        },
        {
          "indexed": false,
          "internalType": "uint256[]",
          "name": "ids",
          "type": "uint256[]"
        },
        {
          "indexed": false,
          "internalType": "uint256[]",
          "name": "values",
          "type": "uint256[]"
        }
      ],
      "name": "TransferBatch",
      "type": "event"
    },
    {
      "anonymous": false,
      "inputs": [
        {
          "indexed": true,
          "internalType": "address",
          "name": "operator",
          "type": "address"
        },
        {
          "indexed": true,
          "internalType": "address",
          "name": "from",
          "type": "address"
        },
        {
          "indexed": true,
          "internalType": "address",
          "name": "to",
          "type": "address"
        },
        {
          "indexed": false,
          "internalType": "uint256",
          "name": "id",
          "type": "uint256"
        },
        {
          "indexed": false,
          "internalType": "uint256",
          "name": "value",
          "type": "uint256"
        }
      ],
      "name": "TransferSingle",
      "type": "event"
    },
    {
      "anonymous": false,
      "inputs": [
        {
          "indexed": false,
          "internalType": "string",
          "name": "value",
          "type": "string"
        },
        {
          "indexed": true,
          "internalType": "uint256",
          "name": "id",
          "type": "uint256"
        }
      ],
      "name": "URI",
      "type": "event"
    },
    {
      "inputs": [],
      "name": "_owner",
      "outputs": [
        {
          "internalType": "address",
          "name": "",
          "type": "address"
        }
      ],
      "stateMutability": "view",
      "type": "function"
    },
    {
      "inputs": [
        {
          "internalType": "address",
          "name": "account",
          "type": "address"
        },
        {
          "internalType": "uint256",
          "name": "id",
          "type": "uint256"
        }
      ],
      "name": "balanceOf",
      "outputs": [
        {
          "internalType": "uint256",
          "name": "",
          "type": "uint256"
        }
      ],
      "stateMutability": "view",
      "type": "function"
    },
    {
      "inputs": [
        {
          "internalType": "address[]",
          "name": "accounts",
          "type": "address[]"
        },
        {
          "internalType": "uint256[]",
          "name": "ids",
          "type": "uint256[]"
        }
      ],
      "name": "balanceOfBatch",
      "outputs": [
        {
          "internalType": "uint256[]",
          "name": "",
          "type": "uint256[]"
        }
      ],
      "stateMutability": "view",
      "type": "function"
    },
    {
      "inputs": [
        {
          "internalType": "address",
          "name": "account",
          "type": "address"
        },
        {
          "internalType": "uint256",
          "name": "id",
          "type": "uint256"
        },
        {
          "internalType": "uint256",
          "name": "value",
          "type": "uint256"
        }
      ],
      "name": "burn",
      "outputs": [],
      "stateMutability": "nonpayable",
      "type": "function"
    },
    {
      "inputs": [
        {
          "internalType": "address",
          "name": "account",
          "type": "address"
        },
        {
          "internalType": "uint256[]",
          "name": "ids",
          "type": "uint256[]"
        },
        {
          "internalType": "uint256[]",
          "name": "values",
          "type": "uint256[]"
        }
      ],
      "name": "burnBatch",
      "outputs": [],
      "stateMutability": "nonpayable",
      "type": "function"
    },
    {
      "inputs": [],
      "name": "buyLong",
      "outputs": [],
      "stateMutability": "payable",
      "type": "function"
    },
    {
      "inputs": [],
      "name": "buyShort",
      "outputs": [],
      "stateMutability": "payable",
      "type": "function"
    },
    {
      "inputs": [
        {
          "internalType": "uint256",
          "name": "totalSupply",
          "type": "uint256"
        },
        {
          "internalType": "uint256",
          "name": "depositAmount",
          "type": "uint256"
        },
        {
          "internalType": "uint32",
          "name": "slope",
          "type": "uint32"
        }
      ],
      "name": "calculateBuyReturn",
      "outputs": [
        {
          "internalType": "uint256",
          "name": "",
          "type": "uint256"
        }
      ],
      "stateMutability": "pure",
      "type": "function"
    },
    {
      "inputs": [
        {
          "internalType": "uint256",
          "name": "amount",
          "type": "uint256"
        }
      ],
      "name": "calculateLongSpotPrice",
      "outputs": [
        {
          "internalType": "uint256",
          "name": "",
          "type": "uint256"
        }
      ],
      "stateMutability": "view",
      "type": "function"
    },
    {
      "inputs": [
        {
          "internalType": "uint256",
          "name": "totalSupply",
          "type": "uint256"
        },
        {
          "internalType": "uint32",
          "name": "slope",
          "type": "uint32"
        }
      ],
      "name": "calculatePrice",
      "outputs": [
        {
          "internalType": "uint256",
          "name": "",
          "type": "uint256"
        }
      ],
      "stateMutability": "pure",
      "type": "function"
    },
    {
      "inputs": [
        {
          "internalType": "uint256",
          "name": "amount",
          "type": "uint256"
        }
      ],
      "name": "calculateShortSpotPrice",
      "outputs": [
        {
          "internalType": "uint256",
          "name": "",
          "type": "uint256"
        }
      ],
      "stateMutability": "view",
      "type": "function"
    },
    {
      "inputs": [],
      "name": "checkTenure",
      "outputs": [],
      "stateMutability": "nonpayable",
      "type": "function"
    },
    {
      "inputs": [
        {
          "internalType": "uint256",
          "name": "id",
          "type": "uint256"
        }
      ],
      "name": "exists",
      "outputs": [
        {
          "internalType": "bool",
          "name": "",
          "type": "bool"
        }
      ],
      "stateMutability": "view",
      "type": "function"
    },
    {
      "inputs": [],
      "name": "foreclose",
      "outputs": [],
      "stateMutability": "payable",
      "type": "function"
    },
    {
      "inputs": [
        {
          "internalType": "uint256",
          "name": "amount",
          "type": "uint256"
        },
        {
          "internalType": "uint256",
          "name": "security",
          "type": "uint256"
        },
        {
          "internalType": "uint8",
          "name": "tenure",
          "type": "uint8"
        },
        {
          "internalType": "address",
          "name": "walletAddress",
          "type": "address"
        },
        {
          "internalType": "uint32",
          "name": "_slope",
          "type": "uint32"
        }
      ],
      "name": "init",
      "outputs": [],
      "stateMutability": "nonpayable",
      "type": "function"
    },
    {
      "inputs": [
        {
          "internalType": "address",
          "name": "account",
          "type": "address"
        },
        {
          "internalType": "address",
          "name": "operator",
          "type": "address"
        }
      ],
      "name": "isApprovedForAll",
      "outputs": [
        {
          "internalType": "bool",
          "name": "",
          "type": "bool"
        }
      ],
      "stateMutability": "view",
      "type": "function"
    },
    {
      "inputs": [],
      "name": "owner",
      "outputs": [
        {
          "internalType": "address",
          "name": "",
          "type": "address"
        }
      ],
      "stateMutability": "view",
      "type": "function"
    },
    {
      "inputs": [],
      "name": "payEmi",
      "outputs": [],
      "stateMutability": "payable",
      "type": "function"
    },
    {
      "inputs": [],
      "name": "poolBalance",
      "outputs": [
        {
          "internalType": "uint256",
          "name": "",
          "type": "uint256"
        }
      ],
      "stateMutability": "view",
      "type": "function"
    },
    {
      "inputs": [],
      "name": "proposalStorage",
      "outputs": [
        {
          "internalType": "uint256",
          "name": "amount",
          "type": "uint256"
        },
        {
          "internalType": "uint256",
          "name": "security",
          "type": "uint256"
        },
        {
          "internalType": "uint256",
          "name": "longerPool",
          "type": "uint256"
        },
        {
          "internalType": "uint256",
          "name": "shorterPool",
          "type": "uint256"
        },
        {
          "internalType": "uint256",
          "name": "amountPaid",
          "type": "uint256"
        },
        {
          "internalType": "uint256",
          "name": "emiAmount",
          "type": "uint256"
        },
        {
          "internalType": "uint256",
          "name": "startTime",
          "type": "uint256"
        },
        {
          "internalType": "uint8",
          "name": "emisLeft",
          "type": "uint8"
        },
        {
          "internalType": "uint8",
          "name": "interest",
          "type": "uint8"
        },
        {
          "internalType": "uint8",
          "name": "tenure",
          "type": "uint8"
        },
        {
          "internalType": "address",
          "name": "walletAddress",
          "type": "address"
        },
        {
          "internalType": "enum HelperLib.State",
          "name": "state",
          "type": "uint8"
        }
      ],
      "stateMutability": "view",
      "type": "function"
    },
    {
      "inputs": [
        {
          "internalType": "address",
          "name": "from",
          "type": "address"
        },
        {
          "internalType": "address",
          "name": "to",
          "type": "address"
        },
        {
          "internalType": "uint256[]",
          "name": "ids",
          "type": "uint256[]"
        },
        {
          "internalType": "uint256[]",
          "name": "values",
          "type": "uint256[]"
        },
        {
          "internalType": "bytes",
          "name": "data",
          "type": "bytes"
        }
      ],
      "name": "safeBatchTransferFrom",
      "outputs": [],
      "stateMutability": "nonpayable",
      "type": "function"
    },
    {
      "inputs": [
        {
          "internalType": "address",
          "name": "from",
          "type": "address"
        },
        {
          "internalType": "address",
          "name": "to",
          "type": "address"
        },
        {
          "internalType": "uint256",
          "name": "id",
          "type": "uint256"
        },
        {
          "internalType": "uint256",
          "name": "value",
          "type": "uint256"
        },
        {
          "internalType": "bytes",
          "name": "data",
          "type": "bytes"
        }
      ],
      "name": "safeTransferFrom",
      "outputs": [],
      "stateMutability": "nonpayable",
      "type": "function"
    },
    {
      "inputs": [],
      "name": "scale",
      "outputs": [
        {
          "internalType": "uint256",
          "name": "",
          "type": "uint256"
        }
      ],
      "stateMutability": "view",
      "type": "function"
    },
    {
      "inputs": [],
      "name": "sellLong",
      "outputs": [],
      "stateMutability": "payable",
      "type": "function"
    },
    {
      "inputs": [],
      "name": "sellShort",
      "outputs": [],
      "stateMutability": "payable",
      "type": "function"
    },
    {
      "inputs": [
        {
          "internalType": "address",
          "name": "operator",
          "type": "address"
        },
        {
          "internalType": "bool",
          "name": "approved",
          "type": "bool"
        }
      ],
      "name": "setApprovalForAll",
      "outputs": [],
      "stateMutability": "nonpayable",
      "type": "function"
    },
    {
      "inputs": [],
      "name": "slope",
      "outputs": [
        {
          "internalType": "uint32",
          "name": "",
          "type": "uint32"
        }
      ],
      "stateMutability": "view",
      "type": "function"
    },
    {
      "inputs": [
        {
          "internalType": "bytes4",
          "name": "interfaceId",
          "type": "bytes4"
        }
      ],
      "name": "supportsInterface",
      "outputs": [
        {
          "internalType": "bool",
          "name": "",
          "type": "bool"
        }
      ],
      "stateMutability": "view",
      "type": "function"
    },
    {
      "inputs": [],
      "name": "totalSupply",
      "outputs": [
        {
          "internalType": "uint256",
          "name": "",
          "type": "uint256"
        }
      ],
      "stateMutability": "view",
      "type": "function"
    },
    {
      "inputs": [
        {
          "internalType": "uint256",
          "name": "id",
          "type": "uint256"
        }
      ],
      "name": "totalSupply",
      "outputs": [
        {
          "internalType": "uint256",
          "name": "",
          "type": "uint256"
        }
      ],
      "stateMutability": "view",
      "type": "function"
    },
    {
      "inputs": [
        {
          "internalType": "uint256",
          "name": "",
          "type": "uint256"
        }
      ],
      "name": "uri",
      "outputs": [
        {
          "internalType": "string",
          "name": "",
          "type": "string"
        }
      ],
      "stateMutability": "view",
      "type": "function"
    },
    {
      "inputs": [],
      "name": "winner",
      "outputs": [
        {
          "internalType": "enum HelperLib.TokenType",
          "name": "",
          "type": "uint8"
        }
      ],
      "stateMutability": "view",
      "type": "function"
    },
    {
      "inputs": [],
      "name": "withdraw",
      "outputs": [],
      "stateMutability": "nonpayable",
      "type": "function"
    },
    {
      "stateMutability": "payable",
      "type": "receive"
    }
  ],
  "bytecode": "0x6080604052670de0b6b3a7640000600f55600f546001620000219190620000b0565b6010553480156200003157600080fd5b506040518060200160405280600081525062000053816200006260201b60201c565b50600160058190555062000452565b80600290816200007391906200036b565b5050565b6000819050919050565b7f4e487b7100000000000000000000000000000000000000000000000000000000600052601160045260246000fd5b6000620000bd8262000077565b9150620000ca8362000077565b9250828202620000da8162000077565b91508282048414831517620000f457620000f362000081565b5b5092915050565b600081519050919050565b7f4e487b7100000000000000000000000000000000000000000000000000000000600052604160045260246000fd5b7f4e487b7100000000000000000000000000000000000000000000000000000000600052602260045260246000fd5b600060028204905060018216806200017d57607f821691505b60208210810362000193576200019262000135565b5b50919050565b60008190508160005260206000209050919050565b60006020601f8301049050919050565b600082821b905092915050565b600060088302620001fd7fffffffffffffffffffffffffffffffffffffffffffffffffffffffffffffffff82620001be565b620002098683620001be565b95508019841693508086168417925050509392505050565b6000819050919050565b60006200024c62000246620002408462000077565b62000221565b62000077565b9050919050565b6000819050919050565b62000268836200022b565b62000280620002778262000253565b848454620001cb565b825550505050565b600090565b6200029762000288565b620002a48184846200025d565b505050565b5b81811015620002cc57620002c06000826200028d565b600181019050620002aa565b5050565b601f8211156200031b57620002e58162000199565b620002f084620001ae565b8101602085101562000300578190505b620003186200030f85620001ae565b830182620002a9565b50505b505050565b600082821c905092915050565b6000620003406000198460080262000320565b1980831691505092915050565b60006200035b83836200032d565b9150826002028217905092915050565b6200037682620000fb565b67ffffffffffffffff81111562000392576200039162000106565b5b6200039e825462000164565b620003ab828285620002d0565b600060209050601f831160018114620003e35760008415620003ce578287015190505b620003da85826200034d565b8655506200044a565b601f198416620003f38662000199565b60005b828110156200041d57848901518255600182019150602085019450602081019050620003f6565b868310156200043d578489015162000439601f8916826200032d565b8355505b6001600288020188555050505b505050505050565b613dbf80620004626000396000f3fe6080604052600436106101f05760003560e01c80637ab6d6381161010d578063c4139441116100a0578063e985e9c51161006f578063e985e9c5146106d4578063eb6266e214610711578063f242432a1461071b578063f51e181a14610744578063f5298aca1461076f57610231565b8063c4139441146105f9578063cbced76014610636578063dfbf53ae1461066c578063e37b7a7a1461069757610231565b806396365d44116100dc57806396365d441461053d578063a22cb46514610568578063b2bdfa7b14610591578063bd85b039146105bc57610231565b80637ab6d638146104d357806383caf275146104dd578063881fa170146105085780638da5cb5b1461051257610231565b80632eb2c2d6116101855780634e1273f4116101545780634e1273f4146104265780634f558e79146104635780636b20c454146104a057806374f7ef4b146104c957610231565b80632eb2c2d6146103a65780633073d0cf146103cf5780633a31f9da146103e65780633ccfd60b1461040f57610231565b806308801c20116101c157806308801c20146102f75780630e89341c1461030157806318160ddd1461033e57806324ae021c1461036957610231565b80620198da14610236578062fdd58e1461024057806301ffc9a71461027d578063042c19e7146102ba57610231565b3661023157600760010154471061022f5760016007800160176101000a81548160ff0219169083600381111561022957610228612afa565b5b02179055505b005b600080fd5b61023e610798565b005b34801561024c57600080fd5b5061026760048036038101906102629190612bd1565b6108af565b6040516102749190612c20565b60405180910390f35b34801561028957600080fd5b506102a4600480360381019061029f9190612c93565b610909565b6040516102b19190612cdb565b60405180910390f35b3480156102c657600080fd5b506102e160048036038101906102dc9190612cf6565b6109eb565b6040516102ee9190612c20565b60405180910390f35b6102ff610a2b565b005b34801561030d57600080fd5b5061032860048036038101906103239190612cf6565b610c1d565b6040516103359190612db3565b60405180910390f35b34801561034a57600080fd5b50610353610cb1565b6040516103609190612c20565b60405180910390f35b34801561037557600080fd5b50610390600480360381019061038b9190612e11565b610cbb565b60405161039d9190612c20565b60405180910390f35b3480156103b257600080fd5b506103cd60048036038101906103c89190613061565b610ce0565b005b3480156103db57600080fd5b506103e4610d88565b005b3480156103f257600080fd5b5061040d60048036038101906104089190613169565b610e8d565b005b34801561041b57600080fd5b5061042461103f565b005b34801561043257600080fd5b5061044d600480360381019061044891906132a7565b611126565b60405161045a91906133dd565b60405180910390f35b34801561046f57600080fd5b5061048a60048036038101906104859190612cf6565b611235565b6040516104979190612cdb565b60405180910390f35b3480156104ac57600080fd5b506104c760048036038101906104c291906133ff565b611249565b005b6104d16112f5565b005b6104db6113ad565b005b3480156104e957600080fd5b506104f26114cf565b6040516104ff9190613499565b60405180910390f35b6105106114e5565b005b34801561051e57600080fd5b5061052761159e565b60405161053491906134c3565b60405180910390f35b34801561054957600080fd5b506105526115c8565b60405161055f9190612c20565b60405180910390f35b34801561057457600080fd5b5061058f600480360381019061058a919061350a565b6115ce565b005b34801561059d57600080fd5b506105a66115e4565b6040516105b391906134c3565b60405180910390f35b3480156105c857600080fd5b506105e360048036038101906105de9190612cf6565b61160a565b6040516105f09190612c20565b60405180910390f35b34801561060557600080fd5b50610620600480360381019061061b919061354a565b611627565b60405161062d9190612c20565b60405180910390f35b34801561064257600080fd5b5061064b611643565b6040516106639c9b9a999897969594939291906135e1565b60405180910390f35b34801561067857600080fd5b506106816116e5565b60405161068e91906136e3565b60405180910390f35b3480156106a357600080fd5b506106be60048036038101906106b99190612cf6565b6116f8565b6040516106cb9190612c20565b60405180910390f35b3480156106e057600080fd5b506106fb60048036038101906106f691906136fe565b611738565b6040516107089190612cdb565b60405180910390f35b6107196117cc565b005b34801561072757600080fd5b50610742600480360381019061073d919061373e565b6118d5565b005b34801561075057600080fd5b5061075961197d565b6040516107669190612c20565b60405180910390f35b34801561077b57600080fd5b50610796600480360381019061079191906137d5565b611983565b005b600160038111156107ac576107ab612afa565b5b6007800160179054906101000a900460ff1660038111156107d0576107cf612afa565b5b14610807576040517fd5ef09ba00000000000000000000000000000000000000000000000000000000815260040160405180910390fd5b6000341161084a576040517f08c379a000000000000000000000000000000000000000000000000000000000815260040161084190613874565b60405180910390fd5b600061088361086a60018081111561086557610864612afa565b5b61160a565b34601160009054906101000a900463ffffffff16610cbb565b9050346007600301600082825461089a91906138c3565b925050819055506108ac816001611a2f565b50565b600080600083815260200190815260200160002060008473ffffffffffffffffffffffffffffffffffffffff1673ffffffffffffffffffffffffffffffffffffffff16815260200190815260200160002054905092915050565b60007fd9b67a26000000000000000000000000000000000000000000000000000000007bffffffffffffffffffffffffffffffffffffffffffffffffffffffff1916827bffffffffffffffffffffffffffffffffffffffffffffffffffffffff191614806109d457507f0e89341c000000000000000000000000000000000000000000000000000000007bffffffffffffffffffffffffffffffffffffffffffffffffffffffff1916827bffffffffffffffffffffffffffffffffffffffffffffffffffffffff1916145b806109e457506109e382611a60565b5b9050919050565b6000610a24610a0b600180811115610a0657610a05612afa565b5b61160a565b83601160009054906101000a900463ffffffff16610cbb565b9050919050565b60016003811115610a3f57610a3e612afa565b5b6007800160179054906101000a900460ff166003811115610a6357610a62612afa565b5b14610a9a576040517fd5ef09ba00000000000000000000000000000000000000000000000000000000815260040160405180910390fd5b60003411610add576040517f08c379a0000000000000000000000000000000000000000000000000000000008152600401610ad490613874565b60405180910390fd5b3460076002016000828254610af291906138c3565b9250508190555060076000015460076002015410610bd35760026007800160176101000a81548160ff02191690836003811115610b3257610b31612afa565b5b0217905550600760030154600760020154610b4d9190613926565b6007800160016101000a81548160ff021916908360ff1602179055506007800160029054906101000a900460ff1660ff1660646007800160019054906101000a900460ff1660ff16600760000154610ba59190613957565b610baf9190613926565b600760000154610bbf91906138c3565b610bc99190613926565b6007600501819055505b6000610c0d610bf460006001811115610bef57610bee612afa565b5b61160a565b34601160009054906101000a900463ffffffff16610cbb565b9050610c1a816000611a2f565b50565b606060028054610c2c906139c8565b80601f0160208091040260200160405190810160405280929190818152602001828054610c58906139c8565b8015610ca55780601f10610c7a57610100808354040283529160200191610ca5565b820191906000526020600020905b815481529060010190602001808311610c8857829003601f168201915b50505050509050919050565b6000600454905090565b600080610cc88584611627565b90508084610cd69190613926565b9150509392505050565b6000610cea611aca565b90508073ffffffffffffffffffffffffffffffffffffffff168673ffffffffffffffffffffffffffffffffffffffff1614158015610d2f5750610d2d8682611738565b155b15610d735780866040517fe237d922000000000000000000000000000000000000000000000000000000008152600401610d6a9291906139f9565b60405180910390fd5b610d808686868686611ad2565b505050505050565b60026003811115610d9c57610d9b612afa565b5b6007800160179054906101000a900460ff166003811115610dc057610dbf612afa565b5b14610df7576040517fb26b5a6400000000000000000000000000000000000000000000000000000000815260040160405180910390fd5b62093a8060046007800160029054906101000a900460ff16610e199190613a22565b60ff16610e269190613a6e565b62ffffff1660076006015442610e3c9190613aab565b1115610e8b5760006007800160009054906101000a900460ff1660ff1614610e8a576001600660146101000a81548160ff02191690836001811115610e8457610e83612afa565b5b02179055505b5b565b610e95611bca565b8460076000018190555083600760010181905550826007800160026101000a81548160ff021916908360ff160217905550816007800160036101000a81548173ffffffffffffffffffffffffffffffffffffffff021916908373ffffffffffffffffffffffffffffffffffffffff16021790555060006007800160176101000a81548160ff02191690836003811115610f3157610f30612afa565b5b021790555080601160006101000a81548163ffffffff021916908363ffffffff160217905550826007800160006101000a81548160ff021916908360ff160217905550600060076004018190555060006007600501819055504260076006018190555081600660006101000a81548173ffffffffffffffffffffffffffffffffffffffff021916908373ffffffffffffffffffffffffffffffffffffffff1602179055506110038260006001811115610fed57610fec612afa565b5b8760405180602001604052806000815250611c10565b6110308260018081111561101a57611019612afa565b5b8760405180602001604052806000815250611c10565b611038611ca9565b5050505050565b611047611cb3565b6002600381111561105b5761105a612afa565b5b6007800160179054906101000a900460ff16600381111561107f5761107e612afa565b5b146110b6576040517fb26b5a6400000000000000000000000000000000000000000000000000000000815260040160405180910390fd5b600660009054906101000a900473ffffffffffffffffffffffffffffffffffffffff1673ffffffffffffffffffffffffffffffffffffffff166108fc6007600001549081150290604051600060405180830381858888f19350505050158015611123573d6000803e3d6000fd5b50565b6060815183511461117257815183516040517f5b059991000000000000000000000000000000000000000000000000000000008152600401611169929190613adf565b60405180910390fd5b6000835167ffffffffffffffff81111561118f5761118e612e69565b5b6040519080825280602002602001820160405280156111bd5781602001602082028036833780820191505090505b50905060005b845181101561122a576111fa6111e28287611d3a90919063ffffffff16565b6111f58387611d4e90919063ffffffff16565b6108af565b82828151811061120d5761120c613b08565b5b6020026020010181815250508061122390613b37565b90506111c3565b508091505092915050565b6000806112418361160a565b119050919050565b611251611aca565b73ffffffffffffffffffffffffffffffffffffffff168373ffffffffffffffffffffffffffffffffffffffff161415801561129a575061129883611293611aca565b611738565b155b156112e5576112a7611aca565b836040517fe237d9220000000000000000000000000000000000000000000000000000000081526004016112dc9291906139f9565b60405180910390fd5b6112f0838383611d62565b505050565b60038081111561130857611307612afa565b5b6007800160179054906101000a900460ff16600381111561132c5761132b612afa565b5b14611363576040517f8b4b52de00000000000000000000000000000000000000000000000000000000815260040160405180910390fd5b600061139d47611385336001808111156113805761137f612afa565b5b6108af565b601160009054906101000a900463ffffffff16610cbb565b90506113aa816001611df6565b50565b600260038111156113c1576113c0612afa565b5b6007800160179054906101000a900460ff1660038111156113e5576113e4612afa565b5b1461141c576040517fb26b5a6400000000000000000000000000000000000000000000000000000000815260040160405180910390fd5b60076005015434101561142e57600080fd5b60016007800160008282829054906101000a900460ff1661144f9190613b7f565b92506101000a81548160ff021916908360ff160217905550346007600401600082825461147c91906138c3565b9250508190555060006007800160009054906101000a900460ff1660ff16036114cd5760036007800160176101000a81548160ff021916908360038111156114c7576114c6612afa565b5b02179055505b565b601160009054906101000a900463ffffffff1681565b6003808111156114f8576114f7612afa565b5b6007800160179054906101000a900460ff16600381111561151c5761151b612afa565b5b14611553576040517f8b4b52de00000000000000000000000000000000000000000000000000000000815260040160405180910390fd5b600061158e47611576336000600181111561157157611570612afa565b5b6108af565b601160009054906101000a900463ffffffff16610cbb565b905061159b816000611df6565b50565b6000600660009054906101000a900473ffffffffffffffffffffffffffffffffffffffff16905090565b60105481565b6115e06115d9611aca565b8383611e17565b5050565b600660009054906101000a900473ffffffffffffffffffffffffffffffffffffffff1681565b600060036000838152602001908152602001600020549050919050565b6000828263ffffffff1661163b9190613957565b905092915050565b60078060000154908060010154908060020154908060030154908060040154908060050154908060060154908060070160009054906101000a900460ff16908060070160019054906101000a900460ff16908060070160029054906101000a900460ff16908060070160039054906101000a900473ffffffffffffffffffffffffffffffffffffffff16908060070160179054906101000a900460ff1690508c565b600660149054906101000a900460ff1681565b600061173161171860018081111561171357611712612afa565b5b61160a565b83601160009054906101000a900463ffffffff16610cbb565b9050919050565b6000600160008473ffffffffffffffffffffffffffffffffffffffff1673ffffffffffffffffffffffffffffffffffffffff16815260200190815260200160002060008373ffffffffffffffffffffffffffffffffffffffff1673ffffffffffffffffffffffffffffffffffffffff16815260200190815260200160002060009054906101000a900460ff16905092915050565b600260038111156117e0576117df612afa565b5b6007800160179054906101000a900460ff16600381111561180457611803612afa565b5b1461183b576040517fb26b5a6400000000000000000000000000000000000000000000000000000000815260040160405180910390fd5b6007600501546007800160009054906101000a900460ff1660ff166118609190613957565b34101561186c57600080fd5b60006007800160006101000a81548160ff021916908360ff160217905550346007600401600082825461189f91906138c3565b9250508190555060036007800160176101000a81548160ff021916908360038111156118ce576118cd612afa565b5b0217905550565b60006118df611aca565b90508073ffffffffffffffffffffffffffffffffffffffff168673ffffffffffffffffffffffffffffffffffffffff161415801561192457506119228682611738565b155b156119685780866040517fe237d92200000000000000000000000000000000000000000000000000000000815260040161195f9291906139f9565b60405180910390fd5b6119758686868686611f87565b505050505050565b600f5481565b61198b611aca565b73ffffffffffffffffffffffffffffffffffffffff168373ffffffffffffffffffffffffffffffffffffffff16141580156119d457506119d2836119cd611aca565b611738565b155b15611a1f576119e1611aca565b836040517fe237d922000000000000000000000000000000000000000000000000000000008152600401611a169291906139f9565b60405180910390fd5b611a2a838383612092565b505050565b611a5c33826001811115611a4657611a45612afa565b5b8460405180602001604052806000815250611c10565b5050565b60007f01ffc9a7000000000000000000000000000000000000000000000000000000007bffffffffffffffffffffffffffffffffffffffffffffffffffffffff1916827bffffffffffffffffffffffffffffffffffffffffffffffffffffffff1916149050919050565b600033905090565b600073ffffffffffffffffffffffffffffffffffffffff168473ffffffffffffffffffffffffffffffffffffffff1603611b445760006040517f57f447ce000000000000000000000000000000000000000000000000000000008152600401611b3b91906134c3565b60405180910390fd5b600073ffffffffffffffffffffffffffffffffffffffff168573ffffffffffffffffffffffffffffffffffffffff1603611bb65760006040517f01a83514000000000000000000000000000000000000000000000000000000008152600401611bad91906134c3565b60405180910390fd5b611bc38585858585612139565b5050505050565b600260055403611c06576040517f3ee5aeb500000000000000000000000000000000000000000000000000000000815260040160405180910390fd5b6002600581905550565b600073ffffffffffffffffffffffffffffffffffffffff168473ffffffffffffffffffffffffffffffffffffffff1603611c825760006040517f57f447ce000000000000000000000000000000000000000000000000000000008152600401611c7991906134c3565b60405180910390fd5b600080611c8f85856121eb565b91509150611ca1600087848487612139565b505050505050565b6001600581905550565b611cbb611aca565b73ffffffffffffffffffffffffffffffffffffffff16611cd961159e565b73ffffffffffffffffffffffffffffffffffffffff1614611d3857611cfc611aca565b6040517f118cdaa7000000000000000000000000000000000000000000000000000000008152600401611d2f91906134c3565b60405180910390fd5b565b600060208202602084010151905092915050565b600060208202602084010151905092915050565b600073ffffffffffffffffffffffffffffffffffffffff168373ffffffffffffffffffffffffffffffffffffffff1603611dd45760006040517f01a83514000000000000000000000000000000000000000000000000000000008152600401611dcb91906134c3565b60405180910390fd5b611df1836000848460405180602001604052806000815250612139565b505050565b611e1333826001811115611e0d57611e0c612afa565b5b84612092565b5050565b600073ffffffffffffffffffffffffffffffffffffffff168273ffffffffffffffffffffffffffffffffffffffff1603611e895760006040517fced3e100000000000000000000000000000000000000000000000000000000008152600401611e8091906134c3565b60405180910390fd5b80600160008573ffffffffffffffffffffffffffffffffffffffff1673ffffffffffffffffffffffffffffffffffffffff16815260200190815260200160002060008473ffffffffffffffffffffffffffffffffffffffff1673ffffffffffffffffffffffffffffffffffffffff16815260200190815260200160002060006101000a81548160ff0219169083151502179055508173ffffffffffffffffffffffffffffffffffffffff168373ffffffffffffffffffffffffffffffffffffffff167f17307eab39ab6107e8899845ad3d59bd9653f200f220920489ca2b5937696c3183604051611f7a9190612cdb565b60405180910390a3505050565b600073ffffffffffffffffffffffffffffffffffffffff168473ffffffffffffffffffffffffffffffffffffffff1603611ff95760006040517f57f447ce000000000000000000000000000000000000000000000000000000008152600401611ff091906134c3565b60405180910390fd5b600073ffffffffffffffffffffffffffffffffffffffff168573ffffffffffffffffffffffffffffffffffffffff160361206b5760006040517f01a8351400000000000000000000000000000000000000000000000000000000815260040161206291906134c3565b60405180910390fd5b60008061207885856121eb565b915091506120898787848487612139565b50505050505050565b600073ffffffffffffffffffffffffffffffffffffffff168373ffffffffffffffffffffffffffffffffffffffff16036121045760006040517f01a835140000000000000000000000000000000000000000000000000000000081526004016120fb91906134c3565b60405180910390fd5b60008061211184846121eb565b91509150612132856000848460405180602001604052806000815250612139565b5050505050565b6121458585858561221b565b600073ffffffffffffffffffffffffffffffffffffffff168473ffffffffffffffffffffffffffffffffffffffff16146121e4576000612183611aca565b905060018451036121d35760006121a4600086611d4e90919063ffffffff16565b905060006121bc600086611d4e90919063ffffffff16565b90506121cc83898985858961222d565b50506121e2565b6121e18187878787876123e1565b5b505b5050505050565b60608060405191506001825283602083015260408201905060018152826020820152604081016040529250929050565b61222784848484612595565b50505050565b60008473ffffffffffffffffffffffffffffffffffffffff163b11156123d9578373ffffffffffffffffffffffffffffffffffffffff1663f23a6e6187878686866040518663ffffffff1660e01b815260040161228e959493929190613c09565b6020604051808303816000875af19250505080156122ca57506040513d601f19601f820116820180604052508101906122c79190613c78565b60015b61234e573d80600081146122fa576040519150601f19603f3d011682016040523d82523d6000602084013e6122ff565b606091505b50600081510361234657846040517f57f447ce00000000000000000000000000000000000000000000000000000000815260040161233d91906134c3565b60405180910390fd5b805181602001fd5b63f23a6e6160e01b7bffffffffffffffffffffffffffffffffffffffffffffffffffffffff1916817bffffffffffffffffffffffffffffffffffffffffffffffffffffffff1916146123d757846040517f57f447ce0000000000000000000000000000000000000000000000000000000081526004016123ce91906134c3565b60405180910390fd5b505b505050505050565b60008473ffffffffffffffffffffffffffffffffffffffff163b111561258d578373ffffffffffffffffffffffffffffffffffffffff1663bc197c8187878686866040518663ffffffff1660e01b8152600401612442959493929190613ca5565b6020604051808303816000875af192505050801561247e57506040513d601f19601f8201168201806040525081019061247b9190613c78565b60015b612502573d80600081146124ae576040519150601f19603f3d011682016040523d82523d6000602084013e6124b3565b606091505b5060008151036124fa57846040517f57f447ce0000000000000000000000000000000000000000000000000000000081526004016124f191906134c3565b60405180910390fd5b805181602001fd5b63bc197c8160e01b7bffffffffffffffffffffffffffffffffffffffffffffffffffffffff1916817bffffffffffffffffffffffffffffffffffffffffffffffffffffffff19161461258b57846040517f57f447ce00000000000000000000000000000000000000000000000000000000815260040161258291906134c3565b60405180910390fd5b505b505050505050565b6125a18484848461274c565b600073ffffffffffffffffffffffffffffffffffffffff168473ffffffffffffffffffffffffffffffffffffffff1603612681576000805b83518110156126655760008382815181106125f7576125f6613b08565b5b60200260200101519050806003600087858151811061261957612618613b08565b5b60200260200101518152602001908152602001600020600082825461263e91906138c3565b92505081905550808361265191906138c3565b9250508061265e90613b37565b90506125d9565b50806004600082825461267891906138c3565b92505081905550505b600073ffffffffffffffffffffffffffffffffffffffff168373ffffffffffffffffffffffffffffffffffffffff1603612746576000805b83518110156127335760008382815181106126d7576126d6613b08565b5b6020026020010151905080600360008785815181106126f9576126f8613b08565b5b60200260200101518152602001908152602001600020600082825403925050819055508083019250508061272c90613b37565b90506126b9565b5080600460008282540392505081905550505b50505050565b805182511461279657815181516040517f5b05999100000000000000000000000000000000000000000000000000000000815260040161278d929190613adf565b60405180910390fd5b60006127a0611aca565b905060005b83518110156129b55760006127c38286611d4e90919063ffffffff16565b905060006127da8386611d4e90919063ffffffff16565b9050600073ffffffffffffffffffffffffffffffffffffffff168873ffffffffffffffffffffffffffffffffffffffff161461290757600080600084815260200190815260200160002060008a73ffffffffffffffffffffffffffffffffffffffff1673ffffffffffffffffffffffffffffffffffffffff168152602001908152602001600020549050818110156128af57888183856040517f03dee4c50000000000000000000000000000000000000000000000000000000081526004016128a69493929190613d0d565b60405180910390fd5b81810360008085815260200190815260200160002060008b73ffffffffffffffffffffffffffffffffffffffff1673ffffffffffffffffffffffffffffffffffffffff16815260200190815260200160002081905550505b600073ffffffffffffffffffffffffffffffffffffffff168773ffffffffffffffffffffffffffffffffffffffff16146129a2578060008084815260200190815260200160002060008973ffffffffffffffffffffffffffffffffffffffff1673ffffffffffffffffffffffffffffffffffffffff168152602001908152602001600020600082825461299a91906138c3565b925050819055505b5050806129ae90613b37565b90506127a5565b506001835103612a745760006129d5600085611d4e90919063ffffffff16565b905060006129ed600085611d4e90919063ffffffff16565b90508573ffffffffffffffffffffffffffffffffffffffff168773ffffffffffffffffffffffffffffffffffffffff168473ffffffffffffffffffffffffffffffffffffffff167fc3d58168c5ae7397731d063d5bbf3d657854427343f4c083240f7aacaa2d0f628585604051612a65929190613adf565b60405180910390a45050612af3565b8373ffffffffffffffffffffffffffffffffffffffff168573ffffffffffffffffffffffffffffffffffffffff168273ffffffffffffffffffffffffffffffffffffffff167f4a39dc06d4c0dbc64b70af90fd698a233a518aa5d07e595d983b8c0526c8f7fb8686604051612aea929190613d52565b60405180910390a45b5050505050565b7f4e487b7100000000000000000000000000000000000000000000000000000000600052602160045260246000fd5b6000604051905090565b600080fd5b600080fd5b600073ffffffffffffffffffffffffffffffffffffffff82169050919050565b6000612b6882612b3d565b9050919050565b612b7881612b5d565b8114612b8357600080fd5b50565b600081359050612b9581612b6f565b92915050565b6000819050919050565b612bae81612b9b565b8114612bb957600080fd5b50565b600081359050612bcb81612ba5565b92915050565b60008060408385031215612be857612be7612b33565b5b6000612bf685828601612b86565b9250506020612c0785828601612bbc565b9150509250929050565b612c1a81612b9b565b82525050565b6000602082019050612c356000830184612c11565b92915050565b60007fffffffff0000000000000000000000000000000000000000000000000000000082169050919050565b612c7081612c3b565b8114612c7b57600080fd5b50565b600081359050612c8d81612c67565b92915050565b600060208284031215612ca957612ca8612b33565b5b6000612cb784828501612c7e565b91505092915050565b60008115159050919050565b612cd581612cc0565b82525050565b6000602082019050612cf06000830184612ccc565b92915050565b600060208284031215612d0c57612d0b612b33565b5b6000612d1a84828501612bbc565b91505092915050565b600081519050919050565b600082825260208201905092915050565b60005b83811015612d5d578082015181840152602081019050612d42565b60008484015250505050565b6000601f19601f8301169050919050565b6000612d8582612d23565b612d8f8185612d2e565b9350612d9f818560208601612d3f565b612da881612d69565b840191505092915050565b60006020820190508181036000830152612dcd8184612d7a565b905092915050565b600063ffffffff82169050919050565b612dee81612dd5565b8114612df957600080fd5b50565b600081359050612e0b81612de5565b92915050565b600080600060608486031215612e2a57612e29612b33565b5b6000612e3886828701612bbc565b9350506020612e4986828701612bbc565b9250506040612e5a86828701612dfc565b9150509250925092565b600080fd5b7f4e487b7100000000000000000000000000000000000000000000000000000000600052604160045260246000fd5b612ea182612d69565b810181811067ffffffffffffffff82111715612ec057612ebf612e69565b5b80604052505050565b6000612ed3612b29565b9050612edf8282612e98565b919050565b600067ffffffffffffffff821115612eff57612efe612e69565b5b602082029050602081019050919050565b600080fd5b6000612f28612f2384612ee4565b612ec9565b90508083825260208201905060208402830185811115612f4b57612f4a612f10565b5b835b81811015612f745780612f608882612bbc565b845260208401935050602081019050612f4d565b5050509392505050565b600082601f830112612f9357612f92612e64565b5b8135612fa3848260208601612f15565b91505092915050565b600080fd5b600067ffffffffffffffff821115612fcc57612fcb612e69565b5b612fd582612d69565b9050602081019050919050565b82818337600083830152505050565b6000613004612fff84612fb1565b612ec9565b9050828152602081018484840111156130205761301f612fac565b5b61302b848285612fe2565b509392505050565b600082601f83011261304857613047612e64565b5b8135613058848260208601612ff1565b91505092915050565b600080600080600060a0868803121561307d5761307c612b33565b5b600061308b88828901612b86565b955050602061309c88828901612b86565b945050604086013567ffffffffffffffff8111156130bd576130bc612b38565b5b6130c988828901612f7e565b935050606086013567ffffffffffffffff8111156130ea576130e9612b38565b5b6130f688828901612f7e565b925050608086013567ffffffffffffffff81111561311757613116612b38565b5b61312388828901613033565b9150509295509295909350565b600060ff82169050919050565b61314681613130565b811461315157600080fd5b50565b6000813590506131638161313d565b92915050565b600080600080600060a0868803121561318557613184612b33565b5b600061319388828901612bbc565b95505060206131a488828901612bbc565b94505060406131b588828901613154565b93505060606131c688828901612b86565b92505060806131d788828901612dfc565b9150509295509295909350565b600067ffffffffffffffff8211156131ff576131fe612e69565b5b602082029050602081019050919050565b600061322361321e846131e4565b612ec9565b9050808382526020820190506020840283018581111561324657613245612f10565b5b835b8181101561326f578061325b8882612b86565b845260208401935050602081019050613248565b5050509392505050565b600082601f83011261328e5761328d612e64565b5b813561329e848260208601613210565b91505092915050565b600080604083850312156132be576132bd612b33565b5b600083013567ffffffffffffffff8111156132dc576132db612b38565b5b6132e885828601613279565b925050602083013567ffffffffffffffff81111561330957613308612b38565b5b61331585828601612f7e565b9150509250929050565b600081519050919050565b600082825260208201905092915050565b6000819050602082019050919050565b61335481612b9b565b82525050565b6000613366838361334b565b60208301905092915050565b6000602082019050919050565b600061338a8261331f565b613394818561332a565b935061339f8361333b565b8060005b838110156133d05781516133b7888261335a565b97506133c283613372565b9250506001810190506133a3565b5085935050505092915050565b600060208201905081810360008301526133f7818461337f565b905092915050565b60008060006060848603121561341857613417612b33565b5b600061342686828701612b86565b935050602084013567ffffffffffffffff81111561344757613446612b38565b5b61345386828701612f7e565b925050604084013567ffffffffffffffff81111561347457613473612b38565b5b61348086828701612f7e565b9150509250925092565b61349381612dd5565b82525050565b60006020820190506134ae600083018461348a565b92915050565b6134bd81612b5d565b82525050565b60006020820190506134d860008301846134b4565b92915050565b6134e781612cc0565b81146134f257600080fd5b50565b600081359050613504816134de565b92915050565b6000806040838503121561352157613520612b33565b5b600061352f85828601612b86565b9250506020613540858286016134f5565b9150509250929050565b6000806040838503121561356157613560612b33565b5b600061356f85828601612bbc565b925050602061358085828601612dfc565b9150509250929050565b61359381613130565b82525050565b600481106135aa576135a9612afa565b5b50565b60008190506135bb82613599565b919050565b60006135cb826135ad565b9050919050565b6135db816135c0565b82525050565b6000610180820190506135f7600083018f612c11565b613604602083018e612c11565b613611604083018d612c11565b61361e606083018c612c11565b61362b608083018b612c11565b61363860a083018a612c11565b61364560c0830189612c11565b61365260e083018861358a565b61366061010083018761358a565b61366e61012083018661358a565b61367c6101408301856134b4565b61368a6101608301846135d2565b9d9c50505050505050505050505050565b600281106136ac576136ab612afa565b5b50565b60008190506136bd8261369b565b919050565b60006136cd826136af565b9050919050565b6136dd816136c2565b82525050565b60006020820190506136f860008301846136d4565b92915050565b6000806040838503121561371557613714612b33565b5b600061372385828601612b86565b925050602061373485828601612b86565b9150509250929050565b600080600080600060a0868803121561375a57613759612b33565b5b600061376888828901612b86565b955050602061377988828901612b86565b945050604061378a88828901612bbc565b935050606061379b88828901612bbc565b925050608086013567ffffffffffffffff8111156137bc576137bb612b38565b5b6137c888828901613033565b9150509295509295909350565b6000806000606084860312156137ee576137ed612b33565b5b60006137fc86828701612b86565b935050602061380d86828701612bbc565b925050604061381e86828701612bbc565b9150509250925092565b7f4d7573742073656e6420657468657220746f2062757920746f6b656e732e0000600082015250565b600061385e601e83612d2e565b915061386982613828565b602082019050919050565b6000602082019050818103600083015261388d81613851565b9050919050565b7f4e487b7100000000000000000000000000000000000000000000000000000000600052601160045260246000fd5b60006138ce82612b9b565b91506138d983612b9b565b92508282019050808211156138f1576138f0613894565b5b92915050565b7f4e487b7100000000000000000000000000000000000000000000000000000000600052601260045260246000fd5b600061393182612b9b565b915061393c83612b9b565b92508261394c5761394b6138f7565b5b828204905092915050565b600061396282612b9b565b915061396d83612b9b565b925082820261397b81612b9b565b9150828204841483151761399257613991613894565b5b5092915050565b7f4e487b7100000000000000000000000000000000000000000000000000000000600052602260045260246000fd5b600060028204905060018216806139e057607f821691505b6020821081036139f3576139f2613999565b5b50919050565b6000604082019050613a0e60008301856134b4565b613a1b60208301846134b4565b9392505050565b6000613a2d82613130565b9150613a3883613130565b9250828202613a4681613130565b9150808214613a5857613a57613894565b5b5092915050565b600062ffffff82169050919050565b6000613a7982613a5f565b9150613a8483613a5f565b9250828202613a9281613a5f565b9150808214613aa457613aa3613894565b5b5092915050565b6000613ab682612b9b565b9150613ac183612b9b565b9250828203905081811115613ad957613ad8613894565b5b92915050565b6000604082019050613af46000830185612c11565b613b016020830184612c11565b9392505050565b7f4e487b7100000000000000000000000000000000000000000000000000000000600052603260045260246000fd5b6000613b4282612b9b565b91507fffffffffffffffffffffffffffffffffffffffffffffffffffffffffffffffff8203613b7457613b73613894565b5b600182019050919050565b6000613b8a82613130565b9150613b9583613130565b9250828203905060ff811115613bae57613bad613894565b5b92915050565b600081519050919050565b600082825260208201905092915050565b6000613bdb82613bb4565b613be58185613bbf565b9350613bf5818560208601612d3f565b613bfe81612d69565b840191505092915050565b600060a082019050613c1e60008301886134b4565b613c2b60208301876134b4565b613c386040830186612c11565b613c456060830185612c11565b8181036080830152613c578184613bd0565b90509695505050505050565b600081519050613c7281612c67565b92915050565b600060208284031215613c8e57613c8d612b33565b5b6000613c9c84828501613c63565b91505092915050565b600060a082019050613cba60008301886134b4565b613cc760208301876134b4565b8181036040830152613cd9818661337f565b90508181036060830152613ced818561337f565b90508181036080830152613d018184613bd0565b90509695505050505050565b6000608082019050613d2260008301876134b4565b613d2f6020830186612c11565b613d3c6040830185612c11565b613d496060830184612c11565b95945050505050565b60006040820190508181036000830152613d6c818561337f565b90508181036020830152613d80818461337f565b9050939250505056fea26469706673582212208450b42fc4de47458e309a9c57c2881685cbcec5424e6eaf6bc0aeaa50d9937a64736f6c63430008150033",
  "linkReferences": {},
  "deployedLinkReferences": {}
}