{
  "_format": "hh-sol-artifact-1",
  "contractName": "HelsinkiFactory",
  "sourceName": "contracts/Factory.sol",
  "abi": [
    {
      "inputs": [],
      "stateMutability": "nonpayable",
      "type": "constructor"
    },
    {
      "inputs": [
        {
          "internalType": "address",
          "name": "owner",
          "type": "address"
        }
      ],
      "name": "OwnableInvalidOwner",
      "type": "error"
    },
    {
      "inputs": [
        {
          "internalType": "address",
          "name": "account",
          "type": "address"
        }
      ],
      "name": "OwnableUnauthorizedAccount",
      "type": "error"
    },
    {
      "anonymous": false,
      "inputs": [
        {
          "indexed": true,
          "internalType": "address",
          "name": "previousOwner",
          "type": "address"
        },
        {
          "indexed": true,
          "internalType": "address",
          "name": "newOwner",
          "type": "address"
        }
      ],
      "name": "OwnershipTransferred",
      "type": "event"
    },
    {
      "inputs": [
        {
          "internalType": "uint256",
          "name": "amount",
          "type": "uint256"
        },
        {
          "internalType": "uint256",
          "name": "security",
          "type": "uint256"
        },
        {
          "internalType": "uint8",
          "name": "tenure",
          "type": "uint8"
        },
        {
          "internalType": "address",
          "name": "walletAddress",
          "type": "address"
        },
        {
          "internalType": "uint256",
          "name": "slope",
          "type": "uint256"
        }
      ],
      "name": "createProposal",
      "outputs": [],
      "stateMutability": "nonpayable",
      "type": "function"
    },
    {
      "inputs": [],
      "name": "helsinkiAddress",
      "outputs": [
        {
          "internalType": "address",
          "name": "",
          "type": "address"
        }
      ],
      "stateMutability": "view",
      "type": "function"
    },
    {
      "inputs": [],
      "name": "owner",
      "outputs": [
        {
          "internalType": "address",
          "name": "",
          "type": "address"
        }
      ],
      "stateMutability": "view",
      "type": "function"
    },
    {
      "inputs": [],
      "name": "renounceOwnership",
      "outputs": [],
      "stateMutability": "nonpayable",
      "type": "function"
    },
    {
      "inputs": [
        {
          "internalType": "address",
          "name": "_address",
          "type": "address"
        }
      ],
      "name": "setBetAddress",
      "outputs": [],
      "stateMutability": "nonpayable",
      "type": "function"
    },
    {
      "inputs": [
        {
          "internalType": "address",
          "name": "masterCopy",
          "type": "address"
        }
      ],
      "name": "setMaster",
      "outputs": [],
      "stateMutability": "nonpayable",
      "type": "function"
    },
    {
      "inputs": [
        {
          "internalType": "address",
          "name": "newOwner",
          "type": "address"
        }
      ],
      "name": "transferOwnership",
      "outputs": [],
      "stateMutability": "nonpayable",
      "type": "function"
    }
  ],
  "bytecode": "0x608060405234801561001057600080fd5b5033600073ffffffffffffffffffffffffffffffffffffffff168173ffffffffffffffffffffffffffffffffffffffff16036100845760006040517f1e4fbdf700000000000000000000000000000000000000000000000000000000815260040161007b919061019e565b60405180910390fd5b6100938161009960201b60201c565b506101b9565b60008060009054906101000a900473ffffffffffffffffffffffffffffffffffffffff169050816000806101000a81548173ffffffffffffffffffffffffffffffffffffffff021916908373ffffffffffffffffffffffffffffffffffffffff1602179055508173ffffffffffffffffffffffffffffffffffffffff168173ffffffffffffffffffffffffffffffffffffffff167f8be0079c531659141344cd1fd0a4f28419497f9722a3daafe3b4186f6b6457e060405160405180910390a35050565b600073ffffffffffffffffffffffffffffffffffffffff82169050919050565b60006101888261015d565b9050919050565b6101988161017d565b82525050565b60006020820190506101b3600083018461018f565b92915050565b6107e7806101c86000396000f3fe608060405234801561001057600080fd5b506004361061007d5760003560e01c8063746f29961161005b578063746f2996146100c45780638da5cb5b146100e05780639e9e1b97146100fe578063f2fde38b1461011c5761007d565b80630c53a1391461008257806326fae0d31461009e578063715018a6146100ba575b600080fd5b61009c6004803603810190610097919061066e565b610138565b005b6100b860048036038101906100b391906106e9565b610266565b005b6100c26102aa565b005b6100de60048036038101906100d991906106e9565b6102be565b005b6100e861030a565b6040516100f59190610725565b60405180910390f35b610106610333565b6040516101139190610725565b60405180910390f35b610136600480360381019061013191906106e9565b610359565b005b6000610165600260009054906101000a900473ffffffffffffffffffffffffffffffffffffffff166103df565b905060008190508073ffffffffffffffffffffffffffffffffffffffff1663445f54b288888888886040518663ffffffff1660e01b81526004016101ad95949392919061075e565b600060405180830381600087803b1580156101c757600080fd5b505af11580156101db573d6000803e3d6000fd5b5050505081600160008673ffffffffffffffffffffffffffffffffffffffff1673ffffffffffffffffffffffffffffffffffffffff16815260200190815260200160002060006101000a81548173ffffffffffffffffffffffffffffffffffffffff021916908373ffffffffffffffffffffffffffffffffffffffff16021790555050505050505050565b80600260006101000a81548173ffffffffffffffffffffffffffffffffffffffff021916908373ffffffffffffffffffffffffffffffffffffffff16021790555050565b6102b2610449565b6102bc60006104d0565b565b6102c6610449565b80600260006101000a81548173ffffffffffffffffffffffffffffffffffffffff021916908373ffffffffffffffffffffffffffffffffffffffff16021790555050565b60008060009054906101000a900473ffffffffffffffffffffffffffffffffffffffff16905090565b600260009054906101000a900473ffffffffffffffffffffffffffffffffffffffff1681565b610361610449565b600073ffffffffffffffffffffffffffffffffffffffff168173ffffffffffffffffffffffffffffffffffffffff16036103d35760006040517f1e4fbdf70000000000000000000000000000000000000000000000000000000081526004016103ca9190610725565b60405180910390fd5b6103dc816104d0565b50565b6000808260601b90506040517f3d602d80600a3d3981f3363d3d373d3d3d363d7300000000000000000000000081528160148201527f5af43d82803e903d91602b57fd5bf3000000000000000000000000000000000060288201526037816000f092505050919050565b610451610594565b73ffffffffffffffffffffffffffffffffffffffff1661046f61030a565b73ffffffffffffffffffffffffffffffffffffffff16146104ce57610492610594565b6040517f118cdaa70000000000000000000000000000000000000000000000000000000081526004016104c59190610725565b60405180910390fd5b565b60008060009054906101000a900473ffffffffffffffffffffffffffffffffffffffff169050816000806101000a81548173ffffffffffffffffffffffffffffffffffffffff021916908373ffffffffffffffffffffffffffffffffffffffff1602179055508173ffffffffffffffffffffffffffffffffffffffff168173ffffffffffffffffffffffffffffffffffffffff167f8be0079c531659141344cd1fd0a4f28419497f9722a3daafe3b4186f6b6457e060405160405180910390a35050565b600033905090565b600080fd5b6000819050919050565b6105b4816105a1565b81146105bf57600080fd5b50565b6000813590506105d1816105ab565b92915050565b600060ff82169050919050565b6105ed816105d7565b81146105f857600080fd5b50565b60008135905061060a816105e4565b92915050565b600073ffffffffffffffffffffffffffffffffffffffff82169050919050565b600061063b82610610565b9050919050565b61064b81610630565b811461065657600080fd5b50565b60008135905061066881610642565b92915050565b600080600080600060a0868803121561068a5761068961059c565b5b6000610698888289016105c2565b95505060206106a9888289016105c2565b94505060406106ba888289016105fb565b93505060606106cb88828901610659565b92505060806106dc888289016105c2565b9150509295509295909350565b6000602082840312156106ff576106fe61059c565b5b600061070d84828501610659565b91505092915050565b61071f81610630565b82525050565b600060208201905061073a6000830184610716565b92915050565b610749816105a1565b82525050565b610758816105d7565b82525050565b600060a0820190506107736000830188610740565b6107806020830187610740565b61078d604083018661074f565b61079a6060830185610716565b6107a76080830184610740565b969550505050505056fea264697066735822122066f0972c88ff8e4ec412984cedd10740fa7b405da32880591d147ce75091da8464736f6c63430008150033",
  "linkReferences": {},
  "deployedLinkReferences": {}
}